:100000000C94BA030C94E2030C94E2030C94E20304
:100010000C94E2030C94E2030C94E2030C94E203CC
:100020000C94E2030C94E2030C948F290C94FE29A7
:100030000C94E2030C94E2030C94E2030C94E203AC
:100040000C94E2030C947A2C0C94E2030C94E203DB
:100050000C94E2030C94E2030C94E2030C94302C15
:100060000C94E2030C94E2030C94E2030C94E2037C
:100070000C94E2030C94E2030C94E2030C94E2036C
:100080000C94E2030C94E2030C94E2030C94E2035C
:100090000C94E2030C94E2030C94E2030C94E2034C
:1000A0000C94E2030C94E2030C94E203530021004D
:1000B0005F004800440043002C0036003000300050
:1000C00034003000380030003C0030004000300088
:1000D00044003000480030004C0030005000300038
:1000E00031312E2044656661756C7420706C6179C5
:1000F000206F662063617264732E0031302E2050B1
:100100006172746E65722063616C6C656420002C92
:10011000206661696C2E002C2073756363657373B0
:100120002E00392E20506C617920746F7020002CC5
:10013000206661696C2E002C207375636365737390
:100140002E00382E20506C617920746F70207768F3
:1001500065726520636F6D7020686F6C647320003A
:10016000352E20506C617920746F70207472756D1B
:10017000702E00332E20436F6D70657469746F723A
:100180007320646F206E6F742068617665207472CE
:10019000756D70732E00332E20436F6D706574691A
:1001A000746F72287329206D6179206861766520EB
:1001B0007472756D70732E00322E204E6F7420662F
:1001C0006972737420726F756E642E00322E204631
:1001D0006972737420726F756E642E00312E205711
:1001E0006520776F6E207468652063616C6C2E00EB
:1001F000342E20576520646964206E6F74207769FF
:100200006E2063616C6C2E00202D2D2D2D2D2D2D3B
:100210002D2D2D2D2D2D2D2D2D2D2D2D2D2D2D2D0E
:100220000053756974202D20500031312E20446513
:100230006661756C7420706C6179206F66206361F3
:100240007264732E002C206661696C2E002C207362
:100250007563636573732E00392E20506C617920AD
:10026000746F7020002C206661696C2E002C207346
:100270007563636573732E00382E20506C6179208E
:10028000746F7020776865726520636F6D70206889
:100290006F6C64732000352E20506C617920746F70
:1002A00070207472756D702E00332E20436F6D7048
:1002B000657469746F727320646F206E6F74206848
:1002C000617665207472756D70732E00332E204335
:1002D0006F6D70657469746F72287329206D617910
:1002E0002068617665207472756D70732E00322EF1
:1002F000204E6F7420666972737420726F756E641D
:100300002E00322E20466972737420726F756E64EF
:100310002E00312E20576520776F6E20746865207F
:1003200063616C6C2E00342E205765206469642054
:100330006E6F742077696E2063616C6C2E00202DC7
:100340002D2D2D2D2D2D2D2D2D2D2D2D2D2D2D2DDD
:100350002D2D2D2D2D2D0053756974202D2050002D
:10036000200032342E2048616E6420686173206E54
:100370006F74206265656E207472756D7065642E91
:100380000032322E2048616E6420686173206265FD
:10039000656E207472756D7065642E0032332E2088
:1003A0005472756D7020686173206E6F7420626581
:1003B000656E206C65642E0032322E205472756D8D
:1003C0007020686173206265656E206C65642E0024
:1003D00032312E20506172746E6572206861732014
:1003E0006E6F7420706C617965642E0032312E203E
:1003F00048616E6420686173206E6F742062656569
:100400006E207472756D7065642E0032302E204837
:10041000616E6420686173206265656E2074727518
:100420006D7065642E0031392E205472756D702008
:10043000686173206E6F74206265656E206C656400
:100440002E0031382E20506C61796572206973203E
:100450006E6F74206C6173742E0031372E20506CD7
:1004600061796572206973206E6F74206C6173749A
:1004700020627574206E6578742063616E6E6F748F
:1004800020666F6C6C6F7720737569742E0031363F
:100490002E20506C61796572206973206C617374D1
:1004A0002E0031352E205472756D702068617320D6
:1004B0006265656E206C65642E0031342E204E6FAF
:1004C000206F6620756E706C61796564206361725F
:1004D000647320696E2073756974200031332E2097
:1004E000506172746E65722068617320706C6179FE
:1004F000656420746F7020636172642E0031322E47
:100500002048616E6420686173206E6F742062659C
:10051000656E207472756D7065642E0031312E2009
:1005200048616E6420686173206265656E20747234
:10053000756D7065642E0031302E204E6578742004
:10054000706C617965722063616E20666F6C6C6F90
:100550007720737569742E00392E204E6F206F66D8
:1005600020756E706C61796564207472756D70733E
:100570002000382E204E65787420706C6179657289
:100580002063616E20666F6C6C6F77207375697481
:100590002E00372E205472756D70206861732062B2
:1005A00065656E206C65642E00362E20506C617976
:1005B0006572206973206E6F74206C6173742E00F5
:1005C000352E205472756D7020686173206E6F74C3
:1005D000206265656E206C65642E00342E20547296
:1005E000756D7020686173206265656E206C65644E
:1005F0002E00332E20506C61796572206973206C57
:100600006173742E00322E20506172746E657220F8
:1006100069732077696E6E696E672068616E642EFB
:1006200000312E20506172746E65722068617320F3
:10063000706C617965642E00202D2D2D2D2D2D2DB2
:100640002D2D2D2D2D2D2D2D2D2D2D2D2D2D2D2DDA
:100650000053756974202D20500032342E204861DB
:100660006E6420686173206E6F74206265656E2011
:100670007472756D7065642E0032322E2048616E82
:100680006420686173206265656E207472756D7098
:1006900065642E0032332E205472756D70206861AF
:1006A00073206E6F74206265656E206C65642E0029
:1006B00032322E205472756D70206861732062652D
:1006C000656E206C65642E00202D2D2D2D2D2D2D79
:1006D0002D2D2D2D2D2D2D2D2D2D2D2D2D2D2D2D4A
:1006E0000053756974202D205000080B000202028F
:1006F00000000904000001020200000524001001AE
:100700000524010101042402060524060001070551
:10071000810310004009040100020A0000000705DF
:1007200002024000000705830240000004030904A0
:1007300012010002EF020140412336800001010254
:10074000030141726475696E6F204C4C4300417225
:100750006475626F7900D5F08D14A1C881CFD9F18D
:10076000AF2000DB20C0A0D92181FFA800A800A8ED
:100770003F00912C11241FBECFEFDAE0DEBFCDBFCA
:1007800011E0A0E0B1E0E4E1F5E602C005900D92D1
:10079000A437B107D9F727E0A4E7B1E001C01D9263
:1007A000A03FB207E1F713E0CAEBD3E004C0219702
:1007B000FE010E948232C93BD107C9F70E940C2D6D
:1007C0000C9488320C94000090911F01923041F0FB
:1007D000933061F0913019F4811110921F01089546
:1007E0008130D9F381E080931F0108958230D1F3E5
:1007F00082E0F9CF90911F01913051F018F09230C2
:1008000059F00895813031F081E080931F010895FF
:10081000823021F082E0F9CF8330C9F383E0F5CF55
:100820002091EF0730E02F5F3F4F95E0929FF0015E
:10083000939FF00D1124E756F84F9281913019F0F3
:10084000923051F00895833080F0853088F0853003
:1008500061F482E090E00895833038F0853040F014
:10086000853019F484E090E0089590E080E00895E8
:1008700081E090E00895FC018091AA05882311F1A0
:100880003FB7F89482E08093E9002091F200822F34
:1008900090E01816190614F481E090E0882339F0EE
:1008A000289844E64093A9054091F1004083222313
:1008B00039F02091F200211103C02BE62093E800CB
:1008C0003FBF08958FEF9FEF08952FB7F89483E00F
:1008D0008093E9009091E800892F807295FF04C011
:1008E0009091F20080E4891B2FBF08958091A105AB
:1008F00081110DC082E080939D0584E080939E0568
:100900001092A00510929F0581E08093A1058DE9CA
:1009100095E0089540918A0150918B0120918801C2
:100920003091890142175307B4F49091E800957013
:10093000E1F39091E80092FD19C08093F10080915D
:100940008A0190918B0101968F739927892B19F455
:100950008EEF8093E80080918A0190918B0101963F
:1009600090938B0180938A0181E0089580E008953F
:10097000EF92FF920F931F93CF93DF93F82E192FCF
:10098000E62E042F81E0860F880F0E948A0483E000
:100990000E948A04CF2DD12FEC0EFD2EF11CCE1516
:1009A000DF05B9F007FF13C0FE0184910E948A049D
:1009B000182F80E00E948A04812321968111EFCFB5
:1009C000DF91CF911F910F91FF90EF900895888153
:1009D000EDCF81E0F5CFDF92EF92FF920F931F935F
:1009E000CF93DF93D82E8A01EB017B01E40EF51E35
:1009F000CE15DF0559F0D7FE12C0FE0184910E948A
:100A00008A0421968111F4CF0FEF1FEFC801DF9107
:100A1000CF911F910F91FF90EF90DF900895888103
:100A2000EECF0F931F93CF93DF931F92CDB7DEB717
:100A300082E0898342E450E06AEE76E080E80E943A
:100A4000EB040E947604DC0112960D911C910115B5
:100A5000110589F0D801ED91FC910280F381E02D20
:100A6000BE016F5F7F4FC801099597FD04C0F80173
:100A700000851185ECCF89810F90DF91CF911F9177
:100A80000F910895615030F02091F100FC01208316
:100A90000196F8CF289884E68093A9050895CF930E
:100AA000DF931F92CDB7DEB76983DC01ED91FC9136
:100AB0000280F381E02D41E050E0BE016F5F7F4F87
:100AC00009950F90DF91CF9108950F931F93CF93C6
:100AD000DF938C01D0E0C0E0F801EC0FFD1F6491C2
:100AE000662341F08CEA95E00E944F05892B11F0B6
:100AF0002196F2CFCE01DF91CF911F910F910895F2
:100B000083E08093E9008091F200882319F08AE362
:100B10008093E80008950E94650490E00895CF93C3
:100B2000DF931F92CDB7DEB7FC018485958597FDD5
:100B300008C02FEF3FEF358724870F90DF91CF91CB
:100B40000895CE0101960E943B04019719F4898112
:100B500090E0F3CF8FEF9FEFF0CF0F931F93CF93E2
:100B6000DF931F92CDB7DEB78C01FC01848595859C
:100B700097FF0BC0CE0101960E943B04019771F4D0
:100B8000898190E0F80195878487F80184859585AF
:100B90000F90DF91CF911F910F9108958FEF9FEFED
:100BA000F1CFFC018485958597FD0BC09FB7F89424
:100BB00082E08093E9008091F2009FBF90E001966F
:100BC00008959FB7F89482E08093E9008091F20045
:100BD0009FBF90E008950DB407FEFDCF8EB5599AE2
:100BE00008950DB407FEFDCF8EB51EBC089559982B
:100BF0000E940F06862F0E940F06852F0E940F0667
:100C0000842F0C940F06462F50919201570F60913C
:100C10009301681F83E00E94F7051EBC08958EBDF6
:100C200000008EB50DB407FEFCCF0895FC010E94B4
:100C3000B106319728F068517C4F8F4F9F4FF9CF05
:100C4000AB01FC010E94B106641775078E079F0770
:100C5000C8F3089585E090E00C9416068F929F9259
:100C6000AF92BF92CF92DF92EF92FF920F931F93BA
:100C7000CF93DF936C017B018A0180910B01882364
:100C800009F45AC08091AA05882309F455C08091BF
:100C90008E0180FF05C08091E00082608093E000BB
:100CA000E801B12C8AEFA82E93E0892E2AE3922E38
:100CB000209711F4BB20C9F10E946504811108C07E
:100CC000AA94AA20C9F181E090E00E941606F0CF14
:100CD0008C171D0611F00CF08C2F9FB7F8948092A2
:100CE000E9002091E80025FD02C09FBFE1CF282F39
:100CF00030E0C21BD30BF701815020F041914093AB
:100D0000F100FACFE20EF31EBB2021F09092E80032
:100D1000B12CEBCF8091E80085FDE7CF9092E80001
:100D2000BB24B394209709F3F3CF5D9884E68093B6
:100D30008D01101611063CF081E090E0F6019383DE
:100D4000828310E000E0C801DF91CF911F910F91E5
:100D5000FF90EF90DF90CF90BF90AF909F908F90DB
:100D60000895A4E8B1E02FB7F8947D918D919C91FE
:100D700066B52FBFA89B05C06F3F18F47F5F8F4FEC
:100D80009F4F22E0660F771F881F991F2A95D1F782
:100D90000895FC019081611105C081E0913039F026
:100DA00080E005C0613021F481E09111F9CF089510
:100DB000623021F481E0933099F7F9CF633081F705
:100DC00081E0923069F7F3CF30E73CBDDC0130E8D9
:100DD000439FC0011124A80FB91F5E91352F6111E7
:100DE000372F3C93C89500C052235EBD0197A9F7E9
:100DF00004D003D030E50DB43CBD089580917C0152
:100E000080937D019FB19095907F669B98601C9B1D
:100E1000946090937C01809589230895262F90916A
:100E2000EE07891B990B039664E070E00E946E3216
:100E3000489F200D1124822F08950F931F93CF9365
:100E4000DF9344E0849F90011124F901E854FF4F9F
:100E5000849140E1849FC0011124CCE0D1E09987C6
:100E60008887F901E654FF4FE49120E1E29FF00109
:100E70001124FB87EA87805E964008E110E0B80104
:100E80000E946E329B017D836C83CF014097B80135
:100E90000E946E327F836E832052394F39832883BC
:100EA0007195619571097B836A8382E190E09F87E8
:100EB0008E8780E891E09D878C87DF91CF911F918D
:100EC0000F910895E9E9F7E02DEA37E080E0978196
:100ED000911101C08F5F35962E173F07C1F78430FF
:100EE000E8F420919B0565E0822F90E001968370E5
:100EF0009927282FAC014F5F5F4F649FF001659FDA
:100F0000F00D1124E756F84F3281332369F38093B3
:100F10009B051092FF051092FE05089580911C011B
:100F20008152823060F480919B0590E0019683703D
:100F3000992780939B0583E280931C01EACF86E288
:100F400080931C010895E6E9F7E080818F5F80833C
:100F50008150990B25E0289FD001299FB00D1124C5
:100F6000A35EB84F11969C911197E9E9F7E096A717
:100F70008C9185A791AB80AB08953F924F925F9281
:100F80006F927F928F929F92AF92BF92CF92DF9299
:100F9000EF92FF920F931F93CF93DF9300D01F9296
:100FA000CDB7DEB73A01862EA4E9B1E0B701E02F54
:100FB000DD24382E96959695969531E061FD34E0C6
:100FC00060FD330F62FD32955FEF539F7001E09437
:100FD000F094759567957595679575956795462F06
:100FE0004F3F4CF44095941B20FD440F489F600CEC
:100FF000711C8D1C4FEF17FF0BC0300E20FF02C07D
:10100000000F111F601A710A8D0817FD8394EE27D7
:1010100050E845030E0EA00DB11D5E1B351608F0FD
:10102000352E57E0541B591714F4952FD39450E8DC
:101030005319482E552421FD02C04318550820FF9E
:1010400002C0440C551C11245B824A82932E0090EE
:101050009201700C00909301801C19C0599833E0E4
:101060003EBD640C751C811CAA24831509F0A39451
:101070000CD08EBC07D07EBC05D06EBC03D01EBC8D
:1010800003D00895C8950000C895C89508956418C0
:1010900075088108E3DF41151CF0992371F564C0E0
:1010A000A058BF4FC32C20FD0CC06EB51EBC699D5F
:1010B000BC90BF20B128BD92C89500C0CA94A9F7C2
:1010C00011C06EB51EBC699DB001DEDFEEB41EBC62
:1010D000E99C7001BC90F094BF20B72ABD92C895DE
:1010E000CA9479F71124A319B1099A9509F45CC03F
:1010F000AA2019F00DB4599AB1DFFD01E058FF4F55
:10110000C32C20FD0EC06EB51EBC699DBC90BE20D8
:10111000B028BD92B080BF20B128B192CA9499F78F
:1011200016C06EB51EBC699DB001BC90F080AEDFEC
:1011300000C0EEB41EBCE99C0094B020B62ABD925B
:101140001094F120F72AF1920000CA9451F711246B
:10115000A50FB11D9A9561F6DD2031F1AA2021F08D
:101160000DB4599A7BDFC89520FD0CC06EB51EBC2E
:10117000699DBC90BE20B028BD92C89500C03A942D
:10118000A9F712C06EB51EBC699DB0017DDF9EB58A
:101190001EBC999D902DBC909095B922B62ABD9207
:1011A000C8953A9479F7C8951124599A0DB40F90BF
:1011B0000F900F90DF91CF911F910F91FF90EF90C3
:1011C000DF90CF90BF90AF909F908F907F906F9067
:1011D0005F904F903F9008956F927F928F92AF9261
:1011E000CF92DF92EF92FF920F931F93DC01922F29
:1011F0002A2DF92FE42F3701802EC114D104A1F03C
:10120000969596959695A0FC990F949F7001ED9CEC
:10121000700C811CFC9C700C811CFD9C800CEC9C57
:10122000600C711C1124811C7B018D01682DA301B0
:10123000CF010E94BD071F910F91FF90EF90DF90AB
:10124000CF90AF908F907F906F9008954F925F9264
:101250006F927F928F92AF92BF92CF92DF92EF9276
:10126000FF920F931F93CF93DF93EC012B01390172
:10127000842E842FB9010E9403060E94F105B82E26
:101280000E94EB05C038D105FCF490E449165104E6
:10129000DCF49E012B0D311D12161306ACF49201E5
:1012A000280F311D121613067CF492E0690E711C92
:1012B000811C93E0A92E6801082D7301282F4B2D66
:1012C000B201CE010E94EC08DF91CF911F910F91E6
:1012D000FF90EF90DF90CF90BF90AF908F907F9076
:1012E0006F905F904F900895EF92FF920F931F932E
:1012F000CF93DF93F82EC091EE078091A007813045
:10130000C9F108F452C0823009F447C0833009F4AF
:101310005DC0E12C8091A507813009F45BC008F421
:1013200070C0823009F468C0833009F47CC08091B9
:10133000AA07813009F47EC008F495C0823009F410
:101340008DC0833009F49FC08091AF07813009F4CC
:101350009FC008F4B4C0823009F4ACC0833009F4F3
:10136000CBC0E110BDC0DF91CF911F910F91FF90D5
:10137000EF9008950F2D10E00D5F1F4F2AE13EEE14
:1013800043E061E170E08CE590E00E942609C11124
:10139000C0CFD6E05DE5E52EBDCF0F2D10E02AE1F0
:1013A0003EEE43E060E170E0EECF0F2D10E00A5F0B
:1013B0001F4F2AE13EEE43E06FE070E08CE590E0E5
:1013C0000E942609C111A5CFDAE0E4CFC111A1CF57
:1013D000D7E1E0CF0F2D10E00D5F1F4F2EEF3AEE5B
:1013E00043E068E270E089E290E00E942609C130A3
:1013F00009F09DCFD8E29BCF0F2D10E00A5F1F4F61
:10140000EDCF0F2D10E02EEF3AEE43E068E270E0F2
:1014100089E290E00E942609C13009F088CFD8E225
:1014200043E2E42E84CFC13009F081CFD8E234E327
:10143000E32E7DCF0F2D10E00D5F1F4F2EE93CEE08
:1014400043E060E170E086E090E00E942609C2304F
:1014500009F07ACFD7E027E0E22E76CF0F2D10E00B
:101460000A5F1F4FEBCF0F2D10E02EE93CEE43E05B
:1014700060E170E086E090E00E942609C23009F049
:1014800063CFDBE0E8CFC23009F05ECFD7E1E3CF36
:101490000F2D10E00D5F1F4F2EE539EE43E066E0A3
:1014A00070E089E290E00E942609C33009F059CF2C
:1014B000D6E057CF0F2D10E00A5F1F4FEDCF0F2D55
:1014C00010E02EE539EE43E066E070E089E290E05E
:1014D0000E942609C33009F044CFD6E090E4E92EFB
:1014E0000F2D10E06D2F70E020E13BE845E08E2DE0
:1014F00090E00E94260937CFC33009F032CFD6E002
:1015000085E3E82EEDCF0F931F939091EE07923075
:1015100091F09330D1F091110BC0082F10E028E822
:1015200031EF43E06DE070E08CE590E00E94260929
:101530001F910F910895082F10E02EED30EF43E03A
:101540006FE070E086E090E0F1CF082F10E026E930
:101550003FEE43E066E070E087E290E0E7CF0F9374
:101560001F932091EE072130A9F088F02230A9F0D6
:101570002330B1F0082F10E070E020E13BE845E0B7
:10158000892F90E00E9426091F910F91089567E12D
:101590009DE5F0CF68E294E3EDCF67E197E0EACF15
:1015A00066E0F9CF4F925F926F927F928F92AF92E7
:1015B000BF92CF92DF92EF92FF920F931F93CF9340
:1015C000DF932C01EB013901842E842FB9010E9495
:1015D00003060E94F105B82E0E94EB05C034D10528
:1015E000D4F492012B0D311D232BA9F09E01280F5D
:1015F000311D121613067CF492E0690E711C811CD9
:1016000092E0A92E6801082D7301282F4B2DBE01F1
:10161000C2010E94EC08DF91CF911F910F91FF90C2
:10162000EF90DF90CF90BF90AF908F907F906F90B2
:101630005F904F900895EF92FF920F931F93CF9377
:10164000DF93E42EF22E2091EF0704E22F3F21F0EA
:1016500009E0209F002D1124C82FD0E0060F0C0FA9
:101660001D2F111D21E631EE42E060E270E089E6B7
:1016700090E00E94D20AEE20A1F08091D1079091D3
:10168000D2078C01000F111F080F191F0C0F1D1F0F
:101690002DEB35E243E063E370E086E790E00E94E3
:1016A000D20AFF20A1F08091CF079091D0078C0142
:1016B000000F111F080F191F0C0F1D1F2DEB35E216
:1016C00043E06AE370E086E790E00E94D20ADF918F
:1016D000CF911F910F91FF90EF900895EF92FF929D
:1016E0000F931F93CF93DF93E42EF22E90E066309A
:1016F00030F02091EC0799E0299F902D1124C82FFC
:10170000D0E0092F060F0C0F1D2F111D27E432ED1D
:1017100042E070E060E089E690E00E94D20AEE20AC
:10172000A1F08091CC079091CE07890F8E0193E0B4
:10173000899F000D111D11242DEB35E243E068E077
:1017400070E086E790E00E94D20AFF20A1F080912D
:10175000CB079091CD07890F8E0193E0899F000DF3
:10176000111D11242DEB35E243E06FE070E086E7B8
:1017700090E00E94D20ADF91CF911F910F91FF90CC
:10178000EF900895CF93DF93FC01DB0111969C91BC
:101790001197208585E0EF01289FC00DD11D1124F0
:1017A0009B879085EF01989FC00DD11D11242A962B
:1017B0009C91988314969C9114979C8313969C916A
:1017C0002085DF01289FA00DB11D11241D969C933B
:1017D00080858F5F8087DF91CF910895E6E9F7E0FC
:1017E00020812F5F20832150330B95E0929FB00121
:1017F000939F700D1124635E784F27E4829FC00190
:1018000011248F5F994F0C94C20BFC01A085B0E0AE
:1018100030E020E08FEF2A173B0764F492856913CC
:1018200005C09385491710F4822F492F2F5F3F4F32
:101830003596F1CF0895FC01A085B0E030E020E0BE
:101840008FEF2A173B0764F49285691305C09385CF
:10185000941710F4822F492F2F5F3F4F3596F1CF09
:101860000895FC01208580E0281731F03596958198
:10187000691721F08F5FF8CF80E0089581E0089527
:10188000FC0190E085E02085921748F4DF01989FE5
:10189000A00DB11D11241C961C929F5FF4CF0895DA
:1018A0000F931F93CF931092AB050DEE17E0D80165
:1018B0008C91C7E48C9FC00111248F5F994F0E94C7
:1018C000400CD801EC91EC9FF0011124E55FF94F39
:1018D00081E08283CF911F910F910895FC0120E058
:1018E0003FEF40E0518D651305C0528D451710F450
:1018F000322F452F2F5F35962430A1F725E03F3F4B
:1019000029F4FC01EC5AFF4F208135E0239F800D24
:10191000911D112449960895FC01EA5AFF4F208138
:101920002F3F71F030E02F5F3F4F65E0629FA001D5
:10193000639F500D1124840F951FFC018081089531
:101940008FEF0895CF93DF93EC010E948C0C982FBA
:10195000898D981769F08E8D981751F08BA1981783
:1019600039F081E028A5291380E0DF91CF91089517
:1019700081E0FBCFFF920F931F93CF93DF93EC0196
:101980000E948C0C082FFE01EA5AFF4F808190E0E4
:10199000019625E0F22EF89EF001F99EF00D11243B
:1019A000EC0FFD1F828181508230A0F4CE010E9495
:1019B000A20C8823B1F01FEF90E080E0298D021384
:1019C00005C02A8D921710F4922F182F8F5F25963D
:1019D0008430A1F7812FDF91CF911F910F91FF905C
:1019E0000895FE01ED5AFF4F8081FE018F9DE00DAD
:1019F000F11D1124318D1FEF90E080E0298D32130D
:101A000005C02A8D921710F4922F182F8F5F2596FC
:101A10008430A1F7DFCF0F931F93082F10911C0183
:101A200084ED810F833008F083C089E997E00E943C
:101A3000BA0C282F8091FE059091FF0560E370E0BD
:101A40000E945A322D7F213031F4489748F021E02E
:101A500040E069E008C020E041E06CE0489718F4FD
:101A600021E041E066E0802F0E946E0B1C3209F4F9
:101A70005BC08091EF07882319F0823009F042C0E3
:101A80008091CB079091CD07890F10E00E94100440
:101A90009C018091FE059091FF051130D1F5121641
:101AA0001306CCF160E370E00E945A3220E041E07E
:101AB0006CE04897C8F1802F0E941B0B8091EF07C4
:101AC0008F3FE9F090E0019625E0289FF001299FE3
:101AD000F00D1124E756F84F808190E09C01220F11
:101AE000331F820F931F080F192F111D25EF30EDA3
:101AF00042E069E170E08EE690E00E94D20A1F9118
:101B00000F9108958091CC079091CE07890F11E035
:101B1000BDCF232B39F660E370E00E945A3221E0FA
:101B200040E069E0489738F621E041E066E0C3CF45
:101B300021E041E066E0802F0E946E0BF5CFCF934D
:101B4000DF938091ED0727E490E00196EC01C370EC
:101B5000DD278C2F2C9FF0012D9FF00D1124E95BC8
:101B6000F94F9081992381F3C093ED079AE2909306
:101B70001C019091EC079C133DC089E997E00E94FD
:101B8000BA0CE82FF0E0E756F84F82A98F5F82ABDE
:101B900085E08C9FF0018D9FF00D1124EE54F84FDD
:101BA000C08189E997E00E948C0CE9E9F7E02C2FCD
:101BB00030E02756384F4DEA57E0918D8C1307C01F
:101BC000891739F0D901AE5BBF4F1C9202C0C9130F
:101BD000F9CF35962C5F3F4F4E175F0771F789E9B4
:101BE00097E00E94BA0C8093EC078093ED078CE29B
:101BF00080931C011092FF051092FE0580919605BE
:101C0000811104C0DF91CF910C94500CDF91CF91E2
:101C100008951F93CF93DF93EC01162F0E94A20C1F
:101C2000FE018823E1F090E020E08FEF318D131367
:101C300005C0328D231710F4232F892F9F5F35960F
:101C40009430A1F78F3F31F195E0899FC00DD11DF0
:101C50001124CE014996DF91CF911F910895ED5A3D
:101C6000FF4F8081FE0195E0899FE00DF11D112459
:101C7000418DFE0190E020E08FEF318D431305C0D0
:101C8000328D231710F4232F892F9F5F35969430C0
:101C9000A1F7D8CFFE01EC5AFF4F8081D5CFCF936B
:101CA000DF93EC010E948C0C282FFE01ED5AFF4FB0
:101CB000908131968081981741F085E0989FC00D02
:101CC000D11D112481E0998D921380E0DF91CF9195
:101CD00008950F931F93CF93DF93EC01062F142FDA
:101CE0000E948C0C982F84E0189FF0011124EC0FB7
:101CF000FD1F901326C0E90FF11DEE5BFF4F8081A1
:101D00008823D1F08230C1F0E1E0992351F0E0E086
:101D1000913039F0E3E0923021F0E2E0933009F0C5
:101D2000EFEFF0E07D96EE0FFF1FEC0FFD1F8081BF
:101D3000918193FF0CC082E0DF91CF911F910F91B1
:101D40000895E00FF11DEE5BFF4F8081F5CF80E03D
:101D5000F3CF1F93CF93DF93EC01162F0E948C0CCF
:101D6000412F682FCE01DF91CF911F910C94690E06
:101D7000722F203171F4461335C0E42FF0E07D96C8
:101D8000EE0FFF1FE80FF91F818183FB882780F981
:101D900008952F3089F4461325C0413049F030F0C2
:101DA000423041F0433049F742E0E7CF41E0E5CF30
:101DB00040E0E3CF43E0E1CF50E0435E5F4F440FAC
:101DC000551FFC01E40FF51F21E030E002C0220F97
:101DD000331F7A95E2F7808191812823392381E0AE
:101DE000232B09F480E008959F92AF92BF92CF9287
:101DF000DF92EF92FF920F931F93CF93DF936C01CB
:101E0000F62EE42EFC0100811181C8010E948C0C89
:101E1000B82E29E0A22EE110AE2C9EE0992EFB10E8
:101E200002C081E1982EDA2DC0E09D1690F4F601F3
:101E3000208530E090E080E082179307DCF4428553
:101E4000F41204C04385E41608F4C1500196359697
:101E5000F3CFFB1002C0DB3059F0DA1549F02D2F1B
:101E60004F2D6B2DC8010E94B80E811101C0CF5FAC
:101E7000DF5FDBCFF801EA5AFF4F9081F6018781DF
:101E8000981308C0F80185A5F81204C086A5E816C5
:101E900008F4C1508C2FDF91CF911F910F91FF90CB
:101EA000EF90DF90CF90BF90AF909F900895DF921A
:101EB000EF92FF920F931F93CF93DF937C01062F36
:101EC000142F40E0612F0E94050CD82F8F3FF9F0AE
:101ED000F70185E0D89FE00DF11D1124D384CEE0F9
:101EE000101301C0C0E1CD1590F0101302C0CB302B
:101EF00051F02C2F412F602FF701808191810E949A
:101F0000B80E882311F0C150EECFDC12DFEF8D2F19
:101F1000DF91CF911F910F91FF90EF90DF90089587
:101F20000F931F93CF93DF93FC01C181442311F0E2
:101F3000433071F4CC23A9F1FC010081F901E00FD9
:101F4000F11D8081F4E18F9FC00D11248C2F20C0E2
:101F5000CC2339F18901D081CB30F9F40E94C90634
:101F60008823D9F0E1E0DD2351F0E0E0D13039F011
:101F7000E3E0D23021F0E2E0D33009F0EFEFE00F00
:101F8000F12FF11D8081C4E18C9F802D1124815F90
:101F9000DF91CF911F910F910895F801ED0FF11D81
:101FA000D0CF8FEFF5CF5F926F927F928F929F92FB
:101FB000AF92BF92CF92DF92EF92FF920F931F9357
:101FC000CF93DF9300D000D0CDB7DEB77C01DC012A
:101FD000CD90DC90C6010E948C0C182FF601EA5AB5
:101FE000FF4F2081712C2F3F69F030E02F5F3F4F72
:101FF00045E0429FC001439F900D1124C80ED91E99
:10200000F60172808091240190912501A091260112
:10201000B091270189839A83AB83BC8360E0C701B9
:102020000E94310CC82E61E0C7010E94310C082FBC
:1020300062E0C7010E94310CD82E63E0C7010E9404
:10204000310CCC2009F42EC1002309F493C0DD200B
:1020500009F4ACC0882349F0111114C093E09983AE
:1020600091E09A831B8292E09C83DD2009F49EC05C
:10207000811136C01111C5C082E089831A8281E0C6
:102080008B83C5C0113011F419837EC0123021F446
:1020900093E09B8391E0E8CF133039F7198292E007
:1020A0009A8391E09B831C83E0CFDD20C9F08823D5
:1020B000B9F0111108C083E0898381E08A831B8213
:1020C00082E08C830DC083E0113009F46CC01230C3
:1020D00009F04BC083E0898381E08A831B831C82E3
:1020E00067018AE0C80ED11C00E00F5F5601A5E031
:1020F000AA1AB108602EB6E06B1609F4A4C0450117
:10210000EAE08E0E911C9E012F5F3F4F472D612FFD
:10211000C4010E94900F582E9E012F5F3F4F472D04
:10212000612FC6010E94900F5816D0F4D6015C9121
:1021300011964C91119713963C91139714962C91EC
:10214000149712969C91129785E0F40101900D92DC
:102150008A95E1F7F501528743873587268794876B
:102160006394F5E0AF0EB11CC6CF133009F0B8CFC1
:102170001983A3CFDD2009F4B3CF882309F4B0CFAE
:10218000111104C081E0898383E098CF113009F4F4
:102190007BCF123021F481E0898383E09ECF13301E
:1021A00009F09ECF81E089831A8389CF882349F083
:1021B000111115C092E099831A8293E09B8391E0FC
:1021C0009C83002309F48CCF81118ACF111132C076
:1021D00083E0898382E08A831B8281E072CF1130A1
:1021E00039F4198282E08A8383E08B831C8378CF61
:1021F000123021F4198292E09A83DFCF1330D1F3A9
:10220000E0CF113031F4198282E08A831B8383E0AE
:1022100058CF123021F4198282E08A8330CF1330F4
:10222000D1F35ECF133009F05BCF81E08A8382E087
:102230008B8356CF113009F053CF82E0898383E03E
:102240008A831B82D3CFF5E0CF0ED11C063009F074
:102250004CCFD70118961C92F7019701225E3F4F91
:102260008385882359F0D70118968C9118978F5F32
:1022700018968C933596E217F30791F70F900F900D
:102280000F900F90DF91CF911F910F91FF90EF90E2
:10229000DF90CF90BF90AF909F908F907F906F9086
:1022A0005F900895011101CFDD2009F419CF882333
:1022B00009F416CF123009F0B5CF81E094CF1F9307
:1022C000CF93DF93DC0118962C91A22FB0E0FC0194
:1022D0003A9650E040E04A175B0724F51081EB0185
:1022E0003881131324C011813981131320C0215068
:1022F000DC0118962C9318970D90BC91A02D21818C
:102300009E962C939E9720819D962C939D9721813C
:10231000D1962C93D1972081D0962C932FEF2083A8
:1023200011821282DF91CF911F910C94D30F4F5FD6
:102330005F4F3596D0CFCF93DF93EC0155E0FC0192
:10234000659FE00DF11D11243A9680818A83818179
:102350008B8383818D8384818E8382818C834111E1
:1023600043C0838190E0880F991FA881B981A80F8D
:10237000B91F248181E090E0BC0102C0660F771F85
:102380002A95E2F79B01DA968D919C91DB97862B3B
:10239000932BDB969C938E93DA9728813981C90120
:1023A0008C5A9F4FDC018C91D901859FA00DB11DE6
:1023B0001124599680818C93818111968C93119769
:1023C000838113968C931397848114968C9314971E
:1023D000828112968C938FEF808311821282CE01BC
:1023E000DF91CF910C94D30FDF91CF910895FC0131
:1023F000B08530E05FEFAFEFB31769F07285671318
:1024000007C07385471720F47A1710F4532FA72FAE
:102410003F5F3596F1CF5F3F31F0422F652F0E942D
:102420009B1181E0089580E00895AF92BF92CF9212
:10243000DF92EF92FF920F931F93CF93DF937C0174
:10244000D62EC42EB22EC0E0DFEF1FEF85E0A82EFF
:10245000DC16A9F0CC1699F0BC1689F04FEF6C2F62
:10246000C7010E941B0C8F3F51F0F7018A9DE00DC0
:10247000F11D11249385911710F4D82F192FCF5FD8
:10248000C43031F780E0DF3F31F0402F6D2FC701BE
:102490000E949B1181E0DF91CF911F910F91FF90DE
:1024A000EF90DF90CF90BF90AF9008958F929F9262
:1024B000AF92BF92CF92DF92EF92FF920F931F9352
:1024C000CF93DF938C01E62EA42E922EC0E025E060
:1024D000822EAC16E9F0D0E099E0F92EEC1203C0A0
:1024E0002BE0F21659F02F2D4C2F6E2DF801808124
:1024F00091810E94B80E811101C0DF2DF394FFE09D
:10250000FF12ECCF8EEF8C0F823038F4D43049F4C8
:10251000CF5FC430F1F680E03CC0C23010F4D5305B
:10252000B9F3D15040E06C2FC8010E94050C8F3FD9
:1025300079F39801889D200D311D1124F9013A96F7
:102540006F0189E0F82EB12CDF1590F0EC1203C07A
:10255000FBE0FF1659F02F2D4C2F6E2DF8018081D6
:1025600091810E94B80E811101C0BF2CF394ECCF71
:10257000F60181818B11CCCF4D2F6C2FC8010E94A9
:102580001B0C8F3F29F2492D682FC8010E949B1117
:1025900081E0DF91CF911F910F91FF90EF90DF903D
:1025A000CF90BF90AF909F908F900895FF920F9320
:1025B0001F93CF93DF938C01D62FF42EC0E04C2FC6
:1025C0006D2FC8010E94570F8F3F61F04F2D682F6C
:1025D000C8010E949B1181E0DF91CF911F910F9163
:1025E000FF900895CF5FC43051F780E0F5CF1F937F
:1025F000CF93DF93EC01122F0E94570F8F3F51F0C2
:10260000412F682FCE010E949B1181E0DF91CF9175
:102610001F91089580E0FACFCF92DF92EF92FF9260
:102620000F931F93CF93DF938C01D62EE42EC0E03F
:10263000DFEFFF24FA9485E0C82EDC1689F04FEF17
:102640006C2FC8010E941B0C8F3F51F0F8018C9D2C
:10265000E00DF11D112493859F1510F4D82FF92E4C
:10266000CF5FC43051F780E0DF3F31F04E2D6D2F4A
:10267000C8010E949B1181E0DF91CF911F910F91C2
:10268000FF90EF90DF90CF9008951F93CF93DF934B
:10269000EC01142F4FEF0E941B0C8F3F51F0412F84
:1026A000682FCE010E949B1181E0DF91CF911F9195
:1026B000089580E0FACFFC01238184818450990B36
:1026C000FBE02F9F800D911D1124982F990F890FEA
:1026D00008952F923F924F925F926F927F928F92C6
:1026E0009F92AF92BF92CF92DF92EF92FF920F93A1
:1026F0001F93CF93DF9300D000D01F92CDB7DEB7EA
:10270000382E6A8380918E06882309F477C0209042
:1027100050069CE0492E512C42185108440C440CA0
:1027200022E5E22E26E0F22ED12CC12C042C000C46
:102730005508632C712C30E3832E912CC982C2146E
:1027400008F05CC0F7018181882309F44AC08091B8
:102750001C01873279F0A0F08A52823088F480918F
:10276000ED07813009F044C08281882309F443C019
:10277000FBE204C08281FFE28111FACFFB8302C039
:102780008FE28B839B81892F90E09D838C83560100
:1027900083E0AA0CBB1C8A95E1F7A40CB51CC70109
:1027A0000E945B138301080F111DEA81EE2389F05B
:1027B0008091AB05F981F8130CC08091FE059091D2
:1027C000FF05B4010E945A322EEA3DEC41E04897E1
:1027D00018F020E138E841E06C817D81C5010E945C
:1027E00026098FEFC81AD80A95E0E90EF11CA6CF8A
:1027F0009FE29B83C7CFEFE2EB83C4CF8091970624
:102800008823A1F09091D506992381F0032D10E043
:10281000E3E08E9F000D111D112424E335EC42E00E
:1028200066E070E090E080E00E94D20A8091DE06CF
:102830008823A1F090911C07992381F0032D10E0CB
:10284000F3E08F9F000D111D11242CE63DEC42E0BA
:102850006DEF7FEF8FE190E00E94D20A8091090630
:102860008823A1F090914706992381F0032D10E071
:1028700093E0899F000D111D112420E539EC42E001
:1028800066E070E084E690E00E94D20A0F900F901C
:102890000F900F900F90DF91CF911F910F91FF90AC
:1028A000EF90DF90CF90BF90AF909F908F907F90F0
:1028B0006F905F904F903F902F900895FF920F93ED
:1028C0001F93CF93DF93D82FF62EC42F23E06213EC
:1028D0004AC08091FE059091FF0560E370E00E9480
:1028E0005A32489708F43FC08091B8078823A1F076
:1028F00087EB97E00E945B13282F2D0F3327331FA0
:1029000089016C2F70E06D5E7F4F20E138E841E077
:1029100081E390E00E942609F1104BC08091FE05F2
:102920009091FF0560E370E00E945A32489708F4E6
:1029300040C08091BD07882309F461C08CEB97E00B
:102940000E945B13282F2D0F3327331F89016C2F13
:1029500070E06B5E7F4F2CE433E142E084E190E075
:102960000E9426094CC08091C2078823A1F081EC07
:1029700097E00E945B13282F2D0F3327331F890107
:102980006C2F70E0675F7F4F20E138E841E086E21E
:1029900090E00E94260931E0F312A6CF8091FE0557
:1029A0009091FF0560E370E00E945A32489708F466
:1029B0009BCF8091B3078823A1F082EB97E00E9420
:1029C0005B13282F2D0F3327331F89016C2F70E0E5
:1029D000635F7F4F20E43CE642E08CE390E00E949E
:1029E000260932E0F312A5CF8091FE059091FF05F4
:1029F00060E370E00E945A32489708F49ACFDF9162
:102A0000CF911F910F91FF9008950F931F93CF9334
:102A10009091C707992399F0C82F86EC97E00E9400
:102A20005B13282F2C0F3327331F890120E138E84F
:102A300041E06EE070E08AE190E00E942609CF91CB
:102A40001F910F9108951F93CF93DF93EC01162FE1
:102A500088818B8389818C838B3041F4CE010E94E5
:102A6000C906882319F018838FE0898389818B3008
:102A700029F48881181302C080E18983DF91CF9106
:102A80001F9108953F924F925F926F927F928F9223
:102A90009F92AF92BF92CF92DF92EF92FF920F93ED
:102AA0001F93CF93DF93762E642E8093EF0780934E
:102AB0009A0760939B0740939907C82FD0E0CE01F7
:102AC000019625E0289FF001299FF00D1124E7567B
:102AD000F84F628340832296C370DD2727E42C9F42
:102AE000C0012D9F900D11242CEF822E25E0922EF7
:102AF00010E000E0332433949C01295B394F7901C5
:102B000035E0432E32E073121EC0C017D107D9F44E
:102B1000F70110826401F5E0CF0ED11C512C940115
:102B20002D5E35405901F4018585581688F4C5019C
:102B3000549C800D911D1124662D84509A4F0E9443
:102B400023155394F0CFF401E55BFF4F3082E2CFC1
:102B5000C6010E94D30F0F5F1F4FF7E48F0E911C29
:102B60000430110579F62091EE0747E4822F90E0BA
:102B7000019683709927282F489FF001499FF00DF7
:102B80001124E95BF94F3081332381F38093EC0703
:102B90008093ED071092FF051092FE0580E480936C
:102BA0007B011092AB05DF91CF911F910F91FF90A8
:102BB000EF90DF90CF90BF90AF909F908F907F90DD
:102BC0006F905F904F903F900895823099F028F475
:102BD000882349F0813059F008958E3FA1F080F4A8
:102BE000833059F008958CEA90E00C94650586EBEB
:102BF00090E0FBCF84EB90E0F8CF82EB90E0F5CF54
:102C000080EB90E0F2CF8EEA90E0EFCF5C98FC0191
:102C10002591CF012EBD00000DB407FEFDCF615000
:102C2000B1F75C9A0895FC0101900020E9F7319713
:102C3000AF01481B590BBC018CEA95E00C942E06A1
:102C4000CF93DF930E946505EC0184E691E00E943A
:102C500013168C0F9D1FDF91CF9108958F929F9235
:102C6000AF92BF920F931F93CF93DF93CDB7DEB791
:102C7000A1970FB6F894DEBF0FBECDBF19A24230A8
:102C800008F44AE08E010F5D1F4F842E912CB12C69
:102C9000A12CA50194010E941D32E62FB901CA01A1
:102CA000EA30F4F4E05DD801EE938D01232B242B60
:102CB000252B79F790E080E0109719F0CD010E9464
:102CC0001316A1960FB6F894DEBF0FBECDBFDF91ED
:102CD000CF911F910F91BF90AF909F908F900895CB
:102CE000E95CE1CFCF93DF930E941316EC0184E6F9
:102CF00091E00E9413168C0F9D1FDF91CF910895D4
:102D0000CF93C82F20E040E0662359F060E08C2F7D
:102D10000E946E0B21E041E066E08C2FCF910C9475
:102D20001B0B63E0F4CF3F924F925F926F927F92C2
:102D30008F929F92AF92BF92CF92DF92EF92FF92CB
:102D40000F931F93CF93DF9300D000D0CDB7DEB7A2
:102D50009C838B83B62E6A01322E7C019C01225EFD
:102D60003F4F8C01F8018385928590A781A793A797
:102D700084A70B5F1F4F02171307A1F7EB81FC819C
:102D800080858187332059F0F60191812081EB8184
:102D9000FC8123A394A326A397A38F5F8087EB8155
:102DA000FC81608570E0712C4B01F1E08F1A910875
:102DB00095E0A92E872D90E0881599050CF059C053
:102DC00040E0FB01E81BF90BCF0101979A8389834F
:102DD000A42FB0E0E981FA81AE17BF070CF047C01D
:102DE0004A9D90011124C9010A96EB81FC818E0F46
:102DF0009F1FFC0151814F5FEB81FC812E0F3F1F14
:102E0000F9012089521720F7FC0150804A9DC0012A
:102E100011249C01265F3F4FEB81FC812E0F3F1F49
:102E2000F90161804080AA9E9001AB9E300D112473
:102E3000AB81BC81A20FB31F1A964C921A971B96B6
:102E40006C921B971D964C921D971E966C92AB81AF
:102E5000BC81A80FB91F1A965C921A971B965C93B7
:102E60001B971D965C921D971E965C93B1CF739431
:102E7000A1CFA12C85E0982EEB81FC815085A51671
:102E800060F4CF01A99C800D911D1124F601608191
:102E90000A960E942315A394EFCFAB81BC8190E0EA
:102EA00040E030E080E0591709F484C01B96EC91B3
:102EB0001B97EF3039F0E03161F48C5931E09F5FBE
:102EC0001596F1CF24E6311101C020E5820F41E0D3
:102ED000F6CF1A962C911A97EF3088F7F0E0ED585C
:102EE000F84E0C948232D217D217D217D217D217BB
:102EF000D217D217D617D617D617D6175F17BF1700
:102F000091178217B2124AC0332339F0442319F0C3
:102F10008C59342FD4CF8A5BD2CF4423D1F3845C35
:102F2000CECFB21222C0913041F088F0923099F0A9
:102F3000933009F0C4CF8C59C2CFEB81FC8123853B
:102F40002F3039F0203151F12E3009F0B8CF8C5E9E
:102F5000B6CF875EB4CFEB81FC8120892E30F1F0B3
:102F60002F3009F0ACCF885DAACF911102C0815FEC
:102F7000A6CF15966C9115972613F9CFE8CFB2120C
:102F80009ECF923059F028F4992391F0913079F343
:102F900096CF933029F0943071F291CF825E8FCF2B
:102FA000835D8DCFB2128BCF8B5F89CFB21287CF6B
:102FB000865F85CF311009C0F60191819B3011F0F9
:102FC000903119F4813548F18055F70191A520A57C
:102FD0002287938725879687F5E0EF0EF11CE01690
:102FE000F10699F7EB81FC819185908790E00F9035
:102FF0000F900F900F90DF91CF911F910F91FF9045
:10300000EF90DF90CF90BF90AF909F908F907F9088
:103010006F905F904F903F90089580E0D6CF0F93D0
:103020001F93CF93DF93809164008E7F8093640021
:1030300080917A00806480937A0080917A0086FD86
:10304000FCCFC0917800D09179000E94B106AB010D
:10305000BC01CE01B0E0A0E0DC01992788278C01FB
:103060009D01040F151F261F371FC901B8012091AC
:10307000640021602093640061157105810591054C
:1030800031F0DF91CF911F910F910C94E231DF91DC
:10309000CF911F910F9108952F923F924F925F927F
:1030A0006F927F928F929F92AF92BF92CF92DF9258
:1030B000EF92FF920F931F93CF93DF93CDB7DEB7BD
:1030C00065970FB6F894DEBF0FBECDBF0E94FE0617
:1030D000182F2091FE053091FF05C90101969093AC
:1030E000FF058093FE05F0901C01E6EFEF0DE53241
:1030F00008F0A6C1F0E0E158F74E0C948232A41813
:103100009F199F199F199F199F199F199F199F19FF
:10311000711A711A711A711A711A711A711A711A57
:10312000711A711A711A711A1A1B2B1B711BD11C7F
:10313000DF1BF41B231D841DC01D0E202D203D20F0
:103140006428D42843295C291092950780E095E0F3
:1031500029E0E0919507E99FF0011124E35EF84F23
:103160008083E0919507E99FF0011124E35EF84F19
:103170002183E0919507E99FF0011124E35EF84F68
:103180008383E0919507E99FF0011124E35EF84FF6
:103190002483E0919507E99FF0011124E35EF84F45
:1031A0001282309195073F5F309395072F5F2F3044
:1031B00081F68F5F843061F61092960700E025E07B
:1031C000B22EC09095070C1508F040C0D12CF12C00
:1031D000E12C402E512C712C612C4C145D046E049A
:1031E0007F048CF4C418D508E608F70841F00E9463
:1031F0009331A70196010E94EB316B017C014C0CCD
:103200005D1C6E1C7F1CB09E90011124235E384F04
:10321000F901DE0111968B2D01900D928A95E1F74F
:10322000B49CC0011124835E984FFC01D9012B2D61
:1032300001900D922A95E1F7FE013196DC018B2D6C
:1032400001900D928A95E1F70F5FBBCF1092FF05B9
:103250001092FE058BE080931C018FEF8093EF07A7
:103260001092EC071092ED0780939A0793E09093E9
:103270009B078093990710929D0710929C07E9E99C
:10328000F7E043ED57E06BEC77E080E033E02FEFC1
:1032900092E086833783258311861086218F128ED4
:1032A000138EDA011D921D92AD01DB011D92BD014D
:1032B0001F969C931F9753969C93539757969C9356
:1032C00057975B969C938F5F3596843011F72093C8
:1032D000C6071092C7071092C8071092EB07ACEF11
:1032E000B5E028E137E09FEF41E0FD0186E09787F8
:1032F000108A118A95A716A617A6815035968111B6
:10330000F6CF1D961C921D97FD01E55BFF4F408394
:10331000A95BBF4F2A173B0741F78091EE078F5FEC
:1033200083708093EE07282F30E02F5F3F4F23708C
:10333000332720939B05811102C00E941D0713FFB4
:1033400004C080E280931C017BC010911C0195EFAA
:10335000B92EB10E00E0133108F00EE142E0602F0B
:1033600081E00E940E07B81608F483C090E0019631
:10337000B816190611F00CF07CC020910C013091A8
:103380000D01E0911401F0911501E217F3070CF023
:103390004DC080910E0190910F01609116017091C6
:1033A0001701861797070CF041C04091100150910A
:1033B0001101240F351F30930D0120930C01409112
:1033C000120150911301840F951F90930F01809368
:1033D0000E014091180150911901A0911A01B0916C
:1033E0001B014A0F5B1F5093190140931801E2170C
:1033F000F3071CF486179707CCF081E00E94EE0BD0
:1034000088E496E00E94D30F1F5F10931C01109276
:10341000FF051092FE0542E0602F81E00E940E073A
:103420008B1520F0809150060E941D0780911C0191
:10343000833131F48091EE07811102C00E941D0793
:1034400065960FB6F894DEBF0FBECDBFDF91CF916A
:103450001F910F91FF90EF90DF90CF90BF90AF90B2
:103460009F908F907F906F905F904F903F902F90A4
:10347000089510E0EB2CF12C6701BFEFCB1ADB0AAB
:10348000113009F412E042E0602F812F0E940E07F4
:10349000B81618F190E001968E159F05F4F0809112
:1034A000FE059091FF050697C1F4A0901C01812FA5
:1034B0000E94EE0BA394A0921C011092FF051092A3
:1034C000FE0542E0602F81E00E940E078C151D046E
:1034D00021F4809150060E941D071F5F143081F671
:1034E000A5CF13FD2ECF05EF0F0D43E068E081E07F
:1034F0000E940E07081708F465C0C02ED12C90E07A
:1035000002968C159D050CF45DC020910C01309144
:103510000D01E0911401F0911501E217F3070CF091
:103520008FCF80910E0190910F01609116017091E3
:103530001701861797070CF083CF40911001509127
:103540001101240F351F30930D0120930C01409180
:10355000120150911301840F951F90930F018093D6
:103560000E014091180150911901A0911A01B091DA
:103570001B014A0F5B1F5093190140931801E2177A
:10358000F30724F4861797070CF45ACF81E00E94C2
:10359000EE0B88E496E00E94D30FF394F0921C01A6
:1035A0001092FF051092FE0543E068E081E00E9462
:1035B0000E0790E001968C159D050CF441CF80918B
:1035C00050063CCF10E0E02EF12C6701EFEFCE1A51
:1035D000DE0A113009F412E043E068E0812F0E9416
:1035E0000E07081718F190E002968E159F05F4F06B
:1035F0008091FE059091FF050697C1F4812F0E94EE
:10360000EE0B80911C018F5F80931C011092FF05CF
:103610001092FE0543E068E081E00E940E078C15E1
:103620001D0421F4809150060E941D071F5F143075
:1036300081F606CF1092FF051092FE0581E280937D
:103640001C0180911D0180931E0181E080931D016A
:103650000E94A307F5CE80910906853020F480E012
:103660000E94EE0BF8CF80915006853020F481E067
:103670000E94EE0BF8CF80919706853020F482E00F
:103680000E94EE0BF8CF8091DE06853020F483E0B7
:103690000E94EE0BF8CF8091C707811102C00E94F3
:1036A000A3071092FF051092FE0581E280931C0192
:1036B00080911D0180931E0181E080931D0181E0B6
:1036C00096E00E94D30F88E496E00E94D30F8FE823
:1036D00096E00E94D30F86ED96E00E94D30F80E023
:1036E000ADCE10919B053091EE071130E9F148976E
:1036F00009F0A6CEE12EF12C21E0131320E0F7E42F
:103700001F9FC001112446EC57E06091C6078F5FF0
:10371000994F0E9493168C3D910560F087E691E0E9
:103720000E9472164091C60762E0812F0E944215E6
:1037300088E208CE8639910540F080E791E00E944A
:1037400072164091C60761E0F0CF2FEFE21AF20A3D
:1037500085E08E9DF0018F9DF00D1124E756F84F06
:1037600012820E9462076CCE809196058823E9F050
:1037700021E0313009F020E046EC57E06091C607C7
:1037800088E496E00E9493169C0190911D012639D1
:10379000310588F02C3D310550F02031374258F486
:1037A00090931E0183E080931D0182E2CBCD909324
:1037B0001E0182E0F8CF90931E0181E0F4CF8034A7
:1037C000910508F43DCE83E08093A0078093A50780
:1037D0008093AA078093AF071092C7071092FF0546
:1037E0001092FE0584E2AECD20919B058E010F5F05
:1037F0001F4F38E0D8011D923A95E9F7D090EE07B7
:10380000213009F460C0489709F01ACE78015801B8
:1038100000E087E4C82E10919B058091C6078017B1
:1038200091F01B8609871A861C9DC001112420E097
:10383000AE01475F5F4F602F8F5F994F0E949316D5
:10384000F501918380830F5FF2E0AF0EB11C04306D
:1038500011F720E00FEF90E080E0D7014D915D91EE
:103860007D018417950710F4022FCA012F5F2430C1
:10387000A1F720919A05222381F01D110EC08C3DE5
:10388000910588F087E691E00E947216402F62E071
:10389000812F0E94421589E255CD8C3D910590F70C
:1038A0008639910530F080E791E00E947216402F32
:1038B0004ACF812F90E0019625E0289FF001299FB3
:1038C000F00D11244BCF80911D0180931E01209398
:1038D0001D0180911F019091C607891304C08111B9
:1038E00053C00E94FA0380919605882309F448C0CA
:1038F0005801F12C8091C6078F1579F01B86F98647
:103900001A8620E0AE01475F5F4F6F2D88E496E096
:103910000E949316F50191838083F394F2E0AF0E39
:10392000B11C24E0F212E6CF20E03FEF90E080E00F
:10393000D8014D915D918D018417950710F4322FB8
:10394000CA012F5F2430A1F740919A0520911D01F3
:10395000442331F0B1E0DB1203C086399105B8F0A1
:1039600086399105D0F08C3D910588F0863B9642D2
:10397000A0F430931F0120931E0183E080931D016A
:1039800080911C018F5FDECC0E94E403ACCF3093AA
:103990001F0120931E0182E0F1CF20931E0181E0E0
:1039A000EDCF17FF09C080911D019EEF980F923057
:1039B00008F046CD81500AC014FF0BC080911D0154
:1039C0009FEF980F923008F03BCD8F5F80931D01E1
:1039D00037CD13FF35CD80911D019EEF980F9230AA
:1039E00048F0813009F02CCD1092A50781E2809338
:1039F0001C01B7CE0091EE07F7E40F9F8001112460
:103A000066EC77E0C8018F5F994F0E94C20BF80106
:103A1000EC5DF94F81E082834091C60780911D01E2
:103A2000823071F0833021F0813021F4E12C02C02A
:103A300012E0E12E6E2D81E00E94421587E282CCD9
:103A4000EE24E394F7CF3091EE0720919A052223DC
:103A500099F021E0313009F420E08034910508F438
:103A6000EFCC17FF15C080911D01811107C0809117
:103A7000C6070E94FA03E4CC21E0EFCF222321F015
:103A8000823008F097CFDCCC833008F4D9CC92CFC9
:103A900014FF0DC080911D01811105C08091C607E2
:103AA0000E94E403CDCC833008F0CACC8ECF15FF42
:103AB00004C080911D01811111C016FD14C013FFB7
:103AC000BFCC80911D019EEF980F9230A8F08130FD
:103AD00009F0B6CC1092A50784E289CF80931E012D
:103AE00010921D01ADCC80911D018111E8CF809114
:103AF0001E0110921E016ACF40911F0161E08330C8
:103B000009F462E081E0C5CE83709927892B09F022
:103B100097CC80910906882309F1ECEFF5E090E05D
:103B200080E045E03FEF25852150DC01249FA00D7A
:103B3000B11D1124A55FB94F3C9311961C921197AA
:103B400012961C92258521502587E95BFF4F895BE2
:103B50009F4F8C3121E0920731F772CC10920D010A
:103B600010920C01109215011092140110920F0185
:103B700010920E0110921701109216018AE0E2CB0A
:103B80006090EE0731E063128CC08091EF078330C4
:103B900021F480919B07823089F011111DC0809122
:103BA0007B01882309F44CCC815080937B018111E7
:103BB00047CC88E496E00E94400C42CC1092EB0780
:103BC0001092C70780919605811102C00E94500C87
:103BD00089E280931C01E3CF80917B01882331F03F
:103BE00010927B0188E496E00E94400C103241F470
:103BF0008091AB05882399F281508093AB05CFCF9C
:103C0000103459F48091AB05209150062150330BAC
:103C10008217130624F68F5FF0CF103811F00C9442
:103C2000732988E496E00E94400CE091AB0545E0E2
:103C3000E49FF0011124EE5AF94F81E08283AFCF67
:103C4000E091AB0585E0E89FF0011124EE5AF94FB1
:103C50008281882309F4A3CF1282A1CF813009F099
:103C60009ECF1092EB071092C70710E005E0FF24EB
:103C7000FA9480915006181708F0A4CF109FF00115
:103C80001124EE5AF94F8281882349F0F082118283
:103C9000128288E496E00E94D30F009350061F5FC3
:103CA000E8CF80919B078230B1F48091EF0790E0DC
:103CB0000296837099276816190669F41092EB072B
:103CC0001092C70780919605811102C00E94500C86
:103CD00089E280931C018091FE059091FF058F730E
:103CE0009927892B09F0ACCB1092EB071092C707EC
:103CF000062D10E097E4699E30011124D301AF5FD7
:103D0000B94F7D01F301E450FA4F1F018580968081
:103D1000C4010E948C0CB82ED70117968C9190E0AC
:103D20009C012D5F3F4F237033272F5F3F4F45E0AE
:103D3000429FF001439FF00D1124E80DF91DD08042
:103D4000BFEFDB1210C00196837099270196489F40
:103D50009001499F300D1124820E931EF401D080F2
:103D6000DB1201C0D12CCC24C394CB0C2B2D30E022
:103D70002D5F3F4F87E4809FA001819F500D11244C
:103D8000475F594FC216130611F00CF0A2C0FC2D6C
:103D9000F370AF2EDA018C9190E0F10170E060E0F9
:103DA000912C6817790744F4A785AA1201C093944F
:103DB0006F5F7F4F3596F5CFD10170E060E0812CC9
:103DC000681779078CF41F96EC911F97AE1208C004
:103DD0005096EC915097F0E0E45CFE4FE0818E0E3F
:103DE0006F5F7F4F1596ECCFB1E09B1270C0ECE097
:103DF000E81508F46CC044244A94BA1411F0BEE0EB
:103E00004B2E512C87E4809F6001819FD00C1124A0
:103E1000960124503A4F690149013DE0830E911CFF
:103E200045E0C40ED11CBA1010C08BE058120DC072
:103E300053944514C0F7C7010E94D30F8091960593
:103E4000811129CD0E94500C26CD8101712C612C4D
:103E5000D4018C9186151704A1F19CF1F801978586
:103E6000A91225C09089951122C081508C93D6014A
:103E7000ED91FC91D80150968C91509786A71F9692
:103E80008C911F9785A750968C91509781AB1F9668
:103E90008C911F9780ABEFEF1F96EC931F97509676
:103EA0001C92509751961C92C7010E94D30F0B5F32
:103EB0001F4FD4018C918A3021F0BFEF6B1A7B0A1F
:103EC000C7CFF40180818A3009F0B2CFB4CFC39458
:103ED00059CFCC24C3944D2C512CF3E04F0E511CE0
:103EE00027E4209FC001219F900D11249C01275F92
:103EF000394F398B288BC3010F969F878E8709E036
:103F000010E0AC2DB0E0BB8BAA8B802E9D2CA12C99
:103F1000EA89FB89E00FF11FFD8BEC8B94141504EB
:103F200011F00CF03FC0692D6370B616C9F1FEE0C8
:103F3000F815B0F121E0A21609F480CFA889B9895B
:103F40004C9150E0F1018A2D30E020E02417350734
:103F500044F49785691301C08F5F2F5F3F4F3596FB
:103F6000F5CF8C111DC04FEFC7010E941B0C8F3F76
:103F7000B9F06E857F85B5E08B9F600D711D1124B2
:103F800064507A4FFB01818188110AC02C893D89D8
:103F90002F30310529F0C7010E945F11AA24A39494
:103FA0009394BCCF31E0A31609F448CF0F5F1F4FA5
:103FB0000131110509F0A9CFC39446E0C4129FCF87
:103FC000C7010E94D30F0FEFDD24DA9410E0A5E0C3
:103FD000CA2E4FEF612FC7010E941B0C8F3F61F06B
:103FE000F3018C9DE00DF11D1124E55FF94F9181E6
:103FF0009D1510F4D92E082F1F5F143051F70F3F75
:1040000009F419CFB30185E0089F600D711D1124DB
:10401000655F794FC7010E945F110DCF13FF10CA72
:104020008091C707882309F436CC0091EE0797E406
:10403000099F80011124D801AF5FB94F7D0166EC63
:1040400077E0CD010E94C20BF801EC5DF94F81E0F1
:104050008283C7010E94D30FF1CC8F739927892BDC
:1040600009F0EEC98091EB078F5F8093EB07109208
:10407000FF051092FE058AE265C9B091ED07B88B85
:10408000489719F0B13009F0DBC911E0E889E13057
:1040900009F010E08091EF0790E0019605E0089F9D
:1040A000F001099FF00D1124E756F84F828190919D
:1040B000EC07F8898F2E912C27E4F29F70011124D0
:1040C000D701AF5FB94F7D019F131DC497E4989D41
:1040D0001001999D300C1124813009F05CC281E2FD
:1040E00092E00E946505F101E450FA4FFF87EE87E8
:1040F000648570E090E080E04AE00E942E1688E03F
:1041000092E00E942016D70117960C91A02EB12C98
:104110001501B2E02B0E311CE3E02E2233242A8A53
:104120002501F3E04F0E511C23E0422255243FEFBE
:10413000A31AB30A43E0A422BB24AE85BF8515961B
:104140006D907C90C3010E948C0CD82EF301EA5A2A
:10415000FF4F8081081709F451C0281609F44EC09A
:1041600080EF91E00E942016212F4D2D6D2DC7016B
:104170000E94F71281115BC1712C612CEE85FF85C5
:104180003596FF87EE87440C551C440C551C950151
:10419000220F331F220F331F3B8B2A8B062DEE85F8
:1041A000FF8580819181FC01E40DF51DE60DF71D71
:1041B000EE5BFF4F208121110CC0EA89FB89E80FDB
:1041C000F91FE60DF71DEE5BFF4F8081882309F490
:1041D00037C182E491E00E946505802F0E94E515B9
:1041E000212F402F6D2DC7010E94F712882309F45B
:1041F00023C187E391E00E9420163AC085E0849DA8
:10420000F001859DF00D1124E60DF71DC18C8A9DEE
:1042100090018B9D300D1124620E731ED3015996AF
:10422000BC91BE878CED91E00E94201627E4289D6A
:10423000C001299D900D1124FC01E450FA4F3F016B
:104240000580F681E02DEE5AFF4F80818130D9F54F
:104250008CEC91E00E9420164FE06D2DC7010E946A
:10426000050C412F8F3F59F0682FC7010E949B1109
:10427000F889F13009F405C70E949F0DE1C86D2D42
:10428000C7010E94D6128111F3CF212F4D2D6D2D24
:10429000C7010E9456128111EBCF012F2E854C2DA4
:1042A0006D2DC7010E9415128111E2CF412F6D2D96
:1042B000C7010E940C138111DBCF412F6D2DC70167
:1042C0000E944513D5CF88EB91E00E942016D301C0
:1042D00015966D907C90642DC3010E94A90E082F45
:1042E0006A2DC3010E94A90EA82E622DC3010E944F
:1042F000A90EB82E011103C0AA2009F440C086E916
:1043000091E00E942016212F4D2D6D2DC7010E9496
:10431000F7128111ADCFBB2069F04AE06D2DC701C6
:104320000E941B0C8F3F31F0412F682FC7010E9464
:104330009B119ECF412F6D2DC7010E94D612811176
:1043400097CF212F4D2D6D2DC7010E94561281113F
:104350008FCF012F2E854C2D6D2DC7010E94151278
:10436000811186CF412F6D2DC7010E940C13811141
:104370007FCF412F6D2DC7010E94451379CF83E771
:1043800091E00E942016412F6D2DC7010E94D61288
:1043900081116ECF212F4D2D6D2DC7010E94561218
:1043A000811166CF012F2E854C2D6D2DC7010E94E6
:1043B000151281115DCFBB2069F04AE06D2DC70158
:1043C0000E941B0C8F3F31F0412F682FC7010E94C4
:1043D0009B114ECF00E027E4289DC001299D900D40
:1043E0001124FC01EF5FF94F5F014A89602FD5016D
:1043F0008D919C910E94690E8150823080F00F5FF8
:10440000043099F7412F6D2DC7010E940C138111C3
:104410002FCF412F6D2DC7010E94451329CF412F6A
:10442000602FC7010E944513882349F321CF80E6FE
:1044300091E00E9420161CCF8FE291E00E9420168E
:10444000FFEF6F1A7F0A24E06216710409F0A6CE0E
:10445000712C612C27E4289DC001299D900D112409
:10446000DC01AF5FB94FBF87AE87AA0CBB1CAA0C9B
:10447000BB1CEE85FF8580819181FC01E40DF51D5B
:10448000E60DF71DEE5BFF4F2081211122C0FC01DC
:10449000EA0DFB1DE60DF71DEE5BFF4F80818111DC
:1044A00018C082E291E00E946505862D0E94E51504
:1044B000212F462D6D2DC7010E94F712882329F068
:1044C00087E191E00E942016D3CE8FE091E00E9418
:1044D0002016FFEF6F1A7F0A24E06216710449F676
:1044E000C101019625E0289F5001299FB00C11249D
:1044F00027E4289DC001299D900D1124DC01A450C2
:10450000BA4F4D011596ED91FC91EA0DFB1D80818E
:104510008F3FC9F480EE90E00E942016212F4D2D90
:104520006D2DC7010E9456128111A2CE412F6D2D13
:10453000C7010E940C1381119BCE412F6D2DC70125
:104540000E94451395CE8BEF90E00E946505D40143
:104550001596ED91FC91EA0DFB1D80810E94E515F9
:1045600084E691E00E941316F40185819681FC0196
:10457000EA0DFB1D0081422D602F0E94690E8150C3
:10458000823040F6412F602FC7010E9445138823D7
:1045900009F4C0CF6DCE87E593E00E9465059101D7
:1045A00024503A4F1901D9011C966C9170E090E0AB
:1045B00080E04AE00E942E168EE393E00E942016CF
:1045C000F7010781C02ED12CC6010296F82FF37097
:1045D0004F2E360123E0620E711C33E063227724F4
:1045E0004FEFC41AD40A83E0C822DD24D101159606
:1045F000AD90BC90C5010E948C0C582EF501EA5A72
:10460000FF4F8081081709F44DC0481609F44AC0CD
:1046100086E293E00E942016212F452D652DC701CB
:104620000E94F7128111FFC0B12CA12CF101359627
:10463000FF87EE87660C771C660C771C1601220C30
:10464000331C220C331C0A2DEE85FF85808191815D
:10465000FC01E60DF71DEA0DFB1DEE5BFF4F20810F
:1046600021110BC0FC01E20DF31DEA0DFB1DEE5BF9
:10467000FF4F8081882309F4DFC088E792E00E9421
:104680006505802F0E94E515212F402F652DC7015C
:104690000E94F712882309F4CBC08DE692E00E94B5
:1046A0002016E6CD85E0869DF001879DF00D112452
:1046B000EA0DFB1D418C8C9D90018D9D300D1124C8
:1046C000A20EB31ED50159963C9082E193E00E9460
:1046D000201627E4289DC001299D900D1124FC017E
:1046E000E450FA4F5F010580F681E02DEE5AFF4F4E
:1046F0008081813049F582E093E00E942016412FAD
:10470000652DC7010E94D6128111B2CD212F452DF2
:10471000652DC7010E9456128111AACD012F232DAC
:10472000442D652DC7010E9415128111A1CD412F85
:10473000652DC7010E940C1381119ACD412F652D63
:10474000C7010E94451394CD8EEE92E00E94201680
:10475000D5011596AD90BC90662DC5010E94A90E9D
:10476000082F6C2DC5010E94A90E011102C08823DB
:1047700089F18CEC92E00E942016212F452D652DA9
:10478000C7010E94F712811173CD412F652DC7011A
:104790000E94D61281116CCD212F452D652DC701A8
:1047A0000E945612811164CD012F232D442D652DB9
:1047B000C7010E94151281115BCD412F652DC701E4
:1047C0000E940C13811154CD412F652DC7010E9409
:1047D00045134ECD89EA92E00E942016412F652DA7
:1047E000C7010E94D612811143CD212F452D652D81
:1047F000C7010E94561281113BCD012F232D442D5C
:10480000652DC7010E941512811132CD412F652DF2
:10481000C7010E940C1381112BCD412F652DC701BB
:104820000E94451325CD86E992E00E94201620CDF6
:1048300085E692E00E942016FFEFAF1ABF0A24E03F
:10484000A216B10409F0FFCEB12CA12C27E4289DBB
:10485000C001299D900D1124DC01AF5FB94F4D01BE
:10486000CC0CDD1CCC0CDD1CF40180819181FC01A1
:10487000E60DF71DEA0DFB1DEE5BFF4F20812111B8
:1048800022C0FC01EC0DFD1DEA0DFB1DEE5BFF4F90
:104890008081811118C088E592E00E9465058A2D0B
:1048A0000E94E515212F4A2D652DC7010E94F712A0
:1048B000882329F08DE492E00E942016D9CC85E46B
:1048C00092E00E942016FFEFAF1ABF0A24E0A21662
:1048D000B10451F68AE292E00E942016212F452D64
:1048E000652DC7010E9456128111C2CC412F652D42
:1048F000C7010E940C138111BBCC412F652DC7014C
:104900000E944513B5CC97E4989D5001999DB00C39
:104910001124813009F015C381E596E00E946505F8
:10492000F501E450FA4F5F01648570E090E080E0AB
:104930004AE00E942E1688E396E00E942016D701D6
:1049400017964C90512C1201B2E02B0E311CE3E073
:104950002E223324D50115968D909C90C4010E947F
:104960008C0CD82E682FC4010E946E0CFC01718043
:10497000F401ED5AFF4F8081F401809FE00DF11D9D
:1049800011247996C080029DC001039D900D1124D1
:10499000880E991ED4015A968C91882309F459C225
:1049A000BFEF4B1A5B0A23E042225524618081E26B
:1049B00096E00E942016D50115968D909C90C4011A
:1049C0000E94BA0C821172C185E096E00E94201606
:1049D000D5011596ED91FC91ED5AFF4F808190E045
:1049E000039683709927F7012781237028171906EA
:1049F000A9F582EF95E00E942016D50115968D91BC
:104A00009C910E944F0E882389F08BED95E00E94C7
:104A10002016412F6D2DC7010E944513811128CC0E
:104A2000412F6D2DC7010E940C1322CC80EC95E024
:104A30000E942016412F6C2DC7010E944513811141
:104A400017CC412F6D2DC7010E940C13811110CC82
:104A5000412F6D2DC7010E9445130ACC89EA95E0CC
:104A60000E942016F50185809680C4010E944F0E99
:104A7000882309F462C082E995E00E942016442D43
:104A80006D2DD50115968D919C910E94690E8150D6
:104A9000823008F041C082E795E00E942016472D41
:104AA0006D2DC7010E94F40E082F88E595E00E9445
:104AB0006505602F70E090E080E04AE00E942E16CD
:104AC00084E691E00E9413160430C8F0472D6D2D46
:104AD000C7010E94050C412F8F3F29F0682FC701A5
:104AE0000E949B11C5CB6D2DC7010E9445138111FA
:104AF000BFCB412F6D2DC7010E940C13B9CB412FA5
:104B00006D2DC7010E9445138111B2CB412F6D2D30
:104B1000C7010E940C13ACCB87E395E00E942016DE
:104B2000412F6D2DC7010E9445138111A1CB412F4B
:104B30006D2DC7010E940C139BCBC4010E94A20CD7
:104B4000882301F18CE195E00E942016412F6C2D05
:104B5000C7010E94451381118BCB212F472D6D2D4D
:104B6000C7010E94F711811183CB412F6D2DC70121
:104B70000E940C1381117CCB412F6D2DC7010E9427
:104B8000451376CB8DEF94E00E942016F501A580A9
:104B9000B68001E0060D912CDC100FC00F3FD1F064
:104BA0000B3049F0202F4D2D6D2DC5010E94B80E00
:104BB000811101C093940F5FF1CF0F3058F4202F73
:104BC0004C2D6D2DC5010E94B80E811101C093942A
:104BD0000F5FF3CF911018C08CED94E00E94201667
:104BE000412F6C2DC7010E944513811141CB412FEC
:104BF0006D2DC7010E940C1381113ACB412F6D2DF1
:104C0000C7010E94451334CB472D6C2DC7010E946C
:104C1000F40E082F8AEB94E00E9465058C2D0E940B
:104C2000E51580E693E00E946505602F70E090E056
:104C300080E04AE00E942E1684E691E00E9413165E
:104C4000043000F140E06C2DC7010E94050C412F9B
:104C50008F3F29F0682FC7010E949B1109CB6C2D53
:104C6000C7010E944513811103CB412F6D2DC70150
:104C70000E9445138111FCCA412F6D2DC7010E946E
:104C80000C13F6CA412F6C2DC7010E9445138111E8
:104C9000EFCA412F6D2DC7010E9445138111E8CA4B
:104CA000412F6D2DC7010E940C13E2CAC4010E945E
:104CB0004F0E882309F476C082EA94E00E94201601
:104CC000D5011596AD90BC90442D6D2DC5010E9467
:104CD000690EF501ED5AFF4F208130E02D5F3F4F07
:104CE00023703327F7019781937092171306C9F445
:104CF0008EE894E00E942016212F472D6D2DC701CC
:104D00000E94F7118111B4CA412F6D2DC7010E9475
:104D100045138111ADCA412F6D2DC7010E940C139F
:104D2000A7CA8823C9F08AE594E00E942016212FA3
:104D3000472D6D2DC7010E94F711811199CA412F8E
:104D40006D2DC7010E944513811192CA412F6D2D0F
:104D5000C7010E940C138CCA82E494E00E942016C2
:104D600040E06D2DC7010E94050C8F3F31F0412FAF
:104D7000682FC7010E949B117BCA212F472D6D2DE3
:104D8000C7010E94F711811173CA412F6D2DC70110
:104D90000E94451381116CCA412F6D2DC7010E94DD
:104DA0000C1366CA86E294E00E942016D50115967F
:104DB0008D919C910E94A20C882301F18BE094E0DC
:104DC0000E942016412F6C2DC7010E9445138111AE
:104DD0004FCA212F472D6D2DC7010E94F711811158
:104DE00047CA412F6D2DC7010E940C13811140CA83
:104DF000412F6D2DC7010E9445133ACA8CEE93E0F6
:104E00000E942016F501A580B680C5010E94BA0C4B
:104E1000F501809FE00DF11D1124212F428D6C2D95
:104E2000C7010E94F711811123CA412F6C2DC701C0
:104E30000E94451381111CCA412F6D2DC7010E948C
:104E40004513811115CA412F6D2DC7010E940C1306
:104E50000FCA80ED93E00E942016D50115968D9122
:104E60009C910E944F0E8823C9F088EB93E00E942A
:104E70002016212F472D6D2DC7010E94F71181119A
:104E8000F7C9412F6D2DC7010E9445138111F0C94B
:104E9000412F6D2DC7010E940C13EAC98CE993E0E4
:104EA0000E942016F501858196810E94A20C88231C
:104EB00001F181E893E00E942016412F6C2DC7017B
:104EC0000E9445138111D4C9212F472D6D2DC70193
:104ED0000E94F7118111CCC9412F6D2DC7010E948D
:104EE0000C138111C5C9412F6D2DC7010E944513B7
:104EF000BFC982E693E00E9420166C2DD50115965D
:104F00008D919C910E94090E212FFC0141816C2DF5
:104F1000C7010E94F7118111ABC9412F6C2DC70148
:104F20000E9445138111A4C9412F6D2DC7010E9414
:104F3000451381119DC9412F6D2DC7010E940C138E
:104F400097C981EE96E00E946505950124503A4F7D
:104F50005901D9011C966C9170E090E080E04AE024
:104F60000E942E1688EC96E00E942016F501C5805E
:104F7000D680C6010E948C0C982E682FC6010E9414
:104F80006E0CDC0111968C90C6010E944F0E882396
:104F9000C9F080EB96E00E942016212F482D692D44
:104FA000C7010E94F711811163C9412F692DC70103
:104FB0000E94451381115CC9412F692DC7010E94D0
:104FC0000C1356C9F601ED5AFF4F8081F601809F00
:104FD000E00DF11D1124018D84E996E00E94201658
:104FE000F501858196810E94A20C8823C9F089E78A
:104FF00096E00E942016212F482D692DC7010E949E
:10500000F711811135C9412F602FC7010E94451347
:1050100081112EC9412F692DC7010E940C1328C987
:105020008AE596E00E942016602FD50115968D9195
:105030009C910E94090E6C01212F402F692DC70100
:105040000E94F712811114C9212FF6014181602FAE
:10505000C7010E94F71181110BC9412F602FC701B1
:105060000E944513811104C9412F692DC7010E9477
:1050700045138111FDC8412F692DC7010E940C13F2
:10508000F7C8809196058823E1F088E496E00E94B5
:10509000400C3091500690914A0620914B06E2E573
:1050A000F6E080E0831769F04081491303C0418135
:1050B000421719F08F5F3596F5CF91E09283809378
:1050C000AB058BE20C94A2191032C1F4E091AB0550
:1050D000EE2311F40C94201A1FEF1E0F1093AB0552
:1050E00088E496E00E94400C25E0129FF001112414
:1050F000EE5AF94F81E082830C94201A103401F5A6
:10510000E091AB05A091ED0737E4A39FD0011124F6
:10511000AF5FB94F18968C918150990BE81719061B
:1051200014F00C94201A11E01E0F1093AB0588E4C4
:1051300096E00E94400C45E0149FF0011124D8CF66
:10514000183011F00C94201AF090AB050091ED0787
:1051500087E4089F8001112485E0D801F89EA00D06
:10516000B11D1124A55FB94F12969C9112979923F6
:1051700011F40C94201AE091EC07E89FF00111243F
:10518000EE54F84F60810F5F194F8C91681731F022
:10519000C8010E94310C81110C94201A40E06F2D3F
:1051A000C8010E949B1168C88091EB07853009F007
:1051B0004BC08091EF078823B9F18230A9F10091AB
:1051C000CC078091CE07080F11E0802F0E941004B9
:1051D000982F811132C0033070F1053081F1E12F39
:1051E000F0E07B96EE0FFF1FE756F84F20813181EC
:1051F000280F311D31832083E1E01E27E12FF0E0ED
:105200007B96EE0FFF1FE756F84F20813181290F63
:10521000311D243F91E03907A4F08AEE91E091839B
:1052200080838DE20C94A2190091CB078091CD0769
:10523000080F10E0CACF92E0D2CF90E0D0CF94E038
:10524000CECF31832083EDCF13FD02C00C94201A02
:105250008FEF8093B2071092B3071092B407809338
:10526000B7071092B8071092B9078093BC07109245
:10527000BD071092BE078093C1071092C20710921B
:10528000C3070C944B1C8091CF079091D0070A97CD
:1052900064F48091D1079091D2070A9734F413FFF8
:1052A00002C00C94BE1D0C94201A8EE280931C0147
:1052B000109299050C94201A285731092F33310583
:1052C00028F4809199058F5F8093990513FD02C0A2
:1052D0000C94201A809199058D3310F40C94201AA7
:1052E00085E00C94A219103111F40C94201E183092
:1052F00011F00C94CF1D409150062CEF35E090E05A
:1053000080E0491711F40C942E1EF901E85AFF4F62
:10531000508151118F5F9F5F2B5F3F4FF2CF1F92E4
:105320000F920FB60F9211248F939F938091E100FB
:105330009091E100937F9093E10083FF0FC0109262
:10534000E90091E09093EB001092EC0092E39093CF
:10535000ED001092AA0598E09093F00082FF22C021
:1053600093E09093E9009091F200992319F09AE369
:105370009093E80090918D01992341F090918D01D7
:10538000915090938D01911101C05D9A9091A90562
:10539000992341F09091A90591509093A9059111FD
:1053A00001C0289A84FF18C08091E2008E7E81603F
:1053B0008093E2008091E1008F7E8093E1008091F4
:1053C0008E018E7E806180938E019F918F910F90D0
:1053D0000FBE0F901F90189580FFF7CF8091E200CD
:1053E0008E7E80618093E2008091E1008E7E8093CA
:1053F000E10080918E018E7E8160E5CF1F920F9239
:105400000FB60F921124CF92DF92EF92FF920F937B
:105410001F932F933F934F935F936F937F938F933C
:105420009F93AF93BF93EF93FF93CF93DF93CDB74A
:10543000DEB76C97DEBFCDBF1092E9008091E80027
:1054400083FF25C068E0CE0145960E94420582EFA9
:105450008093E8008D8987FF39C09091E80090FF24
:10546000FCCF982F907609F034C19E894F89588DD2
:105470002F89F88C911131C0803861F580918F01AE
:105480008093F1001092F1008EEF8093E8006C960B
:105490000FB6F894DEBF0FBECDBFDF91CF91FF9165
:1054A000EF91BF91AF919F918F917F916F915F919C
:1054B0004F913F912F911F910F91FF90EF90DF90AF
:1054C000CF900F900FBE0F901F9018959EEF909366
:1054D000E800C7CF1092F100D5CF913059F4811177
:1054E000D3CF4130510581F680918F018D7F80931C
:1054F0008F01CACF933049F48111C6CF4130510595
:1055000019F680918F018260F2CF953041F480913D
:10551000E80080FFFCCF20682093E300B5CF9630F1
:1055200009F0A9C00B8D1C8D22E01092E9001092A9
:105530008B0110928A01F2122EC0109289011092F2
:1055400088010E9411051F8299E09983FA8291E0F7
:105550009E8390EA98879AEF998720918A013091EB
:105560008B01275F3F4F3C832B838D831092E90093
:1055700010928B0110928A01109389010093880187
:1055800049E050E0BE016F5F7F4F80E00E94EB0476
:105590000E94110579CF10938901009388010E9420
:1055A0007604DC0112960D911C910115110509F488
:1055B00051C1D801ED91FC910480F581E02DBE012F
:1055C0006B5E7F4FC8010995009709F03EC1F80155
:1055D00000851185EACFF3E0FF120EC08F89882382
:1055E00009F440C0823061F440E867E08EE497E05F
:1055F0000E94B804811148CF81E28093EB0047CF2D
:10560000813029F440E86BE082E497E0F1CF833009
:1056100099F70E947604DC011296ED90FC908E01C1
:105620000F5F1F4F6801E114F10479F0D701ED918C
:10563000FC910680F781E02DB801C7010995080F9C
:10564000111DF701E084F184EECFD8011C92F60120
:1056500001900020E9F73197BF016C197D0940E006
:10566000C601C6CF6CE277E0FB01449150E080E8D0
:105670000E94EB0409CF973009F4BECF983021F493
:1056800081E08093F10000CF993009F0FDCE837066
:1056900009F0B2CFECE4F1E081E031E096E3219152
:1056A000222371F08093E9003093EB00DF01119722
:1056B0002C912093EC009093ED008F5F873079F769
:1056C0008EE78093EA001092EA008F898093AA0502
:1056D000DBCE8B8D9C8D1092E90010928B01109285
:1056E0008A019093890180938801898D811192C0EC
:1056F0008E899D89913A49F4813209F07DCF47E046
:1057000050E064E071E080E0B3CF913209F074CFF3
:10571000833269F48F89988DB0E0A0E08093000116
:1057200090930101A0930201B0930301ADCE8032AA
:1057300069F48091E80082FFFCCF67E084E091E0AB
:105740000E9442058BEF8093E8009ECE823209F0E2
:105750009BCE8F8980930B01EEEFFFE785919491AB
:105760008B3F9C4D51F1E0E0F8E080910401909175
:105770000501A0910601B0910701803B9440A1056D
:10578000B105F1F480910B0180FD1AC0EE3F8AE073
:10579000F80789F587E797E7918380838091600018
:1057A00080938C0188E19BE00FB6F894A8958093D4
:1057B00060000FBE9093600067CEEEEFFAE0D5CFA9
:1057C000808191818737974709F05ECEA8958091B7
:1057D000600088618093600080918C0180936000FC
:1057E000EE3F2AE0F20789F08091FE0A9091FF0ACD
:1057F0009183808349CE808191818737980751F2C8
:105800009093FF0A8093FE0AC5CF1092FF0A109270
:10581000FE0A3ACE0E947604DC0112960D911C918C
:105820000115110509F4E8CED801ED91FC91019024
:10583000F081E02DBE016B5E7F4FC801099581119B
:1058400023CEF80100851185EBCF181619060CF44C
:105850001BCED2CEF1E0FF12BECE60E377E004CFE4
:105860000F920FB68F939F93EF93FF9380917F01D9
:105870008D5F8D3708F08D5780937F01E0E8F1E070
:1058800080818E4F808391819F4F918382818F4F42
:10589000828383818F4F8383E4E8F1E080818F5F8F
:1058A000808381818F4F818382818F4F8283838127
:1058B0008F4F83838FB18F6066991C9B88278F36AB
:1058C00081F480917E01981B963068F0E0E0F8E06A
:1058D00087E78083818388E180936000F093600094
:1058E000FFCF90937E01FF91EF919F918F910FBE1B
:1058F0000F9018951F920F920FB60F9211248F934D
:105900009F9382E496E0909389008093880081E0E1
:10591000809394059F918F910F900FBE0F901F90D1
:1059200018951092AF051092AE0588EE93E0A0E0B6
:10593000B0E08093B0059093B105A093B205B09309
:10594000B30586E591E09093AD058093AC058FEFAC
:105950009FEF9093B9058093B805809399071092B3
:105960009A0793E090939B0710929D0710929C07D3
:1059700094E1E8E2F1E0AEE9B7E001900D929A958A
:10598000E1F71092B4071092B9071092BE07109277
:10599000C3071092C8071092EB071092EC07109201
:1059A000ED071092EE078093EF071092FD0510921D
:1059B000FC051092FF051092FE0580930006E9E2B7
:1059C000F6E081E0DF0194971C92169612961C92E5
:1059D00012971596EA17FB07C9F79F01225E3F4F02
:1059E00012961C92129715962A173B07C9F7868FB5
:1059F000E95BFF4F97E0E534F90721F7EFE1F7E0C6
:105A000087E997E0108235968E179F07D9F7109295
:105A10009507109296070895789483E084BD83E0FB
:105A200085BD81E080936E00E1E8F0E083E0808353
:105A3000E0E881E08083E1E983E08083E0E981E0E0
:105A40008083E1EC87E08083E3EC81E08083E0EC1D
:105A500082E08083E2EC81E08083EAE787E0808374
:105A6000806880831092AA0510928F0110928E0197
:105A70008091D70081608093D70080EA8093D8001E
:105A800089B5806189BD89B5826089BD09B400FE90
:105A9000FDCF81E090E00E9416068091D8008F7CB7
:105AA00080618093D8008091E000807F8093E00047
:105AB0008091E1008E7E8093E1008DE08093E20092
:105AC000559A209A81EC80937C0081EF85B987EE0E
:105AD00084B982E38BB982EF8AB9769A6E9880EFA7
