:100000000C94AF000C94D7000C94D7000C94D7003C
:100010000C94D7000C94D7000C94D7000C94D70004
:100020000C94D7000C94D7000C9442160C94B11683
:100030000C94D7000C94D7000C94D7000C94D700E4
:100040000C94D7000C942D190C94D7000C94D70065
:100050000C94D7000C94D7000C94D7000C94E318A0
:100060000C94D7000C94D7000C94D7000C94D700B4
:100070000C94D7000C94D7000C94D7000C94D700A4
:100080000C94D7000C94D7000C94D7000C94D70094
:100090000C94D7000C94D7000C94D7000C94D70084
:1000A0000C94D7000C94D7000C94D7002C00360089
:1000B0003000300034003000380030003C003000A8
:1000C0004000300044003000480030004C00300058
:1000D00050003000080B000202020000090400007A
:1000E00001020200000524001001052401010104A1
:1000F00024020605240600010705810310004009BB
:10010000040100020A000000070502024000000787
:100110000583024000000403090412010002EF02FB
:1001200001404123368000010102030141726475E0
:10013000696E6F204C4C430041726475626F7900A8
:10014000D5F08D14A1C881CFD9F1AF2000DB20C03C
:10015000A0D92181FFA800A800A83F0044191124BC
:100160001FBECFEFDAE0DEBFCDBF11E0A0E0B1E00F
:10017000E8ECF6E502C005900D92A436B107D9F778
:1001800027E0A4E6B1E001C01D92A13EB207E1F76D
:1001900010E0CFEAD0E004C02197FE010E945C2B62
:1001A000CE3AD107C9F70E94BF190C94622B0C9468
:1001B000000090911E01923041F0933061F0913037
:1001C00019F4811110921E0108958130D9F381E054
:1001D00080931E0108958230D1F382E0F9CF90918F
:1001E0001E01913051F018F0923059F0089581308D
:1001F00031F081E080931E010895823021F082E089
:10020000F9CF8330C9F383E0F5CF2091E00730E0E8
:100210002F5F3F4F95E0929FF001939FF00D1124C7
:10022000E657F84F9281913019F0923051F00895CD
:10023000833080F0853088F0853061F482E090E092
:100240000895833038F0853040F0853019F484E02B
:1002500090E0089590E080E0089581E090E00895B6
:10026000FC0180919A05882311F13FB7F89482E050
:100270008093E9002091F200822F90E01816190671
:1002800014F481E090E0882339F0289844E6409304
:1002900099054091F1004083222339F02091F2002A
:1002A000211103C02BE62093E8003FBF08958FEF94
:1002B0009FEF08952FB7F89483E08093E900909121
:1002C000E800892F807295FF04C09091F20080E4CD
:1002D000891B2FBF08958091910581110DC082E087
:1002E00080938D0584E080938E0510929005109286
:1002F0008F0581E0809391058DE895E00895409108
:10030000790150917A01209177013091780142175B
:100310005307B4F49091E8009570E1F39091E800F0
:1003200092FD19C08093F1008091790190917A013A
:1003300001968F739927892B19F48EEF8093E8002B
:100340008091790190917A01019690937A0180933E
:10035000790181E0089580E00895EF92FF920F9374
:100360001F93CF93DF93F82E192FE62E042F81E0F1
:10037000860F880F0E947F0183E00E947F01CF2DAE
:10038000D12FEC0EFD2EF11CCE15DF05B9F007FFC5
:1003900013C0FE0184910E947F01182F80E00E940B
:1003A0007F01812321968111EFCFDF91CF911F91A2
:1003B0000F91FF90EF9008958881EDCF81E0F5CF08
:1003C000DF92EF92FF920F931F93CF93DF93D82E7C
:1003D0008A01EB017B01E40EF51ECE15DF0559F015
:1003E000D7FE12C0FE0184910E947F0121968111E7
:1003F000F4CF0FEF1FEFC801DF91CF911F910F9145
:10040000FF90EF90DF9008958881EECF0F931F93B8
:10041000CF93DF931F92CDB7DEB782E0898342E4AA
:1004200050E064ED70E080E80E94E0010E946B0102
:10043000DC0112960D911C910115110589F0D8016E
:10044000ED91FC910280F381E02DBE016F5F7F4F43
:10045000C801099597FD04C0F80100851185ECCF0E
:1004600089810F90DF91CF911F910F910895615075
:1004700030F02091F100FC0120830196F8CF2898FC
:1004800084E6809399050895CF93DF931F92CDB7AB
:10049000DEB76983DC01ED91FC910280F381E02DF0
:1004A00041E050E0BE016F5F7F4F09950F90DF91F3
:1004B000CF91089583E08093E9008091F200882332
:1004C00019F08AE38093E80008950E945A0190E0B1
:1004D0000895CF93DF931F92CDB7DEB7FC018485DB
:1004E000958597FD08C02FEF3FEF358724870F9044
:1004F000DF91CF910895CE0101960E9430010197BE
:1005000019F4898190E0F3CF8FEF9FEFF0CF0F9335
:100510001F93CF93DF931F92CDB7DEB78C01FC0101
:100520008485958597FF0BC0CE0101960E9430010E
:10053000019771F4898190E0F80195878487F8012B
:10054000848595850F90DF91CF911F910F9108952C
:100550008FEF9FEFF1CFFC018485958597FD0BC050
:100560009FB7F89482E08093E9008091F2009FBFEA
:1005700090E0019608959FB7F89482E08093E90097
:100580008091F2009FBF90E008950DB407FEFDCF6B
:100590008EB5729A08950DB407FEFDCF8EB51EBCC0
:1005A000089572980E94E902862F0E94E902852F21
:1005B0000E94E902842F0C94E902462F5091810198
:1005C000570F60918201681F83E00E94D1021EBC18
:1005D00008958EBD00008EB50DB407FEFCCF0895C2
:1005E000FC010E948B03319728F068517C4F8F4F9C
:1005F0009F4FF9CFAB01FC010E948B036417750775
:100600008E079F07C8F3089585E090E00C94F002F0
:100610008F929F92AF92BF92CF92DF92EF92FF9212
:100620000F931F93CF93DF936C017B018A0180911D
:100630000B01882309F45AC080919A05882309F494
:1006400055C080917D0180FF05C08091E0008260EF
:100650008093E000E801B12C8AEFA82E93E0892E68
:100660002AE3922E209711F4BB20C9F10E945A016F
:10067000811108C0AA94AA20C9F181E090E00E94EB
:10068000F002F0CF8C171D0611F00CF08C2F9FB7E5
:10069000F8948092E9002091E80025FD02C09FBFF8
:1006A000E1CF282F30E0C21BD30BF701815020F09F
:1006B00041914093F100FACFE20EF31EBB2021F0EE
:1006C0009092E800B12CEBCF8091E80085FDE7CF58
:1006D0009092E800BB24B394209709F3F3CF5D9880
:1006E00084E680937C01101611063CF081E090E0D6
:1006F000F6019383828310E000E0C801DF91CF917F
:100700001F910F91FF90EF90DF90CF90BF90AF902F
:100710009F908F900895A3E7B1E02FB7F8947D9153
:100720008D919C9166B52FBFA89B05C06F3F18F4B3
:100730007F5F8F4F9F4F22E0660F771F881F991FA3
:100740002A95D1F70895FC019081611105C081E0DF
:10075000913039F080E005C0613021F481E09111E1
:10076000F9CF0895623021F481E0933099F7F9CF01
:10077000633081F781E0923069F7F3CF30E73CBD19
:10078000DC0130E8439FC0011124A80FB91F5E911E
:10079000352F6111372F3C93C89500C052235EBDA1
:1007A0000197A9F704D003D030E50DB43CBD0895FE
:1007B00080918305882329F081508093830581E00F
:1007C000089580E0089580916B0180936C019FB142
:1007D0009095907F669B98601C9B946090936B01B2
:1007E000809589230895262F9091DF07891B990B07
:1007F000039664E070E00E94482B489F200D11246E
:10080000822F08950F931F93CF93DF9344E0849F2B
:1008100090011124F901E455FF4F849140E1849F38
:10082000C0011124CCE0D1E099878887F901E25515
:10083000FF4FE49120E1E29FF0011124FB87EA875A
:10084000805E964008E110E0B8010E94482B9B01B1
:100850007D836C83CF014097B8010E94482B7F8332
:100860006E832052394F39832883719561957109C0
:100870007B836A8382E190E09F878E8780E891E0A6
:100880009D878C87DF91CF911F910F910895EAE8A2
:10089000F7E02EE937E080E09781911101C08F5F8A
:1008A00035962E173F07C1F78430E8F420918B0569
:1008B00065E0822F90E0019683709927282FAC0184
:1008C0004F5F5F4F649FF001659FF00D1124E65765
:1008D000F84F3281332369F380938B051092F00532
:1008E0001092EF05089580919C058152823060F44A
:1008F00080918B0590E001968370992780938B05FA
:1009000083E280939C05EACF86E280939C0508955C
:10091000E7E8F7E080818F5F80838150990B25E0C5
:10092000289FD001299FB00D1124A25FB84F1196C6
:100930009C911197EAE8F7E096A78C9185A791AB77
:1009400080AB08953F924F925F926F927F928F9209
:100950009F92AF92BF92CF92DF92EF92FF920F934E
:100960001F93CF93DF9300D01F92CDB7DEB73A012C
:10097000862EA3E8B1E0B701E02FDD24382E96954E
:100980009695969531E061FD34E060FD330F62FD90
:1009900032955FEF539F7001E094F09475956795E1
:1009A0007595679575956795462F4F3F4CF4409523
:1009B000941B20FD440F489F600C711C8D1C4FEF51
:1009C00017FF0BC0300E20FF02C0000F111F601A6E
:1009D000710A8D0817FD8394EE2750E845030E0E2B
:1009E000A00DB11D5E1B351608F0352E57E0541BC7
:1009F000591714F4952FD39450E85319482E5524C1
:100A000021FD02C04318550820FF02C0440C551CAC
:100A100011245B824A82932E00908101700C009019
:100A20008201801C19C0729833E03EBD640C751CB5
:100A3000811CAA24831509F0A3940CD08EBC07D086
:100A40007EBC05D06EBC03D01EBC03D00895C895F3
:100A50000000C895C8950895641875088108E3DFFB
:100A600041151CF0992371F564C0A058BF4FC32CE9
:100A700020FD0CC06EB51EBC699DBC90BF20B12886
:100A8000BD92C89500C0CA94A9F711C06EB51EBC2E
:100A9000699DB001DEDFEEB41EBCE99C7001BC9024
:100AA000F094BF20B72ABD92C895CA9479F7112453
:100AB000A319B1099A9509F45CC0AA2019F00DB4E4
:100AC000729AB1DFFD01E058FF4FC32C20FD0EC02C
:100AD0006EB51EBC699DBC90BE20B028BD92B08092
:100AE000BF20B128B192CA9499F716C06EB51EBC4A
:100AF000699DB001BC90F080AEDF00C0EEB41EBCBA
:100B0000E99C0094B020B62ABD921094F120F72AF7
:100B1000F1920000CA9451F71124A50FB11D9A95C6
:100B200061F6DD2031F1AA2021F00DB4729A7BDF4D
:100B3000C89520FD0CC06EB51EBC699DBC90BE2042
:100B4000B028BD92C89500C03A94A9F712C06EB5FE
:100B50001EBC699DB0017DDF9EB51EBC999D902D88
:100B6000BC909095B922B62ABD92C8953A9479F76F
:100B7000C8951124729A0DB40F900F900F90DF91C9
:100B8000CF911F910F91FF90EF90DF90CF90BF908A
:100B9000AF909F908F907F906F905F904F903F901D
:100BA00008956F927F928F92AF92CF92DF92EF92E1
:100BB000FF920F931F93DC01922F2A2DF92FE42F20
:100BC0003701802EC114D104A1F096959695969583
:100BD000A0FC990F949F7001ED9C700C811CFC9CF3
:100BE000700C811CFD9C800CEC9C600C711C112411
:100BF000811C7B018D01682DA301CF010E94A204FD
:100C00001F910F91FF90EF90DF90CF90AF908F905A
:100C10007F906F9008954F925F926F927F928F9224
:100C2000AF92BF92CF92DF92EF92FF920F931F93FA
:100C3000CF93DF932C01EB013901842E842FB9016E
:100C40000E94DD020E94CB02B82E0E94C502C03471
:100C5000D105D4F492012B0D311D232BA9F09E0157
:100C6000280F311D121613067CF492E0690E711CD8
:100C7000811C92E0A92E6801082D7301282F4B2DAD
:100C8000BE01C2010E94D105DF91CF911F910F914A
:100C9000FF90EF90DF90CF90BF90AF908F907F90BC
:100CA0006F905F904F900895EF92FF920F931F9374
:100CB000CF93DF93E42EF22E2091E00704E22F3F42
:100CC00021F009E0209F002D1124C82FD0E0060F4D
:100CD0000C0F1D2F111D21E631EE42E060E270E0A5
:100CE00089E690E00E940B06EE20A1F08091C207F9
:100CF0009091C3078C01000F111F080F191F0C0FD3
:100D00001D1F2DEB35E243E063E370E086E790E0E2
:100D10000E940B06FF20A1F08091C0079091C107AF
:100D20008C01000F111F080F191F0C0F1D1F2DEB39
:100D300035E243E06AE370E086E790E00E940B064C
:100D4000DF91CF911F910F91FF90EF900895EF9257
:100D5000FF920F931F93CF93DF93E42EF22E90E038
:100D6000663030F02091DD0799E0299F902D112405
:100D7000C82FD0E0092F060F0C0F1D2F111D27E4DF
:100D800032ED42E070E060E089E690E00E940B0600
:100D9000EE20A1F08091BD079091BF07890F8E01D1
:100DA00093E0899F000D111D11242DEB35E243E0E6
:100DB00068E070E086E790E00E940B06FF20A1F05B
:100DC0008091BC079091BE07890F8E0193E0899FA7
:100DD000000D111D11242DEB35E243E06FE070E0B2
:100DE00086E790E00E940B06DF91CF911F910F9153
:100DF000FF90EF9008954F925F926F927F928F9243
:100E0000AF92BF92CF92DF92EF92FF920F931F9318
:100E1000CF93DF93EC012B013901842E842FB9018C
:100E20000E94DD020E94CB02B82E0E94C502C0388B
:100E3000D105FCF490E449165104DCF49E012B0D1D
:100E4000311D12161306ACF49201280F311D121633
:100E500013067CF492E0690E711C811C93E0A92EAC
:100E60006801082D7301282F4B2DB201CE010E947D
:100E7000D105DF91CF911F910F91FF90EF90DF90FF
:100E8000CF90BF90AF908F907F906F905F904F907A
:100E90000895EF92FF920F931F93CF93DF93F82E55
:100EA000C091DF07809191078130C9F108F44DC0EE
:100EB000823009F447C0833009F458C0E12C809196
:100EC0009607813009F456C008F46BC0823009F4EB
:100ED00063C0833009F477C080919B07813009F4A7
:100EE00079C008F490C0823009F488C0833009F4D6
:100EF0009AC08091A007813009F49AC008F4AFC06D
:100F0000823009F4A7C0833009F4C6C0E110B8C02C
:100F1000DF91CF911F910F91FF90EF9008950F2DCA
:100F200010E00D5F1F4F26EF3DEE43E061E170E002
:100F30008CE590E00E94FB06C111C0CFD6E05DE5D4
:100F4000E52EBDCF0F2D10E0EECF0F2D10E00A5F84
:100F50001F4F26EF3DEE43E061E170E08CE590E04D
:100F60000E94FB06C111AACFDAE0E9CFC111A6CFDA
:100F7000D7E1E5CF0F2D10E00D5F1F4F2AED3AEEC0
:100F800043E068E270E089E290E00E94FB06C13035
:100F900009F0A2CFD8E2A0CF0F2D10E00A5F1F4FBB
:100FA000EDCF0F2D10E02AED3AEE43E068E270E05D
:100FB00089E290E00E94FB06C13009F08DCFD8E2B3
:100FC00043E2E42E89CFC13009F086CFD8E234E382
:100FD000E32E82CF0F2D10E00D5F1F4F2AE73CEE6E
:100FE00043E060E170E086E090E00E94FB06C230E2
:100FF00009F07FCFD7E027E0E22E7BCF0F2D10E066
:101000000A5F1F4FEBCF0F2D10E02AE73CEE43E0C5
:1010100060E170E086E090E00E94FB06C23009F0DB
:1010200068CFDBE0E8CFC23009F063CFD7E1E3CF90
:101030000F2D10E00D5F1F4F2AE339EE43E066E00D
:1010400070E089E290E00E94FB06C33009F05ECFB9
:10105000D6E05CCF0F2D10E00A5F1F4FEDCF0F2DB4
:1010600010E02AE339EE43E066E070E089E290E0C8
:101070000E94FB06C33009F049CFD6E090E4E92E88
:101080000F2D10E06D2F70E02CEE3AE845E08E2D2C
:1010900090E00E94FB063CCFC33009F037CFD6E08A
:1010A00085E3E82EEDCF0F931F932091DF072130CA
:1010B000A9F088F02230A9F02330B1F0082F10E019
:1010C00070E02CEE3AE845E0892F90E00E94FB06A4
:1010D0001F910F91089567E19DE5F0CF68E294E3D9
:1010E000EDCF67E197E0EACF66E0F9CFCF93DF93EA
:1010F000FC01DB0111969C911197208585E0EF01A1
:10110000289FC00DD11D11249B879085EF01989FCA
:10111000C00DD11D11242A969C91988314969C9100
:1011200014979C8313969C912085DF01289FA00D26
:10113000B11D11241D969C9380858F5F8087DF9160
:10114000CF910895E7E8F7E020812F5F20832150B9
:10115000330B95E0929FB001939F700D1124625F55
:10116000784F27E4829FC00111248E509A4F0C942F
:101170007608FC01A085B0E030E020E08FEF2A1770
:101180003B0764F49285691305C09385491710F4F1
:10119000822F492F2F5F3F4F3596F1CF0895FC01E5
:1011A000A085B0E030E020E08FEF2A173B0764F421
:1011B0009285691305C09385941710F4822F492FE7
:1011C0002F5F3F4F3596F1CF0895FC01208580E0D9
:1011D000281731F035969581691721F08F5FF8CF88
:1011E00080E0089581E00895FC0190E085E020858D
:1011F000921748F4DF01989FA00DB11D11241C9691
:101200001C929F5FF4CF08950F931F93CF9310927A
:101210009B050EED17E0D8018C91C7E48C9FC001AF
:1012200011248E509A4F0E94F408D801EC91EC9F43
:10123000F0011124E450FA4F81E08283CF911F9195
:101240000F910895FC0120E03FEF40E0518D6513C0
:1012500005C0528D451710F4322F452F2F5F35965C
:101260002430A1F725E03F3F29F4FC01EC5AFF4F61
:10127000208135E0239F800D911D1124499608950A
:10128000FC01EA5AFF4F20812F3F71F030E02F5FC1
:101290003F4F65E0629FA001639F500D1124840FB2
:1012A000951FFC01808108958FEF0895CF93DF9300
:1012B000EC010E944009982F898D981769F08E8D56
:1012C000981751F08BA1981739F081E028A52913C0
:1012D00080E0DF91CF91089581E0FBCFFF920F93E3
:1012E0001F93CF93DF93EC010E944009082FFE016A
:1012F000EA5AFF4F808190E0019625E0F22EF89E99
:10130000F001F99EF00D1124EC0FFD1F8281815038
:101310008230A0F4CE010E9456098823B1F01FEF5D
:1013200090E080E0298D021305C02A8D921710F4F9
:10133000922F182F8F5F25968430A1F7812FDF9190
:10134000CF911F910F91FF900895FE01ED5AFF4F2D
:101350008081FE018F9DE00DF11D1124318D1FEF65
:1013600090E080E0298D321305C02A8D921710F489
:10137000922F182F8F5F25968430A1F7DFCF0F9320
:101380001F93082F10919C0584ED810F833008F086
:1013900083C08AE897E00E946E09282F8091EF05AC
:1013A0009091F00560E370E00E94342B2D7F213096
:1013B00031F4489748F021E040E069E008C020E0BF
:1013C00041E06CE0489718F421E041E066E0802FAE
:1013D0000E94A7061C3209F45BC08091E0078823B5
:1013E00019F0823009F042C08091BC079091BE078D
:1013F000890F10E00E9405019C018091EF059091FA
:10140000F0051130D1F512161306CCF160E370E04F
:101410000E94342B20E041E06CE04897C8F1802F17
:101420000E9454068091E0078F3FE9F090E001961A
:1014300025E0289FF001299FF00D1124E657F84F71
:10144000808190E09C01220F331F820F931F080FB1
:10145000192F111D25EF30ED42E069E170E08EE6B5
:1014600090E00E940B061F910F9108958091BD0797
:101470009091BF07890F11E0BDCF232B39F660E3B0
:1014800070E00E94342B21E040E069E0489738F694
:1014900021E041E066E0C3CF21E041E066E0802F3B
:1014A0000E94A706F5CFCF93DF938091DE0727E454
:1014B00090E00196EC01C370DD278C2F2C9FF0018A
:1014C0002D9FF00D1124E85CF94F9081992381F351
:1014D000C093DE079AE290939C059091DD079C13E0
:1014E0003DC08AE897E00E946E09E82FF0E0E657D9
:1014F000F84F82A98F5F82AB85E08C9FF0018D9FB2
:10150000F00D1124ED55F84FC0818AE897E00E9454
:101510004009EAE8F7E02C2F30E02657384F4EE933
:1015200057E0918D8C1307C0891739F0D901AE5B54
:10153000BF4F1C9202C0C913F9CF35962C5F3F4FA5
:101540004E175F0771F78AE897E00E946E09809353
:10155000DD078093DE078CE280939C051092F005F6
:101560001092EF0580918805811104C0DF91CF9121
:101570000C940409DF91CF9108951F93CF93DF93CB
:10158000EC01162F0E945609FE018823E1F090E03D
:1015900020E08FEF318D131305C0328D231710F427
:1015A000232F892F9F5F35969430A1F78F3F31F11C
:1015B00095E0899FC00DD11D1124CE014996DF9180
:1015C000CF911F910895ED5AFF4F8081FE0195E064
:1015D000899FE00DF11D1124418DFE0190E020E076
:1015E0008FEF318D431305C0328D231710F4232F55
:1015F000892F9F5F35969430A1F7D8CFFE01EC5A22
:10160000FF4F8081D5CFCF93DF93EC010E9440093B
:10161000282FFE01ED5AFF4F908131968081981757
:1016200041F085E0989FC00DD11D112481E0998D76
:10163000921380E0DF91CF9108950F931F93CF9382
:10164000DF93EC01062F142F0E944009982F84E0AD
:10165000189FF0011124EC0FFD1F901326C0E90F15
:10166000F11DEE5BFF4F80818823D1F08230C1F005
:10167000E1E0992351F0E0E0913039F0E3E092307D
:1016800021F0E2E0933009F0EFEFF0E07D96EE0F0D
:10169000FF1FEC0FFD1F8081918193FF0CC082E042
:1016A000DF91CF911F910F910895E00FF11DEE5B37
:1016B000FF4F8081F5CF80E0F3CF1F93CF93DF936F
:1016C000EC01162F0E944009412F682FCE01DF91B7
:1016D000CF911F910C941D0B722F203171F4461382
:1016E00035C0E42FF0E07D96EE0FFF1FE80FF91FE5
:1016F000818183FB882780F908952F3089F4461370
:1017000025C0413049F030F0423041F0433049F7D4
:1017100042E0E7CF41E0E5CF40E0E3CF43E0E1CF77
:1017200050E0435E5F4F440F551FFC01E40FF51F6F
:1017300021E030E002C0220F331F7A95E2F780816A
:1017400091812823392381E0232B09F480E0089537
:101750009F92AF92BF92CF92DF92EF92FF920F9340
:101760001F93CF93DF936C01F62EE42EFC010081D2
:101770001181C8010E944009B82E29E0A22EE11073
:10178000AE2C9EE0992EFB1002C081E1982EDA2D3E
:10179000C0E09D1690F4F601208530E090E080E0F6
:1017A00082179307DCF44285F41204C04385E416E3
:1017B00008F4C15001963596F3CFFB1002C0DB3020
:1017C00059F0DA1549F02D2F4F2D6B2DC8010E94CD
:1017D0006C0B811101C0CF5FDF5FDBCFF801EA5AEC
:1017E000FF4F9081F6018781981308C0F80185A505
:1017F000F81204C086A5E81608F4C1508C2FDF91BA
:10180000CF911F910F91FF90EF90DF90CF90BF90FD
:10181000AF909F900895DF92EF92FF920F931F93E6
:10182000CF93DF937C01062F142F40E0612F0E949D
:10183000B908D82F8F3FF9F0F70185E0D89FE00D68
:10184000F11D1124D384CEE0101301C0C0E1CD15E9
:1018500090F0101302C0CB3051F02C2F412F602F8D
:10186000F701808191810E946C0B882311F0C15097
:10187000EECFDC12DFEF8D2FDF91CF911F910F9113
:10188000FF90EF90DF9008950F931F93CF93DF9316
:10189000FC01C181442311F0433071F4CC23A9F140
:1018A000FC010081F901E00FF11D8081F4E18F9FBF
:1018B000C00D11248C2F20C0CC2339F18901D08197
:1018C000CB30F9F40E94A3038823D9F0E1E0DD23B3
:1018D00051F0E0E0D13039F0E3E0D23021F0E2E045
:1018E000D33009F0EFEFE00FF12FF11D8081C4E15B
:1018F0008C9F802D1124815FDF91CF911F910F91DB
:101900000895F801ED0FF11DD0CF8FEFF5CF5F9265
:101910006F927F928F929F92AF92BF92CF92DF92FF
:10192000EF92FF920F931F93CF93DF9300D000D0DD
:10193000CDB7DEB77C01DC01CD90DC90C6010E9402
:101940004009182FF601EA5AFF4F2081712C2F3FD2
:1019500069F030E02F5F3F4F45E0429FC001439F59
:10196000900D1124C80ED91EF601728080912301BA
:1019700090912401A0912501B091260189839A8339
:10198000AB83BC8360E0C7010E94E508C82E61E01C
:10199000C7010E94E508082F62E0C7010E94E50820
:1019A000D82E63E0C7010E94E508CC2009F42EC1BF
:1019B000002309F493C0DD2009F4ACC0882349F06A
:1019C000111114C093E0998391E09A831B8292E0F5
:1019D0009C83DD2009F49EC0811136C01111C5C061
:1019E00082E089831A8281E08B83C5C0113011F4B3
:1019F00019837EC0123021F493E09B8391E0E8CFFD
:101A0000133039F7198292E09A8391E09B831C830B
:101A1000E0CFDD20C9F08823B9F0111108C083E0C0
:101A2000898381E08A831B8282E08C830DC083E0FE
:101A3000113009F46CC0123009F04BC083E0898387
:101A400081E08A831B831C8267018AE0C80ED11C57
:101A500000E00F5F5601A5E0AA1AB108602EB6E0BB
:101A60006B1609F4A4C04501EAE08E0E911C9E019C
:101A70002F5F3F4F472D612FC4010E94440C582E09
:101A80009E012F5F3F4F472D612FC6010E94440CDE
:101A90005816D0F4D6015C9111964C91119713967B
:101AA0003C91139714962C91149712969C9112972F
:101AB00085E0F40101900D928A95E1F7F5015287D6
:101AC00043873587268794876394F5E0AF0EB11C72
:101AD000C6CF133009F0B8CF1983A3CFDD2009F4A6
:101AE000B3CF882309F4B0CF111104C081E08983FA
:101AF00083E098CF113009F47BCF123021F481E0DC
:101B0000898383E09ECF133009F09ECF81E08983E3
:101B10001A8389CF882349F0111115C092E0998367
:101B20001A8293E09B8391E09C83002309F48CCF7D
:101B300081118ACF111132C083E0898382E08A83C8
:101B40001B8281E072CF113039F4198282E08A83DE
:101B500083E08B831C8378CF123021F4198292E0CA
:101B60009A83DFCF1330D1F3E0CF113031F41982F3
:101B700082E08A831B8383E058CF123021F41982DC
:101B800082E08A8330CF1330D1F35ECF133009F077
:101B90005BCF81E08A8382E08B8356CF113009F0DE
:101BA00053CF82E0898383E08A831B82D3CFF5E021
:101BB000CF0ED11C063009F04CCFD70118961C92DD
:101BC000F7019701225E3F4F8385882359F0D701A3
:101BD00018968C9118978F5F18968C933596E2170C
:101BE000F30791F70F900F900F900F90DF91CF9127
:101BF0001F910F91FF90EF90DF90CF90BF90AF902B
:101C00009F908F907F906F905F900895011101CF0A
:101C1000DD2009F419CF882309F416CF123009F01A
:101C2000B5CF81E094CF1F93CF93DF93DC0118965B
:101C30002C91A22FB0E0FC013A9650E040E04A1708
:101C40005B0724F51081EB013881131324C0118147
:101C50003981131320C02150DC0118962C9318975A
:101C60000D90BC91A02D21819E962C939E97208152
:101C70009D962C939D972181D1962C93D19720816D
:101C8000D0962C932FEF208311821282DF91CF9177
:101C90001F910C94870C4F5F5F4F3596D0CFCF9339
:101CA000DF93EC0155E0FC01659FE00DF11D11246F
:101CB0003A9680818A8381818B8383818D8384811D
:101CC0008E8382818C83411143C0838190E0880F91
:101CD000991FA881B981A80FB91F248181E090E0E4
:101CE000BC0102C0660F771F2A95E2F79B01DA96C6
:101CF0008D919C91DB97862B932BDB969C938E93F7
:101D0000DA9728813981C9018C5A9F4FDC018C9167
:101D1000D901859FA00DB11D1124599680818C9306
:101D2000818111968C931197838113968C931397CD
:101D3000848114968C931497828112968C938FEFE2
:101D4000808311821282CE01DF91CF910C94870C97
:101D5000DF91CF910895FC01B08530E05FEFAFEFE8
:101D6000B31769F07285671307C07385471720F4AE
:101D70007A1710F4532FA72F3F5F3596F1CF5F3FAF
:101D800031F0422F652F0E944F0E81E0089580E0D0
:101D90000895AF92BF92CF92DF92EF92FF920F938E
:101DA0001F93CF93DF937C01D62EC42EB22EC0E0BA
:101DB000DFEF1FEF85E0A82EDC16A9F0CC1699F016
:101DC000BC1689F04FEF6C2FC7010E94CF088F3FE0
:101DD00051F0F7018A9DE00DF11D112493859117B3
:101DE00010F4D82F192FCF5FC43031F780E0DF3FD8
:101DF00031F0402F6D2FC7010E944F0E81E0DF911F
:101E0000CF911F910F91FF90EF90DF90CF90BF90F7
:101E1000AF9008958F929F92AF92BF92CF92DF9230
:101E2000EF92FF920F931F93CF93DF938C01E62ED7
:101E3000A42E922EC0E025E0822EAC16E9F0D0E070
:101E400099E0F92EEC1203C02BE0F21659F02F2D79
:101E50004C2F6E2DF801808191810E946C0B8111B5
:101E600001C0DF2DF394FFE0FF12ECCF8EEF8C0F5B
:101E7000823038F4D43049F4CF5FC430F1F680E0DA
:101E80003CC0C23010F4D530B9F3D15040E06C2FD3
:101E9000C8010E94B9088F3F79F39801889D200DF1
:101EA000311D1124F9013A966F0189E0F82EB12C09
:101EB000DF1590F0EC1203C0FBE0FF1659F02F2D58
:101EC0004C2F6E2DF801808191810E946C0B811145
:101ED00001C0BF2CF394ECCFF60181818B11CCCFE4
:101EE0004D2F6C2FC8010E94CF088F3F29F2492D3A
:101EF000682FC8010E944F0E81E0DF91CF911F91A2
:101F00000F91FF90EF90DF90CF90BF90AF909F9098
:101F10008F900895FF920F931F93CF93DF938C01BF
:101F2000D62FF42EC0E04C2F6D2FC8010E940B0C51
:101F30008F3F61F04F2D682FC8010E944F0E81E046
:101F4000DF91CF911F910F91FF900895CF5FC43023
:101F500051F780E0F5CF1F93CF93DF93EC01122F61
:101F60000E940B0C8F3F51F0412F682FCE010E9431
:101F70004F0E81E0DF91CF911F91089580E0FACF5D
:101F8000CF92DF92EF92FF920F931F93CF93DF9345
:101F90008C01D62EE42EC0E0DFEFFF24FA9485E01A
:101FA000C82EDC1689F04FEF6C2FC8010E94CF08B5
:101FB0008F3F51F0F8018C9DE00DF11D11249385A8
:101FC0009F1510F4D82FF92ECF5FC43051F780E061
:101FD000DF3F31F04E2D6D2FC8010E944F0E81E082
:101FE000DF91CF911F910F91FF90EF90DF90CF90F5
:101FF00008951F93CF93DF93EC01142F4FEF0E94AE
:10200000CF088F3F51F0412F682FCE010E944F0E15
:1020100081E0DF91CF911F91089580E0FACF2F9258
:102020003F924F925F926F927F928F929F92AF9268
:10203000BF92CF92DF92EF92FF920F931F93CF93B5
:10204000DF9300D01F92CDB7DEB79B838A83762EB5
:10205000FC01F781F9838F2E912C540122E0A20E0E
:10206000B11C33E0A322BB24FC0100811181C80113
:102070000E944009682E682FC8010E942209FC01B5
:102080004180F801ED5AFF4F8081E82EF12C95E058
:10209000292E9801829D200D311D1124F901799678
:1020A0006F015080C8010E94030B382E2A9CF0015A
:1020B0002B9CF00D1124E00FF11F828D882309F471
:1020C00040C1FFEF8F1A9F0A23E082229924C801A2
:1020D0000E946E09B82E8A11F9C08981837033E09D
:1020E000E30EF11C93E0E922FF248E151F0499F5FD
:1020F000472D332031F0662D8A819B810E94F90F94
:102100000DC0652D8A819B810E94F90F811124C128
:10211000472D662D8A819B810E94C00F81111CC1B1
:10212000472D662D8A819B810F900F900F90DF9134
:10213000CF911F910F91FF90EF90DF90CF90BF90C4
:10214000AF909F908F907F906F905F904F903F9057
:102150002F900C94C00F3320B1F1482D662DC8018B
:102160000E941D0B8150823008F0AEC0442D662DB8
:102170008A819B810E94A80B843008F4A5C0442D5D
:10218000662D8A819B810E94B908472D8F3F09F4F3
:10219000B2CF682F8A819B810F900F900F90DF91B3
:1021A000CF911F910F91FF90EF90DF90CF90BF9054
:1021B000AF909F908F907F906F905F904F903F90E7
:1021C0002F900C944F0EC8010E945609882381F06D
:1021D000472D652D8A819B810E94F90F8111BCC01A
:1021E000272D442D662D8A819B810E94AB0E2DC028
:1021F000F601F180F394E12C651011C0FFEFFF169A
:10220000E1F02BE0F21649F02F2D462D662DC80186
:102210000E946C0B811101C0E394F394EFCF3EE078
:102220003F1558F02F2D452D662DC8010E946C0BCF
:10223000811101C0E394F394F2CFE1102BC0472D3C
:10224000652D8A819B810E94F90F811185C0472DE0
:10225000662D8A819B810E94C00F81117DC0472D10
:10226000662D8A819B810F900F900F90DF91CF9107
:102270001F910F91FF90EF90DF90CF90BF90AF90A4
:102280009F908F907F906F905F904F903F902F9096
:102290000C94F90F442D652D8A819B810E94A80B17
:1022A000843008F44CC040E0652D8A819B810E94F7
:1022B000B908472D8F3F09F06CCF652D8A819B812E
:1022C0000E94F90F811148C0472D15CF332021F10D
:1022D000482D662DC8010E941D0B93E0E90EF11CEC
:1022E000E3E0EE22FF24998193709E151F0441F4D0
:1022F000272D442D662D8A819B810E94AB0EE2CF53
:102300008111F6CF40E0662D8A819B810E94B90839
:102310008F3F71F3472D3DCFC8010E9456098111AF
:1023200057CFF801B29CE00DF11D1124272D428DED
:10233000652D8A819B810E94AB0E81110DC0472DB6
:10234000BCCF3320F9F0272D462D662D8A819B8145
:102350000E94AB0F882361F20F900F900F90DF91D6
:10236000CF911F910F91FF90EF90DF90CF90BF9092
:10237000AF909F908F907F906F905F904F903F9025
:102380002F900895C8010E945609882381F0472D97
:10239000652D8A819B810E94F90F8111DDCF272D48
:1023A000442D662D8A819B810E94AB0EB7CE652D90
:1023B000C8010E94BD0A272DFC014181B9CFFC0153
:1023C000238184818450990BFBE02F9F800D911D08
:1023D0001124982F990F890F08952F923F924F92B1
:1023E0005F926F927F928F929F92AF92BF92CF92A5
:1023F000DF92EF92FF920F931F93CF93DF9300D062
:1024000000D01F92CDB7DEB7382E6A8380917F0649
:10241000882309F477C0209041069CE0492E512C76
:1024200042185108440C440C23E4E22E26E0F22E1C
:10243000D12CC12C042C000C5508632C712C30E3DA
:10244000832E912CC982C21408F05CC0F7018181EF
:10245000882309F44AC080919C05873279F0A0F066
:102460008A52823088F48091DE07813009F044C0BE
:102470008281882309F443C0FBE204C08281FFE229
:102480008111FACFFB8302C08FE28B839B81892F5E
:1024900090E09D838C83560183E0AA0CBB1C8A9537
:1024A000E1F7A40CB51CC7010E94DF118301080FDE
:1024B000111DEA81EE2389F080919B05F981F813C3
:1024C0000CC08091EF059091F005B4010E94342B6F
:1024D0002EEA3DEC41E0489718F020E138E841E071
:1024E0006C817D81C5010E94FB068FEFC81AD80A56
:1024F00095E0E90EF11CA6CF9FE29B83C7CFEFE2E8
:10250000EB83C4CF809188068823A1F09091C60602
:10251000992381F0032D10E0E3E08E9F000D111D43
:10252000112424E335EC42E066E070E090E080E0C6
:102530000E940B068091CF068823A1F090910D0791
:10254000992381F0032D10E0F3E08F9F000D111D02
:1025500011242CE63DEC42E06DEF7FEF8FE190E03F
:102560000E940B068091FA058823A1F0909138060D
:10257000992381F0032D10E093E0899F000D111D38
:10258000112420E539EC42E066E070E084E690E05A
:102590000E940B060F900F900F900F900F90DF91FD
:1025A000CF911F910F91FF90EF90DF90CF90BF9050
:1025B000AF909F908F907F906F905F904F903F90E3
:1025C0002F900895FF920F931F93CF93DF93D82FEF
:1025D000F62EC42F23E062134AC08091EF0590913C
:1025E000F00560E370E00E94342B489708F43FC088
:1025F0008091A9078823A1F088EA97E00E94DF1163
:10260000282F2D0F3327331F89016C2F70E06D5E4B
:102610007F4F20E138E841E081E390E00E94FB0633
:10262000F1104BC08091EF059091F00560E370E0F0
:102630000E94342B489708F440C08091AE0788234D
:1026400009F461C08DEA97E00E94DF11282F2D0F59
:102650003327331F89016C2F70E06B5E7F4F2CE4B2
:1026600033E142E084E190E00E94FB064CC080919F
:10267000B3078823A1F082EB97E00E94DF11282F97
:102680002D0F3327331F89016C2F70E0675F7F4F59
:1026900020E138E841E086E290E00E94FB0631E06C
:1026A000F312A6CF8091EF059091F00560E370E002
:1026B0000E94342B489708F49BCF8091A40788236D
:1026C000A1F083EA97E00E94DF11282F2D0F332716
:1026D000331F89016C2F70E0635F7F4F20E43CE67D
:1026E00042E08CE390E00E94FB0632E0F312A5CFBB
:1026F0008091EF059091F00560E370E00E94342B2B
:10270000489708F49ACFDF91CF911F910F91FF90D6
:1027100008950F931F93CF939091B807992399F041
:10272000C82F87EB97E00E94DF11282F2C0F33274B
:10273000331F890120E138E841E06EE070E08AE172
:1027400090E00E94FB06CF911F910F9108951F9377
:10275000CF93DF93EC01162F88818B8389818C8343
:102760008B3041F4CE010E94A303882319F0188313
:102770008FE0898389818B3029F48881181302C006
:1027800080E18983DF91CF911F9108953F924F920D
:102790005F926F927F928F929F92AF92BF92CF92F1
:1027A000DF92EF92FF920F931F93CF93DF93762EDA
:1027B000642E8093E00780938B0760938C0740938F
:1027C0008A07C82FD0E0CE01019625E0289FF001AE
:1027D000299FF00D1124E657F84F6283408322961B
:1027E000C370DD2727E42C9FC0012D9F900D11247D
:1027F0002DEE822E25E0922E10E000E0332433945B
:102800009C01285C394F790135E0432E32E0731288
:102810001EC0C017D107D9F4F70110826401F5E09A
:10282000CF0ED11C512C94012E5D35405901F4017D
:102830008585581688F4C501549C800D911D11247E
:10284000662D83519A4F0E94A7135394F0CFF40141
:10285000E55BFF4F3082E2CFC6010E94870C0F5F1D
:102860001F4FF7E48F0E911C0430110579F620916B
:10287000DF0747E4822F90E0019683709927282F85
:10288000489FF001499FF00D1124E85CF94F308119
:10289000332381F38093DD078093DE071092F005E8
:1028A0001092EF0580E48093870510929B05DF91DD
:1028B000CF911F910F91FF90EF90DF90CF90BF903D
:1028C000AF909F908F907F906F905F904F903F90D0
:1028D00008955C98FC012591CF012EBD00000DB438
:1028E00007FEFDCF6150B1F75C9A0895CF93C82FD2
:1028F00020E040E0662359F060E08C2F0E94A7069C
:1029000021E041E066E08C2FCF910C94540663E007
:10291000F4CF3F924F925F926F927F928F929F92ED
:10292000AF92BF92CF92DF92EF92FF920F931F93DD
:10293000CF93DF9300D000D0CDB7DEB79C838B83DD
:10294000B62E6A01322E7C019C01225E3F4F8C0123
:10295000F8018385928590A781A793A784A70B5F31
:102960001F4F02171307A1F7EB81FC818085818738
:10297000332059F0F60191812081EB81FC8123A362
:1029800094A326A397A38F5F8087EB81FC8160854A
:1029900070E0712C4B01F1E08F1A910895E0A92E9F
:1029A000872D90E0881599050CF059C040E0FB0197
:1029B000E81BF90BCF0101979A838983A42FB0E01C
:1029C000E981FA81AE17BF070CF047C04A9D90011C
:1029D0001124C9010A96EB81FC818E0F9F1FFC0117
:1029E00051814F5FEB81FC812E0F3F1FF901208940
:1029F000521720F7FC0150804A9DC00111249C0110
:102A0000265F3F4FEB81FC812E0F3F1FF901618054
:102A10004080AA9E9001AB9E300D1124AB81BC81F9
:102A2000A20FB31F1A964C921A971B966C921B9783
:102A30001D964C921D971E966C92AB81BC81A80F7F
:102A4000B91F1A965C921A971B965C931B971D965A
:102A50005C921D971E965C93B1CF7394A1CFA12C6D
:102A600085E0982EEB81FC815085A51660F4CF019E
:102A7000A99C800D911D1124F60160810A960E9487
:102A8000A713A394EFCFAB81BC8190E040E030E08E
:102A900080E0591709F484C01B96EC911B97EF3026
:102AA00039F0E03161F48C5931E09F5F1596F1CF38
:102AB00024E6311101C020E5820F41E0F6CF1A96DD
:102AC0002C911A97EF3088F7F0E0E759FA4E0C9402
:102AD0005C2BC815C815C815C815C815C815C81564
:102AE000CC15CC15CC15CC155515B5158715781505
:102AF000B2124AC0332339F0442319F08C59342FD1
:102B0000D4CF8A5BD2CF4423D1F3845CCECFB21230
:102B100022C0913041F088F0923099F0933009F062
:102B2000C4CF8C59C2CFEB81FC8123852F3039F083
:102B3000203151F12E3009F0B8CF8C5EB6CF875ED0
:102B4000B4CFEB81FC8120892E30F1F02F3009F0D9
:102B5000ACCF885DAACF911102C0815FA6CF159638
:102B60006C9115972613F9CFE8CFB2129ECF923011
:102B700059F028F4992391F0913079F396CF93305E
:102B800029F0943071F291CF825E8FCF835D8DCF2B
:102B9000B2128BCF8B5F89CFB21287CF865F85CF82
:102BA000311009C0F60191819B3011F0903119F478
:102BB000813548F18055F70191A520A5228793879B
:102BC00025879687F5E0EF0EF11CE016F10699F7E0
:102BD000EB81FC819185908790E00F900F900F9092
:102BE0000F90DF91CF911F910F91FF90EF90DF90A9
:102BF000CF90BF90AF909F908F907F906F905F909D
:102C00004F903F90089580E0D6CF0F931F93CF93BE
:102C1000DF93809164008E7F8093640080917A00BE
:102C2000806480937A0080917A0086FDFCCFC09109
:102C30007800D09179000E948B03AB01BC01CE01DA
:102C4000B0E0A0E0DC01992788278C019D01040FEA
:102C5000151F261F371FC901B8012091640021608C
:102C600020936400611571058105910531F0DF91B4
:102C7000CF911F910F910C94BC2ADF91CF911F919E
:102C80000F9108951F920F920FB60F9211248F93F8
:102C90009F938091E1009091E100937F9093E100F8
:102CA00083FF0FC01092E90091E09093EB00109227
:102CB000EC0092E39093ED0010929A0598E09093C7
:102CC000F00082FF22C093E09093E9009091F2001F
:102CD000992319F09AE39093E80090917C0199234D
:102CE00041F090917C01915090937C01911101C031
:102CF0005D9A90919905992341F090919905915091
:102D000090939905911101C0289A84FF18C0809171
:102D1000E2008E7E81608093E2008091E1008F7EF0
:102D20008093E10080917D018E7E806180937D01A2
:102D30009F918F910F900FBE0F901F90189580FF5D
:102D4000F7CF8091E2008E7E80618093E2008091D7
:102D5000E1008E7E8093E10080917D018E7E816016
:102D6000E5CF1F920F920FB60F921124CF92DF92F0
:102D7000EF92FF920F931F932F933F934F935F9385
:102D80006F937F938F939F93AF93BF93EF93FF9333
:102D9000CF93DF93CDB7DEB76C97DEBFCDBF109278
:102DA000E9008091E80083FF25C068E0CE014596E8
:102DB0000E94370282EF8093E8008D8987FF39C037
:102DC0009091E80090FFFCCF982F907609F034C1E5
:102DD0009E894F89588D2F89F88C911131C0803888
:102DE00061F580917E018093F1001092F1008EEFE9
:102DF0008093E8006C960FB6F894DEBF0FBECDBF8F
:102E0000DF91CF91FF91EF91BF91AF919F918F9102
:102E10007F916F915F914F913F912F911F910F91F2
:102E2000FF90EF90DF90CF900F900FBE0F901F900C
:102E300018959EEF9093E800C7CF1092F100D5CF80
:102E4000913059F48111D3CF4130510581F68091F1
:102E50007E018D7F80937E01CACF933049F481112A
:102E6000C6CF4130510519F680917E018260F2CFC4
:102E7000953041F48091E80080FFFCCF20682093DA
:102E8000E300B5CF963009F0A9C00B8D1C8D22E070
:102E90001092E90010927A0110927901F2122EC07C
:102EA00010927801109277010E9406021F8299E029
:102EB0009983FA8291E09E8390EA98879AEF9987A6
:102EC0002091790130917A01275F3F4F3C832B831A
:102ED0008D831092E90010927A011092790110937B
:102EE00078010093770149E050E0BE016F5F7F4FAA
:102EF00080E00E94E0010E94060279CF10937801E1
:102F0000009377010E946B01DC0112960D911C91D8
:102F10000115110509F451C1D801ED91FC9104800E
:102F2000F581E02DBE016B5E7F4FC80109950097CA
:102F300009F03EC1F80100851185EACFF3E0FF12E8
:102F40000EC08F89882309F440C0823061F440E8C4
:102F500067E088E391E00E94AD01811148CF81E2F2
:102F60008093EB0047CF813029F440E86BE08CE29E
:102F700091E0F1CF833099F70E946B01DC0112964A
:102F8000ED90FC908E010F5F1F4F6801E114F1047A
:102F900079F0D701ED91FC910680F781E02DB80121
:102FA000C7010995080F111DF701E084F184EECFE8
:102FB000D8011C92F60101900020E9F73197BF017A
:102FC0006C197D0940E0C601C6CF66E171E0FB01E6
:102FD000449150E080E80E94E00109CF973009F465
:102FE000BECF983021F481E08093F10000CF99307A
:102FF00009F0FDCE837009F0B2CFECE3F1E081E09F
:1030000031E096E32191222371F08093E90030931F
:10301000EB00DF0111972C912093EC009093ED00D1
:103020008F5F873079F78EE78093EA001092EA008D
:103030008F8980939A05DBCE8B8D9C8D1092E90051
:1030400010927A0110927901909378018093770120
:10305000898D811192C08E899D89913A49F481327E
:1030600009F07DCF47E050E064E071E080E0B3CF4D
:10307000913209F074CF833269F48F89988DB0E072
:10308000A0E08093000190930101A0930201B0930E
:103090000301ADCE803269F48091E80082FFFCCF5D
:1030A00067E084E091E00E9437028BEF8093E800B4
:1030B0009ECE823209F09BCE8F8980930B01EEEF7A
:1030C000FFE7859194918B3F9C4D51F1E0E0F8E052
:1030D0008091040190910501A0910601B091070132
:1030E000803B9440A105B105F1F480910B0180FD76
:1030F0001AC0EE3F8AE0F80789F587E797E79183E2
:1031000080838091600080937B0188E19BE00FB613
:10311000F894A895809360000FBE9093600067CEEE
:10312000EEEFFAE0D5CF808191818737974709F09C
:103130005ECEA89580916000886180936000809148
:103140007B0180936000EE3F2AE0F20789F08091D6
:10315000FE0A9091FF0A9183808349CE80819181FC
:103160008737980751F29093FF0A8093FE0AC5CFE4
:103170001092FF0A1092FE0A3ACE0E946B01DC0107
:1031800012960D911C910115110509F4E8CED80194
:10319000ED91FC910190F081E02DBE016B5E7F4FBF
:1031A000C8010995811123CEF80100851185EBCF67
:1031B000181619060CF41BCED2CEF1E0FF12BECECB
:1031C0006AE171E004CF0F920FB68F939F93EF9354
:1031D000FF9380916E018D5F8D3708F08D5780933E
:1031E0006E01EFE6F1E080818E4F808391819F4FE9
:1031F000918382818F4F828383818F4F8383E3E723
:10320000F1E080818F5F808381818F4F8183828114
:103210008F4F828383818F4F83838FB18F606699B5
:103220001C9B88278F3681F480916D01981B963006
:1032300068F0E0E0F8E087E78083818388E18093AD
:103240006000F0936000FFCF90936D01FF91EF91CC
:103250009F918F910FBE0F9018951F920F920FB6EE
:103260000F9211248F939F9382E496E090938900AC
:103270008093880081E0809384059F918F910F90C7
:103280000FBE0F901F9018951092A00510929F05E9
:1032900088EE93E0A0E0B0E08093A1059093A205B2
:1032A000A093A305B093A40585E591E090939E05B6
:1032B00080939D058FEF9FEF9093AA058093A905BA
:1032C00080938A0710928B0793E090938C0710925B
:1032D0008E0710928D0794E1E7E2F1E0AFE8B7E0E6
:1032E00001900D929A95E1F71092A5071092AA0706
:1032F0001092AF071092B4071092B9071092DC0732
:103300001092DD071092DE071092DF078093E0072E
:103310001092EE051092ED051092F0051092EF0557
:103320008093F105EAE1F6E081E0DF0194971C92D9
:10333000169612961C9212971596EA17FB07C9F774
:103340009F01225E3F4F12961C92129715962A17E4
:103350003B07C9F7868FE95BFF4F97E0E633F90734
:1033600021F7E0E1F7E088E897E0108235968E17C4
:103370009F07D9F710928607109287070895CDB757
:10338000DEB76B97DEBFCDBF789483E084BD83E06A
:1033900085BD81E080936E00E1E8F0E083E080830A
:1033A000E0E881E08083E1E983E08083E0E981E097
:1033B0008083E1EC87E08083E3EC81E08083E0ECD4
:1033C00082E08083E2EC81E08083EAE787E080832B
:1033D0008068808310929A0510927E0110927D0180
:1033E0008091D70081608093D70080EA8093D800D5
:1033F00089B5806189BD89B5826089BD09B400FE47
:10340000FDCF81E090E00E94F0028091D8008F7C97
:1034100080618093D8008091E000807F8093E000FD
:103420008091E1008E7E8093E1008DE08093E20048
:10343000559A209A81EC80937C0081EF85B987EEC4
:1034400084B984E38BB984EF8AB9769A6E9880EF59
:1034500081BB10BA80E58CBD81E08DBD0E94040364
:103460005F9A0E9404035C98E0E4F1E085918EBDD0
:1034700000000DB407FEFDCFED34C1F75C9A81E882
:103480008093640001E00093650062E08DE491E0C8
:103490000E94691468E08FE491E00E9469149FB76C
:1034A000F89422E436E0309389002093880013E0FA
:1034B000109380008BE18093810010928500109220
:1034C000840080916F00826080936F009FBF5E9A3E
:1034D000E4E1F0E080EE98EF60EF7FEF2591359129
:1034E000559145912851354909F4CA0180938101CC
:1034F00090938201259135915591459128513549F7
:1035000009F4BA0160937F017093800172988BEA8D
:103510000E94E902729A1092F9058AE897E0909366
:10352000F3058093F2050093400690933A0680934A
:10353000390622E0209387069093810680938006C7
:103540001093CE069093C8068093C7069093890780
:10355000809388071092F0051092EF058FEF9FEF90
:103560009093AA058093A9050E94051600938805EB
:1035700010928A05109286059E012F5F3F4F3F876C
:103580002E875E98F89430918405388F311109C0E8
:1035900083B7816083BF7894889583B78E7F83BF1C
:1035A000F1CF10928405789410918C052FE741E0BB
:1035B00050E061E070E083E095E00E94BE0362E0CD
:1035C00089E591E00E9469142FEF47E051E061E046
:1035D00070E083E891E00E94BE0362E087E591E03D
:1035E0000E9469148EEF810F1F5F8E3F30F480912F
:1035F00083058F5F8093830510E010938C055E9A9E
:1036000080919C05893008F04DC0863008F061C07B
:10361000853008F055C0E82EF12CC701880F991F9E
:103620008E0D9F1D00918C05080F192F111D25E28D
:103630003EE845E070E060E090E080E00E940B062C
:103640008091EF059091F0050C9761F41092F005D0
:103650001092EF054FEFE41AF40A53E0E522FF243D
:10366000E0929C050E94D803882311F18091EF0518
:103670009091F00501969093F0058093EF0580916D
:103680008505803218F48F5F809385050E94E303DF
:10369000882371F080918505803251F485E0809314
:1036A0009C0506C0893009F4CDC08F3208F4F1C002
:1036B000E0E0F0E0EF2B09F464CF0E94000061CF5E
:1036C00086E080939C05109285051092F00510927B
:1036D000EF050E94D803882399F010919C058091F2
:1036E000EF059091F00501969093F0058093EF051A
:1036F0000E94E303163009F449C0173009F452C0A0
:1037000000918C0580919C05863009F47FC087303C
:1037100079F680918605A82EB12CE02EF12C670158
:1037200093E0899FC00CD11C1124860120E132E76F
:1037300045E070E060E090E080E00E940B06809140
:103740008805882349F022E13AE845E069E070E025
:103750008DE090E00E94FB0680918A05882309F4A1
:10376000A7CF81E090E08A199B098C01000F111FFF
:10377000080F191F0E0D1F1D22E13AE845E06BE10D
:1037800070E08DE090E00E94FB0692CF909185055D
:10379000983101F583FF1EC00E94051687E08093D3
:1037A0009C0518C083FF06C0209186052223D9F00E
:1037B000213001F187FF06C090918605913011F408
:1037C0001092860584FF06C0809186058823C1F08B
:1037D0008130D1F080918505883108F091CF8F5FDD
:1037E000809385058DCF9091880521E09227909355
:1037F0008805E0CF90918A05922790938A05DACFC9
:1038000081E080938605E6CF89E0C9CF8091EF05FE
:103810009091F00599278034910590F496958795BD
:1038200010E063E0869F000D111D11242EE032EFA1
:1038300043E070E060E090E080E00E940B0638CF4B
:1038400080E0EECF1092F0051092EF058AE08093B1
:103850009C051092C1071092C0071092C3071092E6
:10386000C2070E9405160E946D2A20E43FE140E055
:1038700050E00E94C52A6B018827992761157105C0
:103880008105910511F00E94BC2AD092EE05C092EC
:10389000ED05D0908C050E94D803F82E882309F4FA
:1038A00097C210919C050E94E303082F2091EF0519
:1038B0003091F005C90101969093F0058093EF05D2
:1038C000E6EFE10FE53208F083C2F0E0E659F34E8F
:1038D0000C945C2B8F1C7F1D7F1D7F1D7F1D7F1D0A
:1038E0007F1D7F1D7F1D3D1E3D1E3D1E3D1E3D1E3D
:1038F0003D1E3D1E3D1E3D1E3D1E3D1E3D1E181F14
:10390000291F6F1FC220D41FE91F14217421B02169
:1039100005241A242A2419278927F7270E2810920C
:10392000860780E095E029E0E0918607E99FF001B5
:103930001124E25FF84F8083E0918607E99FF00150
:103940001124E25FF84F2183E0918607E99FF0019F
:103950001124E25FF84F8383E0918607E99FF0012D
:103960001124E25FF84F2483E0918607E99FF0017C
:103970001124E25FF84F1282309186073F5F309347
:1039800086072F5F2F3081F68F5F843061F61092AB
:10399000870710E0B5E0FB2E80918607181708F026
:1039A00042C090E0B0E0A0E0812E912CB12CA12C7F
:1039B00088169906AA06BB069CF42C013D014818FE
:1039C00059086A087B0841F00E946D2AA301920100
:1039D0000E94C52A2B013C01840C951CA61CB71C17
:1039E000F19E90011124225F384FF901DE011196FA
:1039F0008F2D01900D928A95E1F7F89CC00111245A
:103A0000825F984FFC01D9012F2D01900D922A95CC
:103A1000E1F7FE013196DC018F2D01900D928A9520
:103A2000E1F71F5FB9CF1092F0051092EF058BE020
:103A300080939C058FEF8093E0071092DD07109232
:103A4000DE0780938B0793E090938C0780938A071F
:103A500010928E0710928D07EAE8F7E024EC37E029
:103A60006CEB77E080E053E04FEF92E08683578382
:103A7000458311861086418F128E138ED9011D92B7
:103A80001D929D01DB011D92BD011F969C931F9706
:103A900053969C93539757969C9357975B969C93FA
:103AA0008F5F3596843011F74093B7071092B807AF
:103AB0001092B9071092DC07ADEEB5E02FEF91E060
:103AC000FD0186E02787108A118A25A716A617A66A
:103AD000815035968111F6CF1D961C921D97FD01E0
:103AE000E55BFF4F9083A95BBF4FE7E0A930BE07BE
:103AF00039F71092DF0790938B050E94020403FFB1
:103B000004C080E280939C0563C1F0909C0515EF92
:103B10001F0DF2E100E0FF1508F40EE142E0602F16
:103B200081E00E94F303181708F46CC090E001963E
:103B30001817190611F00CF065C020910C01309196
:103B40000D01E0911401F0911501E217F3070CF05B
:103B50004DC080910E0190910F01609116017091FE
:103B60001701861797070CF041C040911001509142
:103B70001101240F351F30930D0120930C0140914A
:103B8000120150911301840F951F90930F018093A0
:103B90000E014091180150911901A0911A01B091A4
:103BA0001B014A0F5B1F5093190140931801E21744
:103BB000F3071CF486179707CCF081E00E94A20857
:103BC00089E396E00E94870CF394F0929C05109292
:103BD000F0051092EF0542E0602F81E00E94F303B0
:103BE000811720F0809141060E94020480919C057B
:103BF000833109F0EDC08091DF078111E9C00E9497
:103C00000204E6C0C12CE12EF12C57012FEFA21ABD
:103C1000B20A31E0C31202C0A2E0CA2E42E0602F15
:103C20008C2D0E94F303181718F190E001968E1561
:103C30009F05F4F08091EF059091F0050697C1F48F
:103C400090909C058C2D0E94A208939490929C05C4
:103C50001092F0051092EF0542E0602F81E00E9483
:103C6000F3038A151B0421F4809141060E9402048B
:103C7000C39444E0C412CDCFB9CF03FD42CFF5EFDA
:103C8000CF2EC10E43E068E081E00E94F303C81626
:103C900008F464C0EC2CF12C90E002968E159F0580
:103CA0000CF45CC020910C0130910D01E0911401E5
:103CB000F0911501E217F3070CF08AC080910E0114
:103CC00090910F0160911601709117018617970767
:103CD0000CF07EC04091100150911101240F351F4E
:103CE00030930D0120930C0140911201509113016A
:103CF000840F951F90930F0180930E01409118013E
:103D000050911901A0911A01B0911B014A0F5B1F3C
:103D10005093190140931801E217F30724F4861712
:103D200097070CF455C081E00E94A20889E396E051
:103D30000E94870C1F5F10939C051092F005109253
:103D4000EF0543E068E081E00E94F30390E0019614
:103D50008E159F05ECF18091410651CFB12C0C2DB1
:103D600010E078015FEFE51AF50A61E0B61202C0D3
:103D7000E2E0BE2E43E068E08B2D0E94F303C816FC
:103D800018F190E0029680179107F4F08091EF050A
:103D90009091F0050697C1F4A0909C058B2D0E9490
:103DA000A208A394A0929C051092F0051092EF0532
:103DB00043E068E081E00E94F3038E151F0421F4C4
:103DC000809141060E940204B39484E0B812CDCFE2
:103DD00010919C051B50143208F06ACCE12FF0E0E2
:103DE000EC50F14E0C945C2B2528252825282528FD
:103DF000252825282528252825282528252825285B
:103E0000252825282528252825282528252825284A
:103E10002528581B9B289B28C528CE28CE28222938
:103E20003A298A29A629B829B829C229C229CD291F
:103E30001092F0051092EF0581E280939C0580912D
:103E40001C0180931D0181E080931C010E94880465
:103E5000BFCF8091FA05853020F480E00E94A2084F
:103E6000F8CF80914106853020F481E00E94A208BD
:103E7000F8CF80918806853020F482E00E94A20865
:103E8000F8CF8091CF06853020F483E00E94A2080D
:103E9000F8CF8091B807811102C00E948804109267
:103EA000F0051092EF0581E280939C0580911C0142
:103EB00080931D0181E080931C0182EF95E00E94B8
:103EC000870C89E396E00E94870C80E896E00E94C8
:103ED000870C87EC96E00E94870C80E090CEF090F3
:103EE0008B053091DF07A1E0FA1699F1489709F0A8
:103EF0006FCF0F2D10E021E0F31220E0B7E4FB9E1E
:103F0000C001112447EB57E06091B7078E509A4FDC
:103F10000E9489144091B70762E08C3D910530F40E
:103F20008639910540F04091B70761E08F2D0E94DE
:103F3000C61388E2E7CD0F5F1F4F85E0809FF00139
:103F4000819FF00D1124E657F84F12820E9447041A
:103F50003FCF809188058823E9F021E0313009F0D6
:103F600020E047EB57E06091B70789E396E00E94B5
:103F700089149C0190911C012639310588F02C3D53
:103F8000310550F02031374258F490931D0183E001
:103F900080931C0182E2B6CD90931D0182E0F8CFA0
:103FA00090931D0181E0F4CF8034910508F410CF87
:103FB00083E0809391078093960780939B0780937B
:103FC000A0071092B8071092F0051092EF0584E256
:103FD00099CD20918B0538E0AE85BF851D923A952D
:103FE000E9F7F090DF07213009F459C0489709F04C
:103FF000EFCEFE0131965F018F01C12CE0908B0561
:104000008091B7078C1599F01B86C9861A86F7E44C
:10401000EF9EC001112420E0AE01475F5F4F6C2D81
:104020008E509A4F0E948914D8018D939C93C3940B
:104030000E5F1F4FB4E0CB12E1CF4FEF90E080E076
:1040400020E0F501619171915F018617970710F4E7
:10405000422FCB012F5F2430A1F720918A05222324
:1040600059F0FE1009C08C3D910560F062E08E2D84
:104070000E94C61389E246CD8C3D9105B8F786397A
:10408000910510F061E0F3CFF12CFFEFEF1AFF0A7A
:1040900085E08E9DF0018F9DF00D112454CF80910D
:1040A0008805882309F459C09E012F5F3F4F5901AD
:1040B0008901E12C8091B7078E1579F01B86E9867E
:1040C0001A8620E0AE01475F5F4F6E2D89E396E0D0
:1040D0000E948914D8018D939C93E3940E5F1F4F27
:1040E000B4E0EB12E7CF3FEF90E080E020E0F50195
:1040F000419151915F018417950710F4322FCA0145
:104100002F5F2430A1F740918A0520911C014423A0
:1041100031F0F1E0FF1203C086399105A0F0863935
:104120009105B8F08C3D910570F0863B964288F47D
:1041300030931E0120931D0183E080931C01809128
:104140009C058F5FDFCC30931E0120931D0182E020
:10415000F4CF20931D0181E0F0CF9091B7078091BB
:104160001C0180931D0182E080931C0180911E013F
:104170008913E5CF811103C00E94EF00E0CF0E94B8
:10418000D900DDCF07FF0BC080911C019EEF980F77
:10419000923008F01DCE815080931C0119CE04FF8F
:1041A00009C080911C019FEF980F923008F010CE4B
:1041B0008F5FF2CF03FF0CCE80911C019EEF980F12
:1041C000923048F0813009F003CE1092960781E2D8
:1041D00080939C05BBCE0091DF0757E4059F8001CB
:1041E000112467EB77E0C8018E509A4F0E94760841
:1041F000F801EB5EF94F81E082834091B70780912F
:104200001C01823071F0833021F0813021F4198E4D
:1042100002C062E0698F698D81E00E94C61387E267
:1042200071CC81E0898FF7CF2091DF0730918A052B
:10423000332329F0FF24F394213009F4F12C803446
:10424000910508F4C5CD07FF13C080911C018111B1
:1042500005C08091B7070E94EF00BACDFF2021F082
:10426000823008F098CFB4CD833008F4B1CD93CF2D
:1042700004FF0DC080911C01811105C08091B7071A
:104280000E94D900A5CD833008F0A2CD91CF05FFC3
:1042900004C080911C01811111C006FD14C003FFF0
:1042A00097CD80911C019EEF980F9230A8F081303D
:1042B00009F08ECD1092960784E28ACF80931D017B
:1042C00010921C0185CD80911C018111E8CF809155
:1042D0001D0110921D0160CF40911E0161E08330ED
:1042E00009F462E081E0C4CE83709927892B09F03C
:1042F0006FCD8091FA05882309F1EDEEF5E090E0AD
:1043000080E045E03FEF25852150DC01249FA00D92
:10431000B11D1124A450BA4F3C9311961C921197D1
:1043200012961C92258521502587E95BFF4F895BFA
:104330009F4F8C31A1E09A0731F74ACD10920D01C1
:1043400010920C01109215011092140110920F019D
:1043500010920E0110921701109216018AE0D2CB32
:104360001091DF07113009F08CC08091E007833095
:1043700021F480918C07823089F001111DC0809159
:104380008705882309F424CD815080938705811106
:104390001FCD89E396E00E94F4081ACD1092DC0745
:1043A0001092B80780918805811102C00E9404090B
:1043B00089E280939C05E3CF80918705882331F0C3
:1043C0001092870589E396E00E94F408003241F4D8
:1043D00080919B05882399F2815080939B05CFCFD4
:1043E000003459F480919B05209141062150330BF4
:1043F0008217130624F68F5FF0CF003811F00C946B
:10440000092A89E396E00E94F408E0919B05B5E053
:10441000EB9FF0011124ED5BF94F81E08283AFCF78
:10442000E0919B0525E0E29FF0011124ED5BF94F3F
:104430008281882309F4A3CF1282A1CF813009F0B1
:104440009ECF1092DC071092B80710E005E0FF2421
:10445000FA9480914106181708F0A4CF109FF0013C
:104460001124ED5BF94F8281882349F0F08211829B
:10447000128289E396E00E94870C009341061F5F39
:10448000E8CF80918C078230B1F48091E00790E012
:104490000296837099271817190669F41092DC07A1
:1044A0001092B80780918805811102C00E9404090A
:1044B00089E280939C058091EF059091F0058F73C0
:1044C0009927892B09F084CC1092DC071092B80749
:1044D000A12EB12C37E4139F40011124A4014E50AA
:1044E0005A4F7A01C40183519A4F1C01DC01159681
:1044F0000D911C91C8010E944009C82EF7018781C7
:1045000090E09C012D5F3F4F237033272F5F3F4F7B
:1045100045E0429FF001439FF00D1124E00FF11F91
:104520006080FFEF6F1210C001968370992701968B
:10453000489F9001499F300D1124020F131FD8018D
:104540006C906F1201C0612C41E04C0D0C2D10E0FD
:104550000D5F1F4FB7E4BA9DB001BB9D700D1124D4
:1045600066507A4F4017110611F00CF0A4C0E42FEA
:10457000E3707E2EDB018C9190E0F10130E020E0D1
:1045800050E02817390744F4A7857A1201C05F5F0D
:104590002F5F3F4F3596F5CFD10130E020E0412C21
:1045A000281739078CF41F96EC911F977E1208C0CC
:1045B0005096EC915097F0E0EE5BFE4FE0814E0E8E
:1045C0002F5F3F4F1596ECCF513009F072C0BCE021
:1045D000B41508F46EC044244A94C71411F07EE068
:1045E000472E612CE7E4EA9DC001EB9D900D11245C
:1045F00083519A4F5C01FDE0AF0EB11C9C012B5F13
:104600003F4F398B288B55245A94C71010C03BE07C
:1046100063120DC063944614C0F7C7010E94870C53
:1046200080918805811126CD0E94040923CD810146
:10463000912C812CD5018C9188151904A1F19CF144
:10464000F8019785791225C09089961122C0815072
:104650008C93A889B989ED91FC91D80150968C91E1
:10466000509786A71F968C911F9785A750968C917F
:10467000509781AB1F968C911F9780AB1F965C92D1
:104680001F9750961C92509751961C92C7010E94FA
:10469000870C0B5F1F4FF50180818A3021F0FFEFFF
:1046A0008F1A9F0AC7CFD5018C918A3009F0B2CFFB
:1046B000B4CF4F5F57CF77247394862D90E0FC01E1
:1046C0003396F98BE88BF7E4FA9DC001FB9D900DC2
:1046D00011249C0126503A4F3B8B2A8BA401415F49
:1046E0005F4F5D8B4C8B65E0562E09E010E0872D07
:1046F00090E09F8B8E8B402EA62CB12CAE89BF896B
:10470000A00FB11FBB8FAA8FE889F989AE161F06CB
:1047100011F00CF03EC06A2D6370C616C1F1FEE0C8
:10472000F415A8F121E0B21609F47ACFAA89BB8961
:104730004C9150E0F1018B2D30E020E0241735073B
:1047400044F49785691301C08F5F2F5F3F4F359603
:10475000F5CF87111CC04FEFC7010E94CF088F3FD4
:10476000B1F06C897D89859D600D711D11246351A7
:104770007A4FFB01818184110AC02A8D3B8D2F3035
:10478000310529F0C7010E94130EBB24B394A394F2
:10479000BBCF31E0B31609F443CF0F5F1F4F013198
:1047A000110509F0A8CF739446E074129ECFC7019B
:1047B0000E94870C0FEFCC24CA9410E055E0B52E70
:1047C0004FEF612FC7010E94CF088F3F61F0F401C6
:1047D0008B9DE00DF11D1124E450FA4F91819C1541
:1047E00010F4C92E082F1F5F143051F70F3F09F442
:1047F00014CFB40155E0059F600D711D1124645064
:104800007A4FC7010E94130E08CF03FFE1CA00913F
:10481000DF0767E4069F8001112467EB77E0C8019A
:104820008E509A4F0E947608F801EB5EF94F81E0B6
:104830008283F5CC8F739927892B09F0C9CA80919F
:10484000DC078F5F8093DC071092F0051092EF0574
:104850008AE258C94090DE07489719F081E0481273
:10486000B7CA11E0411210E08091E00790E0019694
:1048700045E0642E689EF001699EF00D1124E65714
:10488000F84F5280A42DB0E0B98BA88BB7E44B9EB3
:10489000C0011124FC01EE50FA4F7F018091DD0729
:1048A00048122DC20781802F90E09C012E5F3F4F60
:1048B000A901437055275B8B4A8B5A895E8B4C014B
:1048C00063E0860E911CA3E08A22992401961C01C4
:1048D000B3E02B22332447E428893989429FF00131
:1048E000439FF00D1124E351FA4FCF0105969D8BA4
:1048F0008C8BA580B680C5010E944009C82E689C9B
:10490000F001699CF00D1124EA0DFB1D718C629C75
:10491000F001639CF00D1124EA0DFB1D618CF50183
:10492000EA5AFF4F808191E0591247C1801799F0F0
:10493000AE89A81781F0212F4C2D6C2DC7010E9444
:10494000AB0F882309F4A0C0F1E04F1609F44EC262
:104950000E94530A3DCAF501EE5AFF4F8081813013
:10496000C9F4412F6C2DC7010E948A0F8111ECCF31
:10497000212F4C2D6C2DC7010E940A0F8111E4CF0D
:10498000012F262D472D6C2DC7010E94C90E8111C4
:10499000DBCF65C0682DC5010E945D0B082F622D1D
:1049A000C5010E945D0B982E6A89C5010E945D0BAE
:1049B000B82E011102C09920B9F0212F4C2D6C2D79
:1049C000C7010E94AB0F8111BFCFBB2051F24AE05B
:1049D0006C2DC7010E94CF088F3F19F2412F682F1D
:1049E000C7010E944F0EB0CF412F6C2DC7010E940E
:1049F0008A0F8111A9CF212F4C2D6C2DC7010E9448
:104A00000A0F8111A1CF012F262D472D6C2DC70133
:104A10000E94C90E811198CFBB2039F04AE06C2D5D
:104A2000C7010E94CF088F3FC9F600E027E4E8895C
:104A3000F9892E9FC0012F9F900D1124AC014E507B
:104A40005A4F5A014E89602FD5018D919C910E9439
:104A50001D0B8150823080F00F5F043099F7412F99
:104A60006C2DC7010E94C00F81116ECF412F6C2D9C
:104A7000C7010E94F90F68CF412F602FC7010E9424
:104A8000F90F882349F360CFB12CA12C220C331CE1
:104A9000220C331C3401660C771C660C771C4A2DE3
:104AA000AC89BD89ED91FC91DF01A20DB31DAA0D6A
:104AB000BB1DAE5BBF4F8C91E60DF71DEA0DFB1DD4
:104AC000EE5BFF4F9081911155C0811153C0BFEF34
:104AD000AB1ABB0AE4E0AE16B10409F7B12CA12C65
:104AE00047E428893989429FC001439F900D1124D2
:104AF000DC01AE50BA4F4D01F40180819181FC017F
:104B0000E20DF31DEA0DFB1DEE5BFF4F2081FC0162
:104B1000E60DF71DEA0DFB1DEE5BFF4F808188233C
:104B200091F1FFEFAF1ABF0A24E0A216B10421F7FA
:104B300067E448895989649FF001659FF00D11244D
:104B4000E351FA4F858196812A893B892F5F3F4F38
:104B500045E0429FF001439FF00D1124E80FF91F3B
:104B600000810F3FD9F4212F4C2D6C2DC7010E94DD
:104B70000A0F0DCF212F6C2DC7010E94AB0F882388
:104B800009F4A5CFE1CE2111CCCF212F4A2D6C2DD8
:104B9000C7010E94AB0F882321F2D6CE4A89602F2D
:104BA0000E941D0B81508230F0F6412F602FC7010B
:104BB0000E94F90F8823B9F2C7CE801709F464C0A8
:104BC0009E89981709F460C0212F4C2D6C2DC701C8
:104BD0000E94AB0F8111B8CEB12CA12C6C887D88BE
:104BE000D401AA0FBB1FAA0FBB1FBB8BAA8B41010D
:104BF000880C991C880C991C4A2DD301ED91FC91CD
:104C0000AA89BB89AE0FBF1FAA0DBB1DAE5BBF4FEC
:104C10008C91811157C0E80DF91DEA0DFB1DEE5B6B
:104C2000FF4F808181114EC0BFEFAB1ABB0AE4E099
:104C3000AE16B10409F7B12CA12C47E428893989B3
:104C4000429FC001439F900D1124DC01AE50BA4F2A
:104C50004D013101660C771C660C771CF4018081D4
:104C60009181EA89FB89E80FF91FEA0DFB1DEE5BD4
:104C7000FF4F2081222379F1FFEFAF1ABF0A24E012
:104C8000A216B10459F76FCFF501EE5AFF4F80819C
:104C9000813009F466CE682DC5010E945D0B082F96
:104CA000622DC5010E945D0B011103C0882309F428
:104CB00058CE212F4C2D6C2DC7010E94AB0F8111B6
:104CC00043CE4FCE212F6C2DC7010E94AB0F8823FE
:104CD00009F4AACF39CEFC01E60DF71DEA0DFB1D44
:104CE000EE5BFF4F80818111C7CF212F4A2D6C2DA4
:104CF000C7010E94AB0F882309F4BECF25CE31E057
:104D0000531205C0612FCF010E940F101DCE67E422
:104D100048895989649FF001659FF00D1124E35182
:104D2000FA4FA580B680C5010E944009082F682F60
:104D3000C5010E942209DC0111969C90C5010E94C8
:104D4000030B882399F0212F402F602FC7010E9469
:104D5000AB0F8111F9CD212F492D602FC7010E9482
:104D6000AB0E8111F1CD412F602F19C0F501ED5A25
:104D7000FF4F8081F501869DE00DF11D1124C18C4E
:104D8000C5010E9456098823A9F0212F492D602FC3
:104D9000C7010E94AB0E412F6C2D8111D5CDC701EB
:104DA0000E94F90F8111D0CD412F602FC7010E94C1
:104DB000C00FCACD6C2DC5010E94BD0A5C01212F18
:104DC0004C2D602FC7010E94AB0F8111BDCD212F4B
:104DD000F50141816C2DC7010E94AB0E8111B4CD4C
:104DE000412F6C2DC7010E94F90FBBCF8091880520
:104DF0008823E1F089E396E00E94F408909141064F
:104E000020913B0630913C06E3E4F6E080E0981701
:104E100069F04081421303C04181431719F08F5F4D
:104E20003596F5CF91E0928380939B058BE20C94AD
:104E3000821D0032C1F4E0919B05EE2311F40C9425
:104E4000E81E1FEF1E0F10939B0589E396E00E945A
:104E5000F40825E0129FF0011124ED5BF94F81E089
:104E600082830C94E81E003401F5E0919B05A0912B
:104E7000DE0737E4A39FD0011124AE50BA4F189635
:104E80008C918150990BE817190614F00C94E81EC8
:104E900011E01E0F10939B0589E396E00E94F40831
:104EA00045E0149FF0011124D8CF083011F00C9484
:104EB000E81EF0909B050091DE0757E4059F8001F6
:104EC000112485E0D801F89EA00DB11D1124A45035
:104ED000BA4F12969C911297992311F40C94E81EE4
:104EE000E091DD07E89FF0011124ED55F84F608156
:104EF0000E501A4F8C91681731F0C8010E94E508D6
:104F000081110C94E81E40E06F2DC8010E944F0EE5
:104F10001FCD8091DC07853009F04BC08091E00700
:104F20008823B9F18230A9F10091BD078091BF07B4
:104F3000080F11E0802F0E940501982F811132C0C7
:104F4000033070F1053081F1E12FF0E07B96EE0F38
:104F5000FF1FE657F84F20813181280F311D318323
:104F60002083E1E01E27E12FF0E07B96EE0FFF1F8C
:104F7000E657F84F20813181290F311D243F61E030
:104F80003607A4F08AEE91E0918380838DE20C9441
:104F9000821D0091BC078091BE07080F10E0CACFA8
:104FA00092E0D2CF90E0D0CF94E0CECF3183208377
:104FB000EDCF03FD02C00C94E81E8FEF8093A30792
:104FC0001092A4071092A5078093A8071092A90732
:104FD0001092AA078093AD071092AE071092AF0708
:104FE0008093B2071092B3071092B40743C8809120
:104FF000C0079091C1070A9754F48091C20790911D
:10500000C3070A9724F403FDA9C90C94E81E8EE295
:1050100080939C05109289050C94E81E285731094D
:105020002F33310528F4809189058F5F809389059E
:1050300003FD02C00C94E81E809189058D3310F4A5
:105040000C94E81E85E00C94821D60E08D2D0E947A
:10505000ED118D2D0E9489138D2D0E94530861E062
:105060008D2D0E947614A0900C01B0900D018091BE
:105070001401909115018A159B0514F00C94581B8E
:10508000E0900E01F0900F018091160190911701B0
:10509000E816F90614F00C94581B42E060E081E039
:1050A0000E94F303181730F090E0019618171906C4
:1050B00091F08CF043E068E081E00E94F303181760
:1050C00010F40C94581B90E002961817190619F06A
:1050D00014F00C94581B809118019091190197FDC0
:1050E0000F96A4E095958795AA95E1F764E20E9452
:1050F000282B0D2D10E0A3E09A9F000D111D112407
:10510000F7FE03C0BFE0EB0EF11CF4E0F594E7946A
:10511000FA95E1F7B70164507109C501B7FC0F9624
:10512000E4E095958795EA95E1F720E839E443E0D6
:1051300005970C94C31B8D2D0E94891360E08D2D63
:105140000E94ED1160E08D2D0E94761480918B05F8
:105150008130B1F400911C01802F90E08C01000F90
:10516000111F080F191F0D0D111D0350110924ECFB
:1051700030EC43E06FE070E08CE290E00E94FB06D0
:105180008D2D0E9449070C94581B60E08D2D0E94C4
:10519000ED1160E08D2D0E947614F2CF8091DF0733
:1051A00090918A05992329F0E1E0E88F813009F494
:1051B000188E8D2D0E94891360E08D2D0E94ED11B7
:1051C00060E08D2D0E94761480918B058130C1F6B0
:1051D00000911C01802F90E08C01000F111F080F1F
:1051E000191FF88D90E080E0F11102C08CE090E092
:1051F000ED2CF12C080F191F0E0D1F1D28E238ECA5
:1052000043E06FE070E08DE190E00E94FB0680914A
:105210001C0100911E0110E0811111C0C801880F0E
:10522000991F080F191F0E0D1F1D2AE233EE43E0D0
:1052300067E170E082E290E00E940B06A1CF0C5F74
:105240001F4FECCF0D2D10E02CE03BE845E063E173
:1052500070E082E290E00E940B0660E08D2D0E94DB
:10526000ED118D2D0E94490760E08D2D0E9476146E
:105270000C94581B8091DF07813089F58091E007FD
:10528000833021F480918C07823059F00D2D10E08D
:105290002CEE3BE845E06FE070E085E190E00E9495
:1052A0000B0661E08D2D0E94ED118D2D0E94BF092E
:1052B0008D2D0E9449078091DF078230A9F083304D
:1052C000F1F081110C94581B0D2D10E024E631EF04
:1052D00043E06DE070E08CE590E00C94C31B8D2DF5
:1052E0000E94530860E0DECF0D2D10E02AEB30EF76
:1052F00043E06EE070E086E090E00C94C31B0D2D5F
:1053000010E022E73FEE43E066E070E089E290E0E3
:105310000C94C31B8D2D0E94891360E08D2D0E947B
:10532000ED1160E08D2D0E9476148091E0070D2D27
:1053300010E023E0829F000D111D112424E034EEC3
:1053400043E06EE070E08CE290E076CF60E08D2D7F
:105350000E94ED1140E06FEF8D2D0E94E2128D2D25
:105360000E94BF098091DC0781110C94581B08CF63
:1053700060E08D2D0E94ED1140E06FEF8D2D0E94B9
:10538000E2123CC060E08D2D0E94ED118AE897E0AA
:105390000E946E0940E0682FF1CF1091890511231A
:1053A000A9F3412F6FEF8D2D0E94E2128091EF053E
:1053B0009091F0056CE870E00E94342B80349105E8
:1053C00010F5969587952D2D30E0A90163E0869F15
:1053D000400D511D1124A12FA753BB0BBD012091DE
:1053E000C2073091C3078A012A30310574F027E2E1
:1053F0003EEB45E080E190E00E940B068D2D0E947F
:10540000BF090C94581B80E0DECF29EE36E646E05B
:10541000F1CF003111F40C941022083011F00C94EB
:10542000BF2120914106E5E4F6E090E080E02917F5
:1054300011F40C941E22308131118F5F9F5F3596DD
:10544000F6CF8F929F92AF92BF92CF92DF92EF9260
:10545000FF92CF93DF93EC01688179818A819B81F0
:10546000611571058105910521F464E279ED8BE503
:1054700097E02DE133EF41E050E00E94C52A490159
:105480005A019B01AC01A7EAB1E40E94E42A6B0136
:105490007C01ACEEB4EFA50194010E94F22AC60E85
:1054A000D71EE81EF91EF7FE06C081E0C81AD10813
:1054B000E10880E8F80AC882D982EA82FB82C70143
:1054C000B6019F77DF91CF91FF90EF90DF90CF9063
:1054D000BF90AF909F908F9008958F929F92AF92C0
:1054E000BF92CF92DF92EF92FF9260911F01709175
:1054F00020018091210190912201611571058105A2
:10550000910521F464E279ED8BE597E02DE133EF2D
:1055100041E050E00E94C52A49015A019B01AC01BB
:10552000A7EAB1E40E94E42A6B017C01ACEEB4EF7F
:10553000A50194010E94F22AC60ED71EE81EF91E8C
:10554000F7FE06C081E0C81AD108E10880E8F80A31
:10555000C0921F01D0922001E0922101F09222011D
:10556000C701B6019F77FF90EF90DF90CF90BF907B
:10557000AF909F908F90089560931F0170932001CA
:1055800080932101909322010895052E97FB1EF42C
:1055900000940E94DC2A57FD07D00E94F72A07FCDE
:1055A00003D04EF40C94DC2A50954095309521950B
:1055B0003F4F4F4F5F4F089590958095709561953F
:1055C0007F4F8F4F9F4F08950E94192BA59F900DDD
:1055D000B49F900DA49F800D911D11240895B7FFD5
:1055E0000C94E42A0E94E42A821B930B0895A1E202
:1055F0001A2EAA1BBB1BFD010DC0AA1FBB1FEE1F4D
:10560000FF1FA217B307E407F50720F0A21BB30B97
:10561000E40BF50B661F771F881F991F1A9469F713
:1056200060957095809590959B01AC01BD01CF016F
:105630000895A29FB001B39FC001A39F700D811D6B
:105640001124911DB29F700D811D1124911D08958B
:10565000991B79E004C0991F961708F0961B881FC4
:105660007A95C9F780950895AA1BBB1B51E107C025
:10567000AA1FBB1FA617B70710F0A61BB70B881FE2
:10568000991F5A95A9F780959095BC01CD01089571
:1056900097FB072E16F4009407D077FD09D00E94DF
:1056A000342B07FC05D03EF4909581959F4F0895CB
:1056B000709561957F4F0895EE0FFF1F0590F4914F
:0856C000E02D0994F894FFCFDE
:1056C800FFFFFFFF00E100000000000000000000F5
:1056D80000000000000000000000B001010100010E
:1056E80000000000020103FF00030000FF000300A8
:1056F80000FF00030000FF0003000000C1808100DC
:105708000000000102030405060708090A0B0C0D36
:105718000E000000004402080365025A02AB026949
:0457280002870200F2
:00000001FF
