:100000000C94AD000C94D5000C94D5000C94D50044
:100010000C94D5000C94D5000C94D5000C94D5000C
:100020000C94D5000C94D5000C9478070C94E70739
:100030000C94D5000C94D5000C94D5000C94D500EC
:100040000C94D5000C94630A0C94D5000C94D50044
:100050000C94D5000C94D5000C94D5000C94190A7E
:100060000C94D5000C94D5000C94D5000C94D500BC
:100070000C94D5000C94D5000C94D5000C94D500AC
:100080000C94D5000C94D5000C94D5000C94D5009C
:100090000C94D5000C94D5000C94D5000C94D5008C
:1000A0000C94D5000C94D5000C94D500D5F08D148B
:1000B000A1C881CFD9F1AF2000DB20C0A0D9218118
:1000C000FFA800A800A83FDCE2E8F0F4FA0004086A
:1000D0000C1014181C201C1916151516191C201D9F
:1000E0001B1A1A1B1C201E1D1E201F20080B00029D
:1000F00002020000090400000102020000052400C1
:100100001001052401010104240206052406000152
:100110000705810310004009040100020A000000E5
:1001200007050202400000070583024000000403A7
:10013000090412010002EF02014041233680000150
:100140000102030141726475696E6F204C4C4300DB
:1001500041726475626F7900970A11241FBECFEF58
:10016000DAE0DEBFCDBF11E0A0E0B1E0E8E6FCE2FE
:1001700002C005900D92AA32B107D9F726E0AAE293
:10018000B1E001C01D92A733B207E1F710E0CDEA5C
:10019000D0E004C02197FE010E942C16CC3AD10772
:1001A000C9F70E94BB0A0C9432160C940000DC01C3
:1001B000909136069C32D4F4E92FEE0FFF0BEE54EB
:1001C000FA4F292F3297121634F444A555A557A794
:1001D00046A72150F7CF11968C9111978093DF0598
:1001E0008C918093DE059F5F90933606089581E0A1
:1001F0009091BF05911101C080E09091C1059111CE
:100200008F5F9091C30591118F5F9091C5059111FA
:100210008F5F08958091DD059091BD05992329F0A8
:100220009091C905981708F4892F0895FC018091D1
:100230006105882311F13FB7F89482E08093E900CB
:100240002091F200822F90E01816190614F481E034
:1002500090E0882339F0289844E640936005409167
:10026000F1004083222339F02091F200211103C0D4
:100270002BE62093E8003FBF08958FEF9FEF08958E
:100280002FB7F89483E08093E9009091E800892FDC
:10029000807295FF04C09091F20080E4891B2FBF0B
:1002A00008958091580581110DC082E08093540516
:1002B00084E080935505109257051092560581E011
:1002C0008093580584E595E00895CF93DF931F92BE
:1002D000CDB7DEB76983DC01ED91FC910280F3813B
:1002E000E02D41E050E0BE016F5F7F4F09950F9018
:1002F000DF91CF91089583E08093E9008091F2002F
:10030000882319F08AE38093E80008950E94400151
:1003100090E00895CF93DF931F92CDB7DEB7FC0135
:100320008485958597FD08C02FEF3FEF358724879B
:100330000F90DF91CF910895CE0101960E94160192
:10034000019719F4898190E0F3CF8FEF9FEFF0CF01
:100350000F931F93CF93DF931F92CDB7DEB78C011E
:10036000FC018485958597FF0BC0CE0101960E9404
:100370001601019771F4898190E0F80195878487CF
:10038000F801848595850F90DF91CF911F910F9192
:1003900008958FEF9FEFF1CFFC018485958597FD40
:1003A0000BC09FB7F89482E08093E9008091F2003F
:1003B0009FBF90E0019608959FB7F89482E08093E4
:1003C000E9008091F2009FBF90E0089540914E05B2
:1003D00050914F0520914C0530914D054217530720
:1003E000B4F49091E8009570E1F39091E80092FDEB
:1003F00019C08093F10080914E0590914F050196B0
:100400008F739927892B19F48EEF8093E8008091E0
:100410004E0590914F05019690934F0580934E05A0
:1004200081E0089580E00895EF92FF920F931F936B
:10043000CF93DF93F82E192FE62E042F81E0860F3D
:10044000880F0E94E60183E00E94E601CF2DD12FA4
:10045000EC0EFD2EF11CCE15DF05B9F007FF13C021
:10046000FE0184910E94E601182F80E00E94E601BF
:10047000812321968111EFCFDF91CF911F910F91B1
:10048000FF90EF9008958881EDCF81E0F5CFDF9266
:10049000EF92FF920F931F93CF93DF93D82E8A0191
:1004A000EB017B01E40EF51ECE15DF0559F0D7FEFA
:1004B00012C0FE0184910E94E60121968111F4CFC1
:1004C0000FEF1FEFC801DF91CF911F910F91FF90A8
:1004D000EF90DF9008958881EECF0F931F93CF9315
:1004E000DF931F92CDB7DEB782E0898342E450E00C
:1004F0006CEE70E080E80E9447020E945101DC012E
:1005000012960D911C910115110589F0D801ED91FC
:10051000FC910280F381E02DBE016F5F7F4FC80127
:10052000099597FD04C0F80100851185ECCF8981FC
:100530000F90DF91CF911F910F910895615030F08E
:100540002091F100FC0120830196F8CF289884E6E1
:100550008093600508950DB407FEFDCF8EB5729AA5
:1005600008950DB407FEFDCF8EB51EBC0895729898
:100570000E94CF02862F0E94CF02852F0E94CF02B9
:10058000842F0C94CF02462F50913E01570F60915B
:100590003F01681F83E00E94B7021EBC08958EBD14
:1005A00000008EB50DB407FEFCCF0895FC010E943B
:1005B0007103319728F068517C4F8F4F9F4FF9CFCF
:1005C000AB01FC010E947103641775078E079F073A
:1005D000C8F3089585E090E00C94D6028F929F9224
:1005E000AF92BF92CF92DF92EF92FF920F931F9341
:1005F000CF93DF936C017B018A0180910B018823EB
:1006000009F45AC080916105882309F455C080918E
:10061000530580FF05C08091E00082608093E00078
:10062000E801B12C8AEFA82E93E0892E2AE3922EBE
:10063000209711F4BB20C9F10E944001811108C02C
:10064000AA94AA20C9F181E090E00E94D602F0CFDE
:100650008C171D0611F00CF08C2F9FB7F894809228
:10066000E9002091E80025FD02C09FBFE1CF282FBF
:1006700030E0C21BD30BF701815020F04191409331
:10068000F100FACFE20EF31EBB2021F09092E800B9
:10069000B12CEBCF8091E80085FDE7CF9092E80088
:1006A000BB24B394209709F3F3CF5D9884E680933D
:1006B0005205101611063CF081E090E0F60193839C
:1006C000828310E000E0C801DF91CF911F910F916C
:1006D000FF90EF90DF90CF90BF90AF909F908F9062
:1006E0000895A8E3B1E02FB7F8947D918D919C9186
:1006F00066B52FBFA89B05C06F3F18F47F5F8F4F73
:100700009F4F22E0660F771F881F991F2A95D1F708
:10071000089530E73CBDDC0130E8439FC00111245F
:10072000A80FB91F5E91352F6111372F3C93C895E3
:1007300000C052235EBD0197A9F704D003D030E575
:100740000DB43CBD089580914005882329F0815067
:100750008093400581E0089580E0089580914505EB
:10076000809331019FB19095907F669B98601C9B10
:100770009460909345058095892308958091BF05E5
:10078000882321F081E08093BA0508958091C10506
:10079000882311F082E0F7CF8091C305882311F000
:1007A00083E0F1CF8091C505882379F384E0EBCF16
:1007B0003F924F925F926F927F928F929F92AF92F1
:1007C000BF92CF92DF92EF92FF920F931F93CF933E
:1007D000DF9300D01F92CDB7DEB73A01862EA0E49A
:1007E000B1E0B701E02FDD24382E969596959695C9
:1007F00031E061FD34E060FD330F62FD32955FEF63
:10080000539F7001E094F094759567957595679581
:1008100075956795462F4F3F4CF44095941B20FDEE
:10082000440F489F600C711C8D1C4FEF17FF0BC0CD
:10083000300E20FF02C0000F111F601A710A8D08D0
:1008400017FD8394EE2750E845030E0EA00DB11D51
:100850005E1B351608F0352E57E0541B591714F45B
:10086000952FD39450E85319482E552421FD02C0EA
:100870004318550820FF02C0440C551C11245B820C
:100880004A82932E00903E01700C00903F01801C24
:1008900019C0729833E03EBD640C751C811CAA24FB
:1008A000831509F0A3940CD08EBC07D07EBC05D074
:1008B0006EBC03D01EBC03D00895C8950000C89537
:1008C000C8950895641875088108E3DF41151CF088
:1008D000992371F564C0A058BF4FC32C20FD0CC0F4
:1008E0006EB51EBC699DBC90BF20B128BD92C89555
:1008F00000C0CA94A9F711C06EB51EBC699DB001B5
:10090000DEDFEEB41EBCE99C7001BC90F094BF2009
:10091000B72ABD92C895CA9479F71124A319B109D1
:100920009A9509F45CC0AA2019F00DB4729AB1DF4F
:10093000FD01E058FF4FC32C20FD0EC06EB51EBC5C
:10094000699DBC90BE20B028BD92B080BF20B12868
:10095000B192CA9499F716C06EB51EBC699DB001DC
:10096000BC90F080AEDF00C0EEB41EBCE99C0094E9
:10097000B020B62ABD921094F120F72AF19200001F
:10098000CA9451F71124A50FB11D9A9561F6DD2087
:1009900031F1AA2021F00DB4729A7BDFC89520FDB9
:1009A0000CC06EB51EBC699DBC90BE20B028BD9227
:1009B000C89500C03A94A9F712C06EB51EBC699DD7
:1009C000B0017DDF9EB51EBC999D902DBC90909589
:1009D000B922B62ABD92C8953A9479F7C8951124E0
:1009E000729A0DB40F900F900F90DF91CF911F91DD
:1009F0000F91FF90EF90DF90CF90BF90AF909F90BE
:100A00008F907F906F905F904F903F9008956F927E
:100A10007F928F92AF92CF92DF92EF92FF920F93DD
:100A20001F93DC01922F2A2DF92FE42F3701802EFE
:100A3000C114D104A1F0969596959695A0FC990FB6
:100A4000949F7001ED9C700C811CFC9C700C811CAF
:100A5000FD9C800CEC9C600C711C1124811C7B01A2
:100A60008D01682DA301CF010E94D8031F910F9122
:100A7000FF90EF90DF90CF90AF908F907F906F902E
:100A800008954F925F926F927F928F92AF92BF9232
:100A9000CF92DF92EF92FF920F931F93CF93DF934A
:100AA000EC012B013901842E842FB9010E94C3026D
:100AB0000E94B102B82E0E94AB02C038D105F4F4F6
:100AC00090E449165104D4F49E012B0D311D232BC3
:100AD000A9F09201280F311D121613067CF492E042
:100AE000690E711C811C93E0A92E6801082D730109
:100AF000282F4B2DB201CE010E940705DF91CF9127
:100B00001F910F91FF90EF90DF90CF90BF90AF902B
:100B10008F907F906F905F904F9008954F925F926B
:100B20006F927F928F92AF92BF92CF92DF92EF92AD
:100B3000FF920F931F93CF93DF93EC012B013901A9
:100B4000842E842FB9010E94C3020E94B102B82EE4
:100B50000E94AB029E012B0D311D232BA1F09201AF
:100B6000280F311D232B79F092E0690E711C811C36
:100B700092E0A92E6801082D7301282F4B2DB20198
:100B8000CE010E940705DF91CF911F910F91FF9039
:100B9000EF90DF90CF90BF90AF908F907F906F904D
:100BA0005F904F900895FF920F931F93CF93DF9321
:100BB000C82FD0E08E012AE732E243E070E060E027
:100BC00087E690E00E948E058091360633E0F32E92
:100BD0008F9D000D111D11242AE33FE543E060E1E4
:100BE00070E080E790E00E9441058091BC058E0195
:100BF0008F9D000D111D11242AE33FE543E063E2C0
:100C000070E080E790E00E9441050E940A018E0199
:100C10008F9D000D111D11242AE33FE543E066E39B
:100C200070E080E790E00E944105809136068E01D9
:100C300026EB3DE142E0811103C021E53EE142E0C7
:100C400068E070E090E080E00E948E058091BA0537
:100C5000811108C08091B5059091B6058F739927D1
:100C60008097F0F40091B805011109C00E94F700C7
:100C700001E0843020F080913606811100E010E020
:100C8000C801880F991F080F191F0C0F1D1F2EED8B
:100C900037EA43E065E370E081E090E00E948E0572
:100CA000DF91CF911F910F91FF900895FC0120815A
:100CB00081818250990BFDE02F9F800D911D1124A1
:100CC000982F990F890F08956F927F928F929F921C
:100CD000AF92BF92CF92DF92EF92FF920F931F934A
:100CE000CF93DF93F82E762E642E2EEBC22E25E0C6
:100CF000D22ED0E0C0E0882E912C32E1E32E8091FC
:100D0000BA05282F2150330B5901F601818161105A
:100D10001DC0882399F12C173D0749F48091B50532
:100D20009091B6058F739927809708F094C0C601FB
:100D30000E9456068401080F111DEC9EC001ED9E15
:100D4000900D112422E13AE941E013C08823B1F06B
:100D5000C6010E9456068401080F111DEC9EC001B9
:100D6000ED9E900D112424EE3BED41E0AC16BD0646
:100D700049F367E070E048960E9441052196F2E051
:100D8000CF0ED11CC430D10509F0B9CF8AEDC82EE1
:100D900085E0D82E96E0A92EB12CC9E08F2C912C9D
:100DA000F601D181DD23F1F0C6010E9456068401CF
:100DB000080F111D24EE3BED41E067E270E0C50134
:100DC000C1110EC00E940A0122E13AE941E08D17EB
:100DD00019F024EE3BED41E067E270E08EE490E034
:100DE0000E944105C150F8E0AF0EB11C22E0C21ACA
:100DF000D108CF3FA9F68091DD058823E9F0C091A5
:100E0000C9058CED95E00E945606EF2DE80FFF27EF
:100E1000FF1F8F01CC2339F00E940A0124EE3BED25
:100E200041E08C1719F022E13AE941E067E270E015
:100E300088E190E00E944105DF91CF911F910F91D1
:100E4000FF90EF90DF90CF90BF90AF909F908F90EA
:100E50007F906F900895711091CF69CF5C98FC01DD
:100E60002591CF012EBD00000DB407FEFDCF6150CE
:100E7000B1F75C9A08950F931F93CF93DF938091FE
:100E800064008E7F8093640080917A0080648093F8
:100E90007A0080917A0086FDFCCFC0917800D091D5
:100EA00079000E947103AB01BC01CE01B0E0A0E06B
:100EB000DC01992788278C019D01040F151F261F2F
:100EC000371FC901B801209164002160209364009C
:100ED000611571058105910531F0DF91CF911F9169
:100EE0000F910C949815DF91CF911F910F91089558
:100EF0001F920F920FB60F9211248F939F938091A0
:100F0000E1009091E100937F9093E10083FF0FC097
:100F10001092E90091E09093EB001092EC0092E3C4
:100F20009093ED001092610598E09093F00082FF9D
:100F300022C093E09093E9009091F200992319F078
:100F40009AE39093E80090915205992341F0909193
:100F50005205915090935205911101C05D9A909164
:100F60006005992341F09091600591509093600540
:100F7000911101C0289A84FF18C08091E2008E7EF2
:100F800081608093E2008091E1008F7E8093E10098
:100F9000809153058E7E8061809353059F918F9140
:100FA0000F900FBE0F901F90189580FFF7CF809184
:100FB000E2008E7E80618093E2008091E1008E7E6F
:100FC0008093E100809153058E7E8160E5CF1F9272
:100FD0000F920FB60F921124CF92DF92EF92FF92F1
:100FE0000F931F932F933F934F935F936F937F9331
:100FF0008F939F93AF93BF93EF93FF93CF93DF9321
:10100000CDB7DEB76C97DEBFCDBF1092E9008091FF
:10101000E80083FF25C068E0CE0145960E949E024D
:1010200082EF8093E8008D8987FF39C09091E800B6
:1010300090FFFCCF982F907609F034C19E894F899C
:10104000588D2F89F88C911131C0803861F58091CD
:1010500051058093F1001092F1008EEF8093E8002B
:101060006C960FB6F894DEBF0FBECDBFDF91CF9167
:10107000FF91EF91BF91AF919F918F917F916F9170
:101080005F914F913F912F911F910F91FF90EF90A2
:10109000DF90CF900F900FBE0F901F9018959EEF8E
:1010A0009093E800C7CF1092F100D5CF913059F45A
:1010B0008111D3CF4130510581F6809151058D7F4B
:1010C00080935105CACF933049F48111C6CF413086
:1010D000510519F6809151058260F2CF953041F4A7
:1010E0008091E80080FFFCCF20682093E300B5CF1B
:1010F000963009F0A9C00B8D1C8D22E01092E900FA
:1011000010924F0510924E05F2122EC010924D050E
:1011100010924C050E946D021F8299E09983FA8219
:1011200091E09E8390EA98879AEF998720914E05E7
:1011300030914F05275F3F4F3C832B838D83109267
:10114000E90010924F0510924E0510934D05009343
:101150004C0549E050E0BE016F5F7F4F80E00E9488
:1011600047020E946D0279CF10934D0500934C0504
:101170000E945101DC0112960D911C91011511057F
:1011800009F451C1D801ED91FC910480F581E02D65
:10119000BE016B5E7F4FC8010995009709F03EC103
:1011A000F80100851185EACFF3E0FF120EC08F89A8
:1011B000882309F440C0823061F440E867E080E5AC
:1011C00091E00E941402811148CF81E28093EB00EC
:1011D00047CF813029F440E86BE084E491E0F1CF1F
:1011E000833099F70E945101DC011296ED90FC903A
:1011F0008E010F5F1F4F6801E114F10479F0D701F0
:10120000ED91FC910680F781E02DB801C7010995A9
:10121000080F111DF701E084F184EECFD8011C9274
:10122000F60101900020E9F73197BF016C197D09A3
:1012300040E0C601C6CF6EE271E0FB01449150E090
:1012400080E80E94470209CF973009F4BECF98305A
:1012500021F481E08093F10000CF993009F0FDCEB8
:10126000837009F0B2CFE1E1F1E081E031E096E393
:101270002191222371F08093E9003093EB00DF018C
:1012800011972C912093EC009093ED008F5F8730A5
:1012900079F78EE78093EA001092EA008F898093B5
:1012A0006105DBCE8B8D9C8D1092E90010924F056D
:1012B00010924E0590934D0580934C05898D8111B8
:1012C00092C08E899D89913A49F4813209F07DCF8F
:1012D00047E050E064E071E080E0B3CF913209F084
:1012E00074CF833269F48F89988DB0E0A0E0809349
:1012F000000190930101A0930201B0930301ADCED0
:10130000803269F48091E80082FFFCCF67E084E0DE
:1013100091E00E949E028BEF8093E8009ECE823285
:1013200009F09BCE8F8980930B01EEEFFFE785914B
:1013300094918B3F9C4D51F1E0E0F8E080910401E5
:1013400090910501A0910601B0910701803B944066
:10135000A105B105F1F480910B0180FD1AC0EE3FAB
:101360008AE0F80789F587E797E791838083809182
:1013700060008093500588E19BE00FB6F894A89533
:10138000809360000FBE9093600067CEEEEFFAE0AE
:10139000D5CF808191818737974709F05ECEA89598
:1013A00080916000886180936000809150058093F7
:1013B0006000EE3F2AE0F20789F08091FE0A9091EA
:1013C000FF0A9183808349CE808191818737980776
:1013D00051F29093FF0A8093FE0AC5CF1092FF0A44
:1013E0001092FE0A3ACE0E945101DC0112960D9134
:1013F0001C910115110509F4E8CED801ED91FC917D
:101400000190F081E02DBE016B5E7F4FC801099510
:10141000811123CEF80100851185EBCF181619062E
:101420000CF41BCED2CEF1E0FF12BECE62E371E02F
:1014300004CF0F920FB68F939F93EF93FF938091FA
:1014400033018D5F8D3708F08D5780933301E4E3CE
:10145000F1E080818E4F808391819F4F91838281C3
:101460008F4F828383818F4F8383E8E3F1E0808114
:101470008F5F808381818F4F818382818F4F8283B1
:1014800083818F4F83838FB18F6066991C9B8827E0
:101490008F3681F480913201981B963068F0E0E03D
:1014A000F8E087E78083818388E180936000F09390
:1014B0006000FFCF90933201FF91EF919F918F9148
:1014C0000FBE0F9018951F920F920FB60F92112416
:1014D0008F939F9382E496E0909389008093880095
:1014E00081E0809341059F918F910F900FBE0F90E7
:1014F0001F901895E091BA05E150F0E0EE0FFF1F44
:10150000E254FA4F91818091C905882349F09817D8
:1015100058F481E08093460582E180934B0508955D
:101520008091DD058111F5CF10924605F5CFE2E6F9
:10153000F5E01382128288EE93E0A0E0B0E08483AD
:101540009583A683B7838BE191E0918380838FEFAE
:101550009FEF95878487E2EBF5E01082128211827B
:101560001482138215821682178281E08087118689
:10157000109236060895CDB7DEB72897DEBFCDBFEF
:10158000789483E084BD83E085BD81E080936E0024
:10159000E1E8F0E083E08083E0E881E08083E1E956
:1015A00083E08083E0E981E08083E1EC87E0808371
:1015B000E3EC81E08083E0EC82E08083E2EC81E098
:1015C0008083EAE787E080838068808310926105EA
:1015D00010925105109253058091D700816080933D
:1015E000D70080EA8093D80089B5806189BD89B52C
:1015F000826089BD09B400FEFDCF81E090E00E94C9
:10160000D6028091D8008F7C80618093D800809131
:10161000E000807F8093E0008091E1008E7E8093E7
:10162000E1008DE08093E200559A209A81EC80934E
:101630007C0081EF85B987EE84B984E38BB984EFB0
:101640008AB9769A6E9880EF81BB10BA80E58CBD1E
:1016500081E08DBD0E94EA025F9A0E94EA025C98D6
:10166000ECEAF0E085918EBD00000DB407FEFDCFE1
:10167000E93BC1F75C9A81E88093640081E0809344
:10168000650062E089EB90E00E942E0768E08BEB3A
:1016900090E00E942E079FB7F89422E436E0309342
:1016A00089002093880083E0809380008BE1809301
:1016B0008100109285001092840080916F008260FA
:1016C00080936F009FBF5E9AE4E1F0E081E99BEFB9
:1016D00060EF7FEF2591359155914591285135491E
:1016E00009F4CA0180933E0190933F012591359101
:1016F000559145912851354909F4BA0160933C014F
:1017000070933D0172988BEA0E94CF02729A1092F8
:10171000B6051092B5050E943B0756E0252E312CE8
:101720005E98F89480914105811109C083B781606A
:1017300083BF7894889583B78E7F83BFF2CF109252
:101740004105789410914A052FE741E050E061E0AF
:1017500070E080EC94E00E94890362E085EC90E008
:101760000E942E072FEF47E051E061E070E080E437
:1017700091E00E94890362E083EC90E00E942E07D2
:101780008EEF810F1F5F8E3F30F4809140058F5F99
:101790008093400510E010934A055E9A80914B05B6
:1017A000883108F063C0E82EF12CF701E652F44FBF
:1017B0000C942C16F20BF20BF20BF20BF20B3E0C0C
:1017C000470C470C980CDB0CDB0CDB0CDB0CDB0C4C
:1017D000DB0CDB0CDB0CDB0CDB0CDB0CDB0CDB0CD1
:1017E000DB0CDB0CC701880F991F8E0D9F1D00912C
:1017F0004A05080F192F111D24E736E242E070E078
:1018000060E090E080E00E948E058091B5059091A7
:10181000B6050C9761F41092B6051092B5052FEF3E
:10182000E21AF20A33E0E322FF24E0924B050E9421
:10183000A3038823D9F08091B5059091B605019650
:101840009093B6058093B50580914205803218F4D7
:101850008F5F809342050E94AE03882339F0809108
:101860004205803219F485E080934B0580E090E0DA
:10187000892B09F455CF0E9400004FCF86E080935A
:101880004B05109242051092B6051092B5050E94C4
:10189000A3038823E9F08091B5059091B6050196E0
:1018A0009093B6058093B5050E94AE0390914205D2
:1018B000983139F483FF05C00E943B0788E080938C
:1018C0004B0580914205883118F48F5F8093420563
:1018D000E0904A05F12C8091B5059091B605B101D3
:1018E0000E9404166F7077278B01000F111F060FDF
:1018F000171F0E0D1F1D28E732E642E070E060E082
:1019000090E080E00E948E05870126E736E542E000
:1019100064E070E090E080E00E9441052CEE3EE142
:1019200042E062E270E089E090E00E9441059ECFD3
:101930001092B6051092B50589E080934B050E9480
:101940003B070E94491520E43FE140E050E00E943F
:10195000A1156B01882799276115710581059105EE
:1019600011F00E949815D092B405C092B30584E19D
:101970008093BC051092BD058FEF8093DC0510921B
:10198000DD058093BE051092BF058093C0051092BF
:10199000C1058093C2051092C3058093C4051092BF
:1019A000C505E2EBF5E0868B178A329626EC35E02A
:1019B0002E173F07C1F7E0904A050E94A303882332
:1019C00009F444C00E94AE03409145052091B5053D
:1019D0003091B6052F5F3F4F3093B6052093B50584
:1019E0001091BB05F090480511118DC2F110C3C0D4
:1019F00090914B054C704C3009F041C0409144052A
:101A00004F5F4134D0F440934405E7EFE90FEE30E7
:101A100008F06CC1F0E0E15FF24F0C942C16420D1F
:101A2000F40DF40DF40DF40D250EBE0EE00EF60EC1
:101A3000080F590F590F5D0F610F109244059093D5
:101A4000430586E180934B0510924605F0904B05C7
:101A5000E6EFEF0DED3008F009CFF0E0EE5CF24F6D
:101A60000C942C16C111C111C111C1112B115F129F
:101A70008212BC12FB12D9138B112D140A1410926E
:101A80004405C3CF80E03EE0823008F03AE092E0C7
:101A90001250212F290FE22F022E000CFF0B3917B5
:101AA00040F0EE0FFF1FEE54FA4F84A795A79F5FFB
:101AB000F0CF8F5F122F843031F720933606CF2C72
:101AC000D12C80913606282F082E000C330BC2161D
:101AD000D3060CF041C0082E000C990BAA0BBB0BCF
:101AE0008F2C912CB12CA12C88169906AA06BB0626
:101AF0009CF42C013D01481859086A087B0841F004
:101B00000E944915A30192010E94A1152B013C01DD
:101B1000840C951CA61CB71CF601EE0FFF1FE252A9
:101B2000FA4F80819181F601EE0FFF1FEE54FA4FBC
:101B3000912CD401AA0FBB1FAE54BA4F9C962D9185
:101B40003C9135A724A7F401EE0FFF1FE252FA4F94
:101B500080839183F394B3CF1092B6051092B505AC
:101B60008AE080934B051092B7051092B805109249
:101B7000B9051092B2051091BB05F09048051111FE
:101B8000C2C1F110C0C180914B058E3009F0BBC1BC
:101B9000009136060E94F700002309F401C281304B
:101BA00009F0B1C18091BE059FEF2091BF052111C1
:101BB00095C18091C1058093BF058091C00520919A
:101BC000C3052093C1052091C2052093C005209133
:101BD000C5052093C3052091C4052093C20510922A
:101BE000C5059093C405E1CF2A31310508F47EC0C4
:101BF0009F5F90934B051092B6051092B50500912A
:101C000036060023F9F0015000933606000F110B41
:101C100002521A4F0E94F70090E0F80121813081B2
:101C2000FC01EE0FFF1FEC54FA4F3287880F991F0B
:101C3000FC01EE54FA4F258780913606811156C07B
:101C40008EE06AC010E000E0E5CF86FF25C08091FD
:101C5000BA05813099F060F08230C1F0833009F02C
:101C60008ACF8091C505882309F440C084E00BC069
:101C70008091BF05882311F081E005C08091C105E6
:101C8000882321F082E08093BA0575CF8091C30547
:101C9000882339F383E0F7CF85FF2BC08091BA0505
:101CA000823001F190F4813009F065CF8091B80560
:101CB00081111CC00E94F7008430C1F48091360667
:101CC0008823A1F01092BA0556CF833039F08430C2
:101CD00009F051CF8091C3058111DCCF8091C105FE
:101CE0008111D0CF8091BF058111C6CF10E0F12CBA
:101CF0004ACF83FFFBCF8091BA05823059F178F447
:101D00008823A9F0813009F036CF8091BE0582305A
:101D100039F5109246058FE080934B052CCF833028
:101D2000E1F0843009F027CF8091C405F0CF81E045
:101D300080934805809347051092490581E090E023
:101D40009093B6058093B50516CF81E1E5CF0E944B
:101D50007A0A11CF8091C005DACF8091C205D7CF22
:101D60008330A9F7109246058091BC05843168F74D
:101D70008091B7058111E9CF80E1CECF86FF04C005
:101D800081E080934605F7CE85FF03C0109246059B
:101D9000F2CE83FFABCF80914605811151CF809168
:101DA000BA05815091E090934805109247058093C1
:101DB000490581E090E09093B6058093B50540CF4A
:101DC00086FDDECF85FDE2CF83FF90CF8091460573
:101DD00081118CCF8091BA05815091E09093480594
:101DE00092E09093470580934905C5CE86FDC8CF04
:101DF00085FDCCCF83FF7ACF80914605811120CF1E
:101E00008091BA05815091E09093480593E0E9CF25
:101E10009091BA059150E92FF0E0EE0FFF1FE254C8
:101E2000FA4F218184FF15C080914605882329F04F
:101E3000813009F0A0CE82E0A4CF8091DD05882317
:101E4000D1F38091C905882309F49ACF281798F710
:101E500097CF87FF16C080914605813009F496CF51
:101E6000823009F088CE8091DD05882309F48ECF79
:101E70008091C905882309F483CF281708F086CFFD
:101E80007FCF83FF33CF80914605813071F020F002
:101E9000823009F4D5CE6FCE81E08093480584E08E
:101EA000809347059093490549CF8093480585E085
:101EB000F7CF83FF1BCF85E12FCF83FF17CF85E0BF
:101EC0002BCF86FD5DCF85FD61CF83FF0FCF809146
:101ED00046058823A1F3809143051ECF8093BE055C
:101EE0008BE080934B051092B6051092B5051092C9
:101EF000B70581E08093BA058091B90581111092F0
:101F0000B8051092B9058091B5059091B6059C0170
:101F1000277033272130310509F05EC01C390CF4DD
:101F20005BC01F3F09F00CF447C01150143608F095
:101F300053C02091BC052F5F2531E0F52093BC05EF
:101F40001093BB052091BC05211146C01092B60527
:101F50001092B50584E180934B05FF2009F476CDFE
:101F600081E08F0D809348058A3009F430C1E8F58F
:101F7000843009F475C0893009F068CD8091470537
:101F8000813009F414C108F40DC1833009F05ECD2D
:101F9000109248050E94BE038EE080934B0556CDFB
:101FA0008111B1CF83E180934B051092B605109259
:101FB000B505A9CF24E1C2CF2091BC05211103C0F2
:101FC00021E02093BC052091BC0521502093BC0545
:101FD0001F5F1093BB05B8CFFF2009F437CD837086
:101FE0009927892B09F032CDBBCF8B3009F4BFC1C3
:101FF0008E3009F02BCD80914705843009F026CD35
:10200000E0914905F0E0DF01AA0FBB1FA254BA4FCF
:1020100011968C911197982F91959093BB05909163
:10202000BC058917A8F411968C9111978093C70568
:102030008C918093C605DF01AA0FBB1FAC54BA4F29
:102040008FEF1A968C93EE0FFF1FEE54FA4F158602
:102050008EE080934B050E94BE0310924805F6CC9B
:10206000809147058130F1F178F0823009F478C031
:10207000833009F0EBCC8091490590E0FC01EE0F34
:10208000FF1FE254FA4F7AC08091490590E0FC01AD
:10209000EE0FFF1FE254FA4F308121813093DC05AF
:1020A0002093DD0521812093C70520812093C6055B
:1020B000FC01EE0FFF1FEC54FA4F2FEF2287880F21
:1020C000991FFC01EE54FA4F1586E2EBF5E08FEF15
:1020D000868B178A329625E0E63CF207C9F7109204
:1020E000BD05B4CC8091BE059091BF0598878F83C4
:1020F000CE0107960E94D7001FEF1093BE051092E5
:10210000BF058091C0059091C1059E838D83CE014E
:1021100005960E94D7001093C0051092C1058091CA
:10212000C2059091C3059C838B83CE0103960E94C8
:10213000D7001093C2051092C3058091C4059091F9
:10214000C5059A838983CE0101960E94D70010931A
:10215000C4051092C5051092C7051092C60576CC2D
:102160008091490590E0FC01EE0FFF1FE254FA4F09
:10217000218131E03093B7052093BB052181209365
:10218000C70520812093C605FC01EE0FFF1FEC540C
:10219000FA4F2FEF2287880F991FFC01EE54FA4F58
:1021A000158654CC109248050E94BE034FCC9AE08D
:1021B00090934B051092B6051092B5058093BA0521
:1021C000109248058093B8058093B9053FCC809163
:1021D0004705853009F03ACCC0904905D12C8601DD
:1021E000000F111F02541A4FF801B080F1800E94B5
:1021F0000A018F1518F48F198093BB05F8018181AE
:102200008093C70580818093C605F601EE0FFF1FFE
:10221000EC54FA4F8FEF8287F601EE0FFF1FEE545A
:10222000FA4F15868091BD05E2EBF5E0811161C0A2
:10223000B092C805F092C9058F5F8093BD058EE00E
:1022400080934B050E94BE03109248058091BC0507
:10225000882309F459C0CE2CD12C86012CEB34E212
:1022600043E070E060E089E190E00E948E058E2DF1
:102270000E94D3051091480561E0111160E040E033
:102280008E2D0E946406112309F4F0CA809147053F
:10229000882309F4F4C0813009F0E8CA83E0189F6C
:1022A000C00CD11C1124F60133978F012AED37E7BA
:1022B00043E064E070E080E190E00E9441052CED95
:1022C0003FE843E064E070E084E390E00E94410571
:1022D0002AED37E743E064E070E082E290E00E949C
:1022E00041052CED3FE843E064E070E086E490E0D7
:1022F0001CCB97A191A796A190A7329720EA35E031
:102300002E173F07B1F794CF1092B6051092B5057E
:1023100084E180934B05CE2CD12C86012CEB34E24A
:1023200043E070E060E089E190E00E948E058E2D30
:102330000E94D30540E060E08E2D0E946406E0918B
:10234000B505F091B605E634F10508F061C2F695E1
:10235000E795F0E0E953FF4F6491062E000C770BF0
:102360006051710986012EEA36EC43E04CC280913F
:102370004705823009F06ACB0E94BE0310924805DF
:102380000BCECE2CD12C86012CEB34E243E070E056
:1023900060E089E190E00E948E058E2D0E94D305B9
:1023A0003CE0F316C1F18DE0F81609F44EC09BE055
:1023B00040E060E08E2DF916B9F00E94640680912D
:1023C000B5059091B605969587958C01000F111F64
:1023D000080F191F0C0D1D1D20E138E841E068E0D1
:1023E00070E089E190E0A1CA0E9464068091B50581
:1023F0009091B605969587958C01000F111F080FD7
:10240000191F0C0D1D1D20E138E841E068E070E067
:102410008BE290E08ACA40E060E08E2D0E94640664
:102420008091B5059091B605969587958C01000F22
:10243000111F080F191F0C0D1D1D20E138E841E088
:1024400068E070E08DE390E070CA40E060E08E2DBF
:102450000E9464068091B5059091B6059695879582
:102460008C01000F111F080F191F0C0D1D1D20E1FD
:1024700038E841E068E070E08FE490E056CAE3E0BD
:102480001E9FC00CD11C11249601235031096901F3
:102490008091490532E1839FC001112486012AED14
:1024A00037E743E064E070E040960E9441052CED80
:1024B0003FE843E062E270E080E190E036CACE2C73
:1024C000D12C86012CEB34E243E070E060E089E13E
:1024D00090E00E948E058E2D0E94D30541E060E0C1
:1024E0008E2D0E94640680914605F3E08F9F000DBB
:1024F000111D11242EE43BE243E064E170E08EE123
:1025000090E013CACE2CD12C86012CEB34E243E0B0
:1025100070E060E089E190E00E948E058E2D0E94BF
:10252000D30541E060E08E2D0E946406809148054D
:1025300081110DC08091460523E0829F000D111D81
:1025400011242AE53BE343E064E170E04ACF8601D1
:1025500033E0839F000D111D112403501109809158
:102560004905E2E18E9FC001112422EB3AEE43E0DF
:1025700064E070E04096D9C9CE2CD12C86012CEBBA
:1025800034E243E070E060E089E190E00E948E0573
:102590008E2D0E94D30541E060E08E2D0E946406DE
:1025A000809148058823B9F08A3008F05FC9860118
:1025B00023E0829F000D111D112403501109809109
:1025C000490532E1839FC00111242AED37E743E03A
:1025D00064E070E0D2C0809146058601F3E08F9FF1
:1025E000000D111D112424EE33E343E064E170E09B
:1025F00082E290E09AC9E091BA05E150F0E0EE0F76
:10260000FF1FE254FA4FF180CE2CD12C86012CEB27
:1026100034E243E070E060E089E190E00E948E05E2
:102620008E2D0E94D30541E060E08E2D0E9464064D
:1026300080914805082F10E08F3008F017C9F80185
:10264000EC5DFC4E0C942C1633135413541354139A
:1026500054135413541385138513BF13CE13CE1381
:10266000CE13CE13CE138091460513E0E12E8601E2
:102670008E9D000D111D112424E335E443E064E137
:1026800070E087E190E00E9441058601FE9C000D0C
:10269000111D112424EA3FE643E066E170E082E385
:1026A00090E00E948E05E2C8809147058430E9F0F1
:1026B000853009F0DBC8C80101978C01000F111F9C
:1026C000080F191FC00ED11E86012CED3FE843E014
:1026D00062E270E086E490E00E9441058091490545
:1026E000F2E18F9FC001112430C0C80101978C0115
:1026F000000F111F080F191F0C0D1D1D809149059A
:10270000E2E18E9FC001112433C0809147058430DF
:1027100001F1853009F0AAC8C80101978C01000FAA
:10272000111F080F191FC00ED11E86012CED3FE8A6
:1027300043E062E270E086E490E00E94410580910F
:10274000490532E1839FC00111242CEA38EA43E0B5
:102750003FCFC80101978C01000F111F080F191FEF
:102760000C0D1D1D8091490522E1829FC00111249D
:102770002EE83EE244E06FEF7FEF4196D6C88091AD
:102780004705843039F0853009F070C88601085E4D
:102790001F4FA4CF8601085E1F4FB0CF8091470521
:1027A000843009F063C801501109C801880F991FCE
:1027B000D5CFCE2CD12C86012CEB34E243E070E057
:1027C00060E089E190E00E948E058E2D0E94D30585
:1027D00040E060E08E2D0E946406E091B505F09126
:1027E000B605E634F10590F4F695E795F0E0E95387
:1027F000FF4F6491062E000C770B60517109860122
:1028000020EB38ED43E090E080E08FC8E3E2EECFCC
:10281000E3E29FCDCE2CD12C86012CEB34E243E0B9
:1028200070E060E089E190E00E948E058E2D0E94AC
:10283000D30540E060E08E2D0E946406809146053D
:1028400033E0839F000D111D112424EB3EE044E092
:1028500064E170E080E290E068C8E2EBF5E0D12C42
:10286000C12CB12C8485823020F4B3948585C81A9C
:10287000D10832968AEB95E08E179F0799F7209141
:10288000360690E080E0821790F4F0E0E0E022234A
:1028900029F0FC01EE0FFF1FE252FA4F3081323077
:1028A00020F4B3943181C31AD1080196ECCFC1143E
:1028B000D10489F4C090BC05D12C94E1C916D1048F
:1028C00051F48091C605833031F4C090C705D12CF6
:1028D000E4E1CE0ED11CF12C8091B5059091B605A6
:1028E000B1010E9404166F7077278B01000F111F32
:1028F000060F171F0E0D1F1D28E732E642E070E09D
:1029000060E090E080E00E948E0587012AED37E1CB
:1029100044E070E060E090E080E00E9441059701B3
:1029200083E0B89E200D311D11245901D7FE40C00F
:102930002CED36E244E065E270E088E190E00E9430
:10294000410585012AE33FE543E065E270E081E669
:1029500090E00E944105C60166EF7FEF0E941816C5
:102960008B01000F111F060F171F0E0D1F1D2AE3ED
:102970003FE543E06DE270E08AE490E00E944105AB
:10298000882799278C199D0964E670E00E94181623
:102990008C01000F111F080F191F0E0D1F1D2AE3B8
:1029A0003FE543E06DE270E08EE490E00C94950C1E
:1029B0000D5F1F4F2CED36E244E065E270E088E1E8
:1029C00090E00E94410585012AE33FE543E065E28E
:1029D00070E081E690E00E9441058601000F111F22
:1029E0000C0D1D1D0E0D1F1D2AE33FE543E06DE29A
:1029F00070E08AE490E00C94950C8F929F92AF92D5
:102A0000BF92CF92DF92EF92FF92CF93DF93EC01D0
:102A1000688179818A819B816115710581059105A4
:102A200021F464E279ED8BE597E02DE133EF41E0AD
:102A300050E00E94A11549015A019B01AC01A7EA8F
:102A4000B1E40E94C0156B017C01ACEEB4EFA501AE
:102A500094010E94CE15C60ED71EE81EF91EF7FE81
:102A600006C081E0C81AD108E10880E8F80AC882E7
:102A7000D982EA82FB82C701B6019F77DF91CF91AD
:102A8000FF90EF90DF90CF90BF90AF909F908F908E
:102A900008958F929F92AF92BF92CF92DF92EF9262
:102AA000FF9260910C0170910D0180910E01909147
:102AB0000F01611571058105910521F464E279ED3D
:102AC0008BE597E02DE133EF41E050E00E94A11546
:102AD00049015A019B01AC01A7EAB1E40E94C0156B
:102AE0006B017C01ACEEB4EFA50194010E94CE1500
:102AF000C60ED71EE81EF91EF7FE06C081E0C81AF2
:102B0000D108E10880E8F80AC0920C01D0920D01CA
:102B1000E0920E01F0920F01C701B6019F77FF907E
:102B2000EF90DF90CF90BF90AF909F908F900895DF
:102B300060930C0170930D0180930E0190930F012F
:102B40000895052E97FB1EF400940E94B81557FDBA
:102B500007D00E94D31507FC03D04EF40C94B8158F
:102B600050954095309521953F4F4F4F5F4F0895B9
:102B700090958095709561957F4F8F4F9F4F0895E9
:102B80000E94F515A59F900DB49F900DA49F800DF8
:102B9000911D11240895B7FF0C94C0150E94C01513
:102BA000821B930B0895A1E21A2EAA1BBB1BFD01E9
:102BB0000DC0AA1FBB1FEE1FFF1FA217B307E4071C
:102BC000F50720F0A21BB30BE40BF50B661F771F74
:102BD000881F991F1A9469F7609570958095909554
:102BE0009B01AC01BD01CF010895A29FB001B39F2D
:102BF000C001A39F700D811D1124911DB29F700D06
:102C0000811D1124911D0895AA1BBB1B51E107C012
:102C1000AA1FBB1FA617B70710F0A61BB70B881F6C
:102C2000991F5A95A9F780959095BC01CD010895FB
:102C300097FB072E16F4009407D077FD09D00E9469
:102C4000041607FC05D03EF4909581959F4F08959A
:102C5000709561957F4F0895EE0FFF1F0590F491D9
:082C6000E02D0994F894FFCF68
:102C6800FFFFFFFF00E1000000000000010000007E
:102C780000C18081000000000000006501EE0286AE
:0A2C8800017B01CC018A01A80100C4
:00000001FF
